:100000001DC1000037C1000035C1000033C1000030
:1000100031C100002FC10000CAC5000026C6000083
:100020006BC60000AAC6000025C1000023C1000065
:1000300021C100001FC100001DC100001BC1000044
:1000400019C1000017C1000015C1000013C1000054
:1000500011C100000FC100000DC100000BC1000064
:1000600098C7000007C1000005C1000003C10000DF
:1000700001C10000FFC00000FDC00000FBC0000087
:10008000F9C00000F7C00000F5C00000F3C0000098
:10009000F1C00000EFC00000EDC00000EBC00000A8
:1000A000E9C00000E7C00000E5C00000E3C00000B8
:1000B000E1C00000DFC00000DDC00000DBC00000C8
:1000C000D9C00000D7C00000D5C00000D3C00000D8
:1000D000D1C00000CFC00000CDC00000CBC00000E8
:1000E000C9C00000C7C00000C5C00000C3C00000F8
:1000F000C1C00000BFC00000BDC00000BBC0000008
:10010000B9C00000B7C00000B5C00000B3C0000017
:10011000B1C00000AFC00000ADC00000ABC0000027
:10012000A9C00000A7C00000A5C00000A3C0000037
:10013000A1C000009FC000009DC000009BC0000047
:1001400099C0000097C0000095C0000099C600004B
:1001500091C000008FC000008DC000008BC0000067
:1001600089C0000087C0000085C0000083C0000077
:1001700081C000007FC000007DC000007BC0000087
:1001800079C0000077C0000075C0000073C0000097
:1001900071C000006FC000006DC000006BC00000A7
:1001A00069C0000067C0000065C0000063C00000B7
:1001B00061C000005FC000005DC000005BC00000C7
:1001C00059C0000057C0000055C0000053C00000D7
:1001D00051C000004FC000004DC000004BC00000E7
:1001E00049C0000047C0000045C0000043C00000F7
:1001F00041C000000C94A0110C945612F405F405B3
:10020000F405F405F4052706FF05FF05070A090AAA
:10021000300A630A6C0A710AC30AC80A850A900A7E
:100220009E0AA00AA20AAC0AB60AC10A7D0A880A76
:10023000920AA00AA20AA40AAE0AB80A11241FBE92
:10024000CFEFCDBFDFE2DEBF10E2A0E0B0E2EAE92F
:10025000F6E202C005900D92A03CB107D9F72CE25E
:10026000A0ECB0E201C01D92AC35B207E1F749D075
:100270000C944B13C5CEE0E0FAE080EC9DE586A33C
:1002800097A380EE9EE280A391A381E08093400932
:100290000895E0E8F6E08FE0808385E084830895A8
:1002A00008954091C2202EEE32E0429FC001439F4C
:1002B000900D112441E551E06AEF70E08658994DA8
:1002C0003DC74091C2202EEE32E0429FC001439FC5
:1002D000900D112441E651E06AEF70E08C58984D82
:1002E00039C74091C2202EEE32E0429FC001439FA9
:1002F000900D112441E751E06AEF70E08259974D6B
:1003000035C787E08093A20078946AD6C9DF0E943F
:100310009109B0D0D3D060E080E07DD069D08CE08E
:100320005DD06CD510D627D6B4DF000000000000E9
:1003300000000000000000000000000000000000BD
:10034000000000000000F1CF089508958091C020C2
:10035000882311F090DF01C000009091C42081E05B
:10036000911180E08093C220089581E08093C520A0
:100370008093C02041E551E06EEE72E08AE796E29C
:10038000DDD641E651E06EEE72E084E797E2E2D618
:1003900041E751E06EEE72E08EE698E2E7D681E04A
:1003A00008951092C520089581E0089581E0089590
:1003B00010922002982F9C7193689093200287FFDF
:1003C00003C090E182E002C090E080E0892B80933E
:1003D000210210922202109226020895E0E0F2E03B
:1003E00010AA836880AB80E181AB12AA16AA089597
:1003F000E0E0F2E010A683E880A78FE281A712A6D2
:1004000016A60895AAECB1E092E09C93E82FF0E0E4
:1004100084911C920895909171009D7F909371003A
:1004200010920002623011F09CE101C09EE19093B5
:10043000010290E490930202811102C080E401C0A5
:1004400080EC80930302613011F083E001C082E010
:100450008093040280E2D6DF80930C0281E2D2DF37
:1004600080930D02109218021092190281E080937D
:100470000002BECFCF93DF93E0E7F0E082818B7F75
:100480008283C0E2D3E08DE0888380E4898389E0C1
:100490008A8383E3B7DF888782E3B4DF898787E3D2
:1004A000B1DF8A8786E3AEDF8B87E0E2F6E080810A
:1004B000836080831482DF91CF910895E0E7F0E0BC
:1004C00080818E7F808383E8809300010895E0E03F
:1004D000F1E0108A80E4808B10A280A310AA80AB88
:1004E000E0E4F1E0108280831092C4201092C320D7
:1004F000089510920020EBDFE0E0F1E016AA94E20C
:1005000090AB11AA49E542AB32E033AB60910220D7
:100510007091032064AB75AB6AE774E260AF71AFB2
:1005200012AE8BE384AF83E080933D0110923E01D5
:1005300020A9206820AB10924601A0E4B1E09C9372
:100540001092410140934201809343014091042065
:100550005091052040934401509345014AE652E2F0
:10056000409348015093490110924A0129E3209396
:100570004C0180934D0110924E012C9120682C93D8
:10058000108A20E4208B24E0208B818B81E9828BF0
:1005900080E1838B47E751E0448B558B908F318FFF
:1005A000128E4091C4202EEE32E0429FC001439F44
:1005B000900D11248658994D848F4091C420429FFC
:1005C000C001439F900D11248658994D958F168E2A
:1005D00080898068808B0895CF93DF9381E080933A
:1005E000002075DFE0E0F1E010AA80E480AB94E049
:1005F00090AB11AA12AA5BE453AB14AA15AA16AACF
:1006000021E030E220AF31AF12AE40EA44AF38E033
:1006100030933D0110923E0180A9806A80AB85E550
:100620008093A00810924601A0E4B1E0D4E2DC93EC
:100630001092410189E580934201C2E0C0934301D9
:1006400060910220709103206093440170934501F2
:100650006AE774E2609348017093490110924A017D
:100660008BE380934C0183E080934D0110924E0107
:100670002C9120682C93908B818BA1E9A28B20E197
:10068000238B67E771E0648B758BD08FC18F128EDF
:10069000CAE7D6E2C48FD58F168E20892068208BBA
:1006A00090A381A3A2A353A364A375A340A731A7DA
:1006B00012A681EF97E284A795A716A680A180686D
:1006C00080A3DF91CF910895CF93F894C2E0C093B7
:1006D0000020FDDEE0E0F1E016AA94E290AB11AA62
:1006E00039E532AB83E083AB409104205091052083
:1006F00044AB55AB4AE652E240AF51AF12AE29E3EC
:1007000024AF80933D0110923E0120A9206820ABC8
:1007100010924601A0E4B1E09C9310924101309305
:100720004201C09343012091022030910320209385
:100730004401309345012AE734E220934801309385
:10074000490110924A012BE320934C0180934D0103
:1007500010924E012C9120682C9354E0508B818B89
:1007600041E9428B20E1238B27E731E0248B358B55
:10077000908FC18F128E6AE776E2648F758F168E26
:1007800090899068908B50A381A342A382E183A3B8
:1007900024A335A384E380A7C1A712A681EF97E223
:1007A00084A795A716A680A1806880A37894CF918E
:1007B0000895CF93C3E0C093002089DEE0E0F1E02C
:1007C00010A250E450A344E040A311A212A23BE4C3
:1007D00033A314A215A216A281E090E280A791A7EC
:1007E00012A620EA24A798E095A716A680A1806A01
:1007F00080A385E58093A00816AA74E270AB11AAC5
:1008000069E562ABC3ABA0910420B0910520A4AB15
:10081000B5ABAAE6B2E2A0AFB1AF12AE89E384AF46
:10082000C0933D0110923E0180A9806880AB109278
:100830004601A0E4B1E07C93109241016093420133
:1008400082E08093430160910220709103206093C5
:100850004401709345016AE774E260934801709324
:10086000490110924A018BE380934C01C0934D01E2
:1008700010924E018C9180688C93108A508B408B23
:10088000C18B81E9828B338B47E751E0448B558BD9
:10089000208F918F128E8AE796E2848F958F168E25
:1008A00080898068808BCF910895CF93C4E0C093F6
:1008B00000200DDEE0E0F1E010A280E480A3C0A300
:1008C00011A212A24BE443A314A215A216A281E026
:1008D00090E280A791A712A660EA64A788E085A7A6
:1008E00016A690A1906A90A395E59093A008109207
:1008F0004601A0E4B1E094E29C931092410199E595
:100900009093420192E09093430120910220309114
:10091000032020934401309345012AE734E22093D9
:1009200048013093490110924A019BE390934C0196
:1009300093E090934D0110924E012C9120682C93DE
:10094000C08B918B31E9328B438B47E751E0448B6D
:10095000558B608F818F128E6AE776E2648F758F78
:10096000168E20892068208BC0AB91AB32AB9AE405
:1009700093AB44AB55AB93EC90AF81AF12AE81EF2C
:1009800097E284AF90933D0110923E0180A9806868
:1009900080ABCF91089585E08093002098DDE0E062
:1009A000F1E016AA34E230AB11AA29E522AB83E0CC
:1009B00083AB409104205091052044AB55AB4AE6EF
:1009C00052E240AF51AF12AE99E394AF80933D0134
:1009D00010923E0190A9906890AB10924601E0E41D
:1009E000F1E0308310924101209342018093430152
:1009F000209104203091052020934401309345013B
:100A00002AE734E2209348013093490110924A01C9
:100A10009BE390934C0180934D0110924E01808195
:100A200080688083089586E08093002050DDE0E0B8
:100A3000F1E016AA94E290AB11AA39E532AB83E05B
:100A400083AB409104205091052044AB55AB4AE65E
:100A500052E240AF51AF12AE29E324AF80933D0183
:100A600010923E0120A9206820AB10924601A0E41C
:100A7000B1E09C93109241013093420132E03093F7
:100A80004301409102205091032040934401509330
:100A900045014AE754E240934801509349011092BE
:100AA0004A012BE320934C0180934D0110924E019B
:100AB0002C9120682C93108A20E4208B24E0208B3A
:100AC000818B81E9828B80E1838B4EEE52E0448BF7
:100AD000558B908F318F128E8AE796E2848F958F97
:100AE000168E80898068808B089587E0809300202F
:100AF000EEDCE0E0F1E016AA94E290AB11AA39E551
:100B000032AB83E083AB409104205091052044AB8D
:100B100055AB4AE652E240AF51AF12AE29E324AFE3
:100B200080933D0110923E0120A9206820AB1092D5
:100B30004601A0E4B1E09C93109241013093420140
:100B400032E03093430140910220509103204093C2
:100B50004401509345014AE754E2409348015093C1
:100B6000490110924A012BE320934C0180934D01DF
:100B700010924E012C9120682C93108A20E4208B37
:100B800025E0208B818B81E9828B80E1838B4EEE87
:100B900052E0448B558B908F318F128E8AE796E20C
:100BA000848F958F168E80898068808B08951F9220
:100BB0000F920FB60F9211242F933F934F938F9361
:100BC0009F93AF93BF93EF93FF9381E080930301D3
:100BD000E09100208E2F90E088309105C0F5FC0157
:100BE000E250FF4F0C943C1387E791E0809314018F
:100BF000909315014091C4202EEE32E008C02EEEF5
:100C000032E020931401309315014091C420429F9B
:100C1000C001439F900D11248658994D80931C016B
:100C20004091C420429FC001439F900D11248658DB
:100C3000994D90931D01809110018068809310015F
:100C40009091C42081E0911180E08093C420FF91B5
:100C5000EF91BF91AF919F918F914F913F912F91C4
:100C60000F900FBE0F901F9018951F920F920FB606
:100C70000F9211242F933F934F938F939F9382E072
:100C80008093030180910020813011F0823051F572
:100C900087E791E080932401909325014091C32040
:100CA0002EEE32E0429FC001439F900D11248F50E1
:100CB000984D80932C014091C320429FC001439FD7
:100CC000900D11248F50984D90932D01809120010B
:100CD0008068809320019091C32081E0911180E091
:100CE0008093C3209F918F914F913F912F910F90AF
:100CF0000FBE0F901F9018951F920F920FB60F9274
:100D000011242F933F934F938F939F9384E080936D
:100D1000030187E791E0809334019093350140917E
:100D2000C3202EEE32E0429FC001439F900D11245C
:100D30008F50984D80933C014091C320429FC00149
:100D4000439F900D11248F50984D90933D018091B9
:100D500030018068809330019091C32081E091112F
:100D600080E08093C3209F918F914F913F912F916D
:100D70000F900FBE0F901F9018951F920F920FB6F5
:100D80000F9211242F933F934F938F939F9388E05B
:100D90008093030187E791E080934401909345019C
:100DA0004091C3202EEE32E0429FC001439F900D40
:100DB00011248F50984D80934C014091C320429F45
:100DC000C001439F900D11248F50984D90934D0179
:100DD000809140018068809340019091C32081E020
:100DE000911180E08093C3209F918F914F913F910B
:100DF0002F910F900FBE0F901F901895E0E7F0E035
:100E000083818C7F838384818C7F848380818D7FA9
:100E10008083E0E8F1E080EC8283128688EC8183B5
:100E20001186A0E0B8E034E03C9323E011962C93C7
:100E3000119714961C92149785ED91E096968D93D8
:100E40009C93979716961C921697E0E4F8E03083EF
:100E50002183148286A397A31682E0E6F6E08081C0
:100E600080618083E0E4F9E083E18183148282E0A1
:100E70008683A6A3B7A310A611A681E08083089558
:100E80001F920F920FB60F9211242F933F934F93FF
:100E90005F938F939F93CF93DF931F92CDB7DEB76E
:100EA0008FEF80934C0980910020873031F480913E
:100EB0002C02898390912D0202C090912C02809186
:100EC000C120891B209168093091690982308CF01A
:100ED0002A3F374070F420916809309169098930C0
:100EE0001CF481E090E002C086E090E0820F931F46
:100EF00018C020916809309169098F3FB4F42730F8
:100F0000310598F02091680930916909883F1CF0FB
:100F100081E090E002C086E090E0A901481B590BF7
:100F2000CA0180937809909379090F90DF91CF914E
:100F30009F918F915F914F913F912F910F900FBE95
:100F40000F901F901895E0E7F0E083818F7E8383F8
:100F5000E0E4F6E080818A6A80838FEF848388E50D
:100F6000828BE0EAF8E084EC858383E08683178255
:100F700088E184830895E0E7F0E08381877F8383BD
:100F8000E0ECF8E080E48083118288E580935506E8
:100F900008951F920F920FB60F92112400000F9028
:100FA0000FBE0F901F9018959FB7F894A0E5B0E082
:100FB00016968C911697897F16968C931697E0E675
:100FC000F0E080E885838BEB868316968C911697EC
:100FD000846016968C938081816080839FBF089582
:100FE000CF93DF9300D000D0CDB7DEB78FEF8093E3
:100FF00070008093710080937200809373008093DF
:101000007400809375008093760064E081E490E042
:101010000ED56CE170E082E010D58C836DE170E05C
:1010200082E00BD58B838B819C81019621F480E437
:1010300093E28B839C838B819C8189839A838093A9
:1010400062008A81809363009FB7F894809150007A
:101050008260809350009FBF8091510081FFFCCF40
:10106000A3DF61E080E490E0E2D49FB7F894809140
:1010700050008E7F809350009FBF2496CDBFDEBF6F
:10108000DF91CF9108959FB7F894E82FF0E0E059F1
:10109000FF4F60958081682360839FBF0895CF9341
:1010A000863011F0C0E001C0C8E18091510081FD9F
:1010B0000DC09FB7F89480915000826080935000DB
:1010C0009FBF8091510081FFFCCF6EDF6C2F63606A
:1010D00084E490E0ACD460E480E0CF91D4CF809100
:1010E000C62008958091C620813009F45AC9089518
:1010F00013D1FC0183818093C620811101C035C9C1
:1011000081E0089590916A24892F807697FF07C027
:10111000803491F480916B2481110EC047C98034D2
:1011200059F480916B24811107C0809170249091B3
:101130007124892B09F038C980E008950F931F931B
:101140009B018A01AC0160E081E80E94CB101F91F5
:101150000F9108950F931F939B018A01AC0160E0EA
:1011600082E80E94CB101F910F9108950F931F9357
:101170009B018A01AC0160E083E80E94CB101F91C3
:101180000F91089580916C248F7787C79091CE201E
:10119000911102C080E00895E091CB20F091CC2025
:1011A0000190F081E02D94818917A0F7E093C92088
:1011B000F093CA20228133812E0F3F1FE217F307DD
:1011C00098F49181943061F49281891309C09381DC
:1011D000691306C0E093C920F093CA2081E0089506
:1011E0009081E90FF11DEACFE093C920F093CA2066
:1011F000D1CFE091CB20F091CC200190F081E02D77
:10120000228133812E0F3F1FFC014081E40FF11D2D
:10121000E217F30748F48181843031F0853039F0EA
:101220008081E80FF11DF4CF80E090E00895CF01B8
:1012300008951F93CF93DF93182FA8DF882339F1E8
:10124000C091C920D091CA20CE01D3DFEC01892BF7
:1012500041F04C815D816B818A812CD78111F4CF63
:1012600016C0E091CB20F091CC2092818381E92FB0
:10127000F82FE10FF11DE10FF11D0190F081E02D3C
:101280000190F081E02DDF91CF911F91099480E0D2
:10129000DF91CF911F910895EF92FF921F93CF930B
:1012A000DF93C82F60E072DF811102C010E02DC013
:1012B000E091CB20F091CC2092818381E92FF82F0F
:1012C000EC0FF11DEC0FF11DE080F180D7011696B7
:1012D000ED91FC9117970995682F8C2F57DF182FE8
:1012E000882321F3C091C920D091CA20CE0181DF8B
:1012F000EC01892B21F08A810E948711F7CFD70159
:101300001296ED91FC9113970995812FDF91CF9162
:101310001F91FF90EF9008958091C9209091CA206D
:10132000089543C6CF938091CE20811108C01092BA
:10133000CE201092D2201092D320CF910895C0E0F9
:10134000E091CB20F091CC200190F081E02D8481C0
:10135000C81768F78C2FA0DFCF5FF2CFCF938091B3
:10136000CE208823F1F0C0E0E091CB20F091CC209A
:10137000A081B18114968C91C81798F492818381D1
:10138000E92FF82FEC0FF11DEC0FF11D0190F0810A
:10139000E02D0084F185E02D309709F00995CF5FAD
:1013A000E3CFCF910895EF92FF920F931F93CF93C6
:1013B000DF931F92CDB7DEB710927424109275247C
:1013C0001092762410927724109278241092792427
:1013D00080916A2487FF07C0209170243091712486
:1013E000232B09F41BC3982F9076903409F0D7C0B3
:1013F000E0916B248E2F90E0FC01E05AF109E83077
:10140000F10508F09AC2EA5FFE4F0C943C1300000D
:1014100003C31092000880916C2490916D248093F6
:1014200036089093370880916E248F70809300085F
:1014300060917024709171248AE692E234D62091F2
:1014400004203091052080917024909171242817F8
:10145000390709F4E1C2809304209093052026C047
:101460001092400880916C2490916D2480937608AE
:101470009093770880916E248F70809340086091DC
:101480007024709171248AE794E20DD62091022095
:10149000309103208091702490917124281739078E
:1014A00009F4BAC28093022090930320E0910020B7
:1014B0008E2F90E08830910508F0AEC2FC01E25F0B
:1014C000FE4F0C943C1310926809109269098091A8
:1014D0006C248093C120A0C280916C248093240648
:1014E0009BC2E0916C24F0916D24E830F10508F086
:1014F00024C2EA5EFE4F0C943C1360E080E00E9440
:101500000B0280916E240E94D8010E94790284C24D
:1015100060E080E00E940B0280916E240E94D8015E
:101520005BD87AC261E081E00E940B0280916E2458
:101530000E94D80180916F240E94EE01C5D86CC230
:1015400038D96AC2B2D968C260E080E00E940B025A
:1015500080916E240E94D8011EDA5EC261E080E0B4
:101560000E940B0280916E240E94D8015CDA54C262
:1015700062E080E00E940B0280916E2480680E94ED
:10158000D801B3DA49C280916C248093840644C2A6
:10159000E9E7F0E091E088EDF89484BF9083911141
:1015A000CCC187FFFDC0209170243091712421159A
:1015B000310509F4C2C18F7109F09FC080916B247D
:1015C000863071F0883009F48EC08111B6C12230A6
:1015D000310509F0B2C162E070E082ED90E28BC0AB
:1015E00080916C2490916D24292F3327223031056E
:1015F000A1F064F42130310509F09FC180911020E1
:1016000090911120DC016C9170E05BC023303105BA
:1016100089F12F30310509F190C1E0911020F0914E
:1016200011202189821708F088C19927880F991FF6
:10163000880F991FE0911220F0911320E80FF91FF5
:1016400080819181FC01628173812DD5E0917224AA
:10165000F091732482E0818335C0809114209091B1
:101660001520009709F469C1DC0112966D917C91F7
:10167000139727C099278130910569F038F00297B8
:1016800009F05BC168E18AE890E208C064E070E0BC
:101690008EEA90E216C069E083EA90E2282FAAE57C
:1016A000B0E2FC01819190E08D939D938E2F821B7F
:1016B0008617C0F3660F6E5F6093582070E088E570
:1016C00090E2F1D48091702490917124209174243F
:1016D000309175248217930708F09EC1809374247B
:1016E0009093752499C12130310509F026C161E03C
:1016F00070E08EEC90E2D7D48FC18130C9F5809133
:101700006B248A3009F019C12130310509F015C167
:101710008091CE20882309F410C1E0906E24F090CF
:101720006F240091CB201091CC20D801ED91FC9139
:101730008481E81608F001C160E08E2D27DD882342
:1017400009F4FBC0FF24EE0CFF1CF8018281938199
:101750008E0D9F1DDC01ED91FC910680F781E02D3F
:1017600009958093D02061E070E080ED90E2C3CFD6
:10177000823009F0E2C080916B248111DEC02230FA
:10178000310509F0DAC080916E24E5D490E08093B1
:10179000C7209093C82062E070E087EC90E2ABCF66
:1017A0008F7109F07DC080916B24833009F4C5C02E
:1017B00018F48130A1F0C1C0853019F0893039F1B9
:1017C000BCC08091702490917124892B09F0B5C020
:1017D00082EC98E080937624909377241DC18091C9
:1017E000702490917124892B09F0A7C080916C24FA
:1017F00090916D24019709F0A0C08091D220909122
:10180000D3208D7F8093D2209093D32005C18091E7
:10181000702490917124892B09F08FC041D48823C2
:1018200009F48BC020916C2430916D243327E09112
:101830001020F0911120818990E08217930708F41D
:101840007CC070DD80916C2490916D248093CE20BB
:10185000882309F4E1C099278150904C880F991F83
:10186000880F991F2091122030911320820F931F0F
:101870008093CB209093CC2010E0E091CB20F0918E
:10188000CC200190F081E02D8481181708F0C4C0AD
:1018900060E0812FCEDC882309F44FC01F5FEDCFBD
:1018A0008130F1F480916B248B3009F046C0809137
:1018B000702490917124892B09F03FC08091CE2033
:1018C000882309F43AC010916E2460916C24812F12
:1018D0006983E2DC6981882381F1812FAADC2BC036
:1018E000823059F580916B24813019F0833089F072
:1018F00024C08091702490917124892BF1F48091FF
:101900006C2490916D24892BC1F480916E242AD48B
:1019100012C08091702490917124892B71F4809170
:101920006C2490916D24892B41F480916E24BFD456
:1019300080916E24F5D481116FC080916A248F71DB
:101940008130B9F58091CE20882399F1E0906E2402
:10195000F0906F240091CB201091CC20D801ED9114
:10196000FC918481E81628F560E08E2D0FDC882339
:1019700001F1F701FF27EE0FFF1FD80112968D919D
:101980009C911397E80FF91F00811181D8011696D9
:10199000ED91FC9117970995682F8E2DF7DB882321
:1019A00041F0D8011496ED91FC911597099581119C
:1019B00033C080916A248F71823081F58091CE206E
:1019C000882361F1F12CE091CB20F091CC20A08113
:1019D000B18114968C91F81608F592818381E92FD4
:1019E000F82FEF0DF11DEF0DF11D00811181D801D0
:1019F0001696ED91FC9117970995682F8F2DC6DBF0
:101A0000882361F0D8011496ED91FC911597099502
:101A1000811102C0F394D7CF81E001C080E00F9024
:101A2000DF91CF911F910F91FF90EF9008951BBE12
:101A3000FC0128ED24BF608308954091CA01E62F80
:101A4000F72F8093CA0184914093CA010895E82F2B
:101A5000F0E0EA5AF34D80818F3F09F4FFCF9FB742
:101A6000F89480818F5F80839FBF0895E82FF0E016
:101A7000EA5AF34D8081811101C0FFCF9FB7F894DE
:101A80008081815080839FBF0895CF93C82F80911C
:101A90006422C11105C0882339F081E0E7DF04C06A
:101AA000811102C081E0D3DFC0936422CF910895F9
:101AB000282F2F70082E000C990B392F331F332736
:101AC000331F832F90E0820F911D820F911D23E021
:101AD000880F991F2A95E1F7805E9D4D08950F9319
:101AE000E8ECF4E080818F7D808380818F7D80832E
:101AF000E8E2F2E202E0059310922A2210922B22F1
:101B000000E2069300E40693E0E2F2E200E20693CC
:101B100000E40693EAE6F4E2148615861686178634
:101B20001286138610920F220F9108950F9385E06D
:101B300080930F22E9E2F2E204E00593E1E2F2E2AF
:101B400004E005930F9108950F9383E080930F2293
:101B500010922A2210922B22E8E2F2E202E006938F
:101B60000F910895E0917624F0917724309709F051
:101B700009940895282F2F70082E000C990B392FE7
:101B8000331F3327331F832F90E0820F911D820F65
:101B9000911D029749E0489F9001499F300D112403
:101BA000C9018B569E4D08958F929F92AF92BF921E
:101BB000DF92EF92FF920F931F93CF93DF93D82E74
:101BC000D9DFEC018D2D74DF7C01DC011196EC91E5
:101BD000E770E150E73040F4F0E0EE0FFF1FEE5405
:101BE000FF4D0081118102C008E010E0ED81FE810F
:101BF0002B813C814881D701D7FE48C016968D9134
:101C00009C9117978E0F9F1F8D839E83821793073A
:101C100061F1281B390B2115B4E03B0738F02FEF99
:101C200033E0C901B80114D5281B390B41FF0AC0A4
:101C3000C901B8010DD5AC0191E0452B09F090E048
:101C4000892F01C080E0988180FB91F99883F7018A
:101C5000168217822283338329813A818D819E8166
:101C6000820F931F848395830EC041FF71C04D7F07
:101C70004883D70116961D921C92179712961D92B3
:101C80001C921397F70102E006937BC01296AD9069
:101C9000BC90139742FF10C089809A80C901B80197
:101CA000D7D4B0E4DB9EB00111246B567F4DAC015C
:101CB000C4018E0F9F1FE6D48D819E818A0D9B1DCE
:101CC0008D839E832B813C812817390710F42D8347
:101CD0003E83F70186819781A816B906C9F58D81E3
:101CE0009E8182179307A1F1281B390B2115F4E07F
:101CF0003F0710F02FEF33E0C901B801A9D4281B2A
:101D0000390BD70112961D921C9213972017310799
:101D100078F4888184608883B0E4DB9EC00111245C
:101D20008B569F4DF7018483958306831783AACF33
:101D300049815A818D819E81840F951FD701149608
:101D40008D939C93159716962D933C9317979ACF46
:101D5000888180FF16C08E7F8883EF81F885309759
:101D600081F06D817E814D2D80E0DF91CF911F91BB
:101D70000F91FF90EF90DF90BF90AF909F908F906A
:101D80000994DF91CF911F910F91FF90EF90DF9019
:101D9000BF90AF909F908F9008950F93CF93DF9354
:101DA00080910F22833029F4DDDEDF91CF910F91F6
:101DB00096CE20910B2230910C22C0917424D091A8
:101DC0007524C21BD30B61F580910D2290910E22D8
:101DD000820F931F80930D2290930E2220917024E6
:101DE000309171242817390721F08091D42088235D
:101DF00031F084E080930F22E0E2F2E236C0E0911D
:101E00007824F0917924309799F00995882381F00E
:101E100010920B2210920C22C0917424D091752440
:101E2000C034D10528F01092D420C0E4D0E003C023
:101E300081E08093D420C0932A22D0932B228091DA
:101E40000B2290910C222091722430917324280F40
:101E5000391F20932C2230932D22C80FD91FC093F5
:101E60000B22D0930C22E8E2F2E202E00693DF912B
:101E7000CF910F9108950F93CF93DF931F92CDB71A
:101E8000DEB78091CC0480FF65C021E02093CC04B4
:101E900080E292E2FC0100E80693E8E2F2E200E868
:101EA00006932093CA04FC0100E1069380910F225F
:101EB000882329F08350823008F454DE10DE8091AC
:101EC000222290912322089709F046C088E0EBEC8B
:101ED000F1E2AAE6B4E201900D928A95E1F78091D1
:101EE000C80480628093C8048091C8048062809393
:101EF000C80459DA811102C019DE2EC090916A24FB
:101F000097FF0EC010920D2210920E2210920B22FB
:101F100010920C2292E090930F2289833EDF08C03A
:101F20002091702430917124232B21F489830CDEBD
:101F3000898113C010920D2210920E2210920B2252
:101F400010920C2291E090930F22E0E2F2E202E084
:101F5000069303C080E001C081E00F90DF91CF9134
:101F60000F910895CF93CFB7F89481E08EDDEAEC1E
:101F7000F4E080E4808380E28083E1ECF4E080811F
:101F800081608083A9ECB4E08C9182608C93E8EC52
:101F9000F4E08081806480838C9181608C93808167
:101FA00080688083CFBFCF910895CF931092600057
:101FB00080E375D88091C00480648093C00481E080
:101FC00080936000CFB7F89480E090E0FC0123E0BC
:101FD000EE0FFF1F2A95E1F7E05FFD4D118A019694
:101FE0008830910599F7809195218E7F8093952176
:101FF00080919E218E7F80939E218091A7218E7F4C
:102000008093A7218091B0218E7F8093B021809111
:10201000B9218E7F8093B9218091C2218E7F8093D8
:10202000C2216AE170E082E008DD8F3F09F48FE1B0
:102030008093FA046BE170E082E0FFDC8F3F09F4EB
:102040008FE18093FB048091C00483608093C0047F
:102050008091C00480688093C0048091C004806136
:102060008093C00480E292E28093C6049093C704F8
:102070008091C00480628093C0048FEF8093C50478
:102080008091C80482608093C8041092642285E025
:10209000DEDC68DFCFBFCF9108958093C30408953D
:1020A0008091C3040895EAE6F4E28087918762870D
:1020B000738708950F931F93CF93DF931F92CDB72C
:1020C000DEB78A016983F4DCFC018181807C69814F
:1020D00081113AC06370613019F020F080E803C0CC
:1020E00080EC01C080E400381105E9F058F40032BA
:1020F0001105A9F000341105A1F000311105C9F452
:1021000091E018C0011592E0190779F00F3F93E0B4
:10211000190769F00115114061F495E00BC092E0D8
:1021200009C093E007C094E005C096E003C097E0C3
:1021300001C090E0118226E02083982B9183818159
:102140008062818381E001C080E00F90DF91CF91B8
:102150001F910F910895ACDCFC01818182FB8827DF
:1021600080F90895CF93C82FA3DCFC01818182FF01
:102170000FC091819B7F91838C2FFCDCFC019081AF
:1021800090FF06C09E7F90830780F085E02D099523
:1021900081E0CF9108958F929F92AF92BF92DF928C
:1021A000EF92FF920F931F93CF93DF931F92CDB7C0
:1021B000DEB7D82E5A0179016983DCDC4C018D2D04
:1021C00077DC9C01DC0111968C911197807C6981F0
:1021D000882309F45EC011968C911197807C803C15
:1021E00021F011968C9182FD54C09FB7F894F401B0
:1021F000808180FF02C09FBF4CC0816080839FBFF1
:10220000F401A182B282E382F482158216820783EE
:10221000108791E0611104C0E114F10409F090E02D
:10222000D4018C9190FB81F98B7F8C93D7FE04C0F5
:10223000F9011682178229C0D90111968C91119744
:10224000807C803CC9F41196EC91E770E150E73056
:1022500040F4F0E0EE0FFF1FEE54FF4D60817181FE
:1022600002C068E070E0C701F3D1892B29F0F401C6
:1022700080818E7F80830DC0D90112961D921C92A1
:10228000139716961D921C9217978D2D8DDC81E069
:1022900001C080E00F90DF91CF911F910F91FF90CF
:1022A000EF90DF90BF90AF909F908F900895EF9246
:1022B000FF920F93CF93C82FFBDB7C018C2F5ADC4E
:1022C000DC01F70102E005939C9190FF1BC09E7F0B
:1022D0009C931796ED91FC911897309799F0D70140
:1022E000C7FF05C016966D917C91179704C0129692
:1022F0006D917C9113974C2F81E0CF910F91FF90BE
:10230000EF900994CF910F91FF90EF900895CF93A4
:10231000C82FCDDF8C2FCCDBFC011182CF9108952B
:102320000F93CF93C82FC4DBFC01918194609183FC
:1023300001E006938C2FBBDF81E0CF910F910895D0
:102340001F920F920FB60F9211240F932F933F936A
:102350004F935F936F937F938F939F93AF93BF93AD
:10236000EF93FF938091CB0487FF08C080E88093B0
:10237000CA040E94AE090E94A60186C08091CB04C7
:1023800082FF18C084E08093CA048091282286FFCF
:102390007BC08091CC0481FD77C06DDD811174C05C
:1023A00080910F22813011F4CFDB6EC0843009F0B0
:1023B0006BC021C08091CB0481FF26C082E0809356
:1023C000CA048091202286FF5FC08091CC0481FDE9
:1023D0005BC051DD811158C080910F22823041F4E1
:1023E00084E080930F22E0E2F2E202E006934CC028
:1023F000833009F049C0E9E2F2E204E00593E1E24A
:10240000F2E204E0059340C08091CB0484FF25C034
:1024100080E18093CA0481E04ADF81E848DF82E0FE
:1024200046DF82E844DF0E9492091092C3041092B2
:10243000212296E09093202283E48093212210921F
:10244000292290932822809329228BEC91E2809379
:1024500024229093252243DB17C08091CB0486FF72
:1024600008C080E48093CA0480E00FDB0E94A401CE
:102470000BC08091CB0485FF07C080E28093CA0423
:1024800081E003DB0E94A501FF91EF91BF91AF9125
:102490009F918F917F916F915F914F913F912F917C
:1024A0000F910F900FBE0F901F9018951F920F92D3
:1024B0000FB60F9211240F931F932F933F934F93B7
:1024C0005F936F937F938F939F93AF93BF93CF93BC
:1024D000DF93EF93FF938091CC0481FF1AC082E0D9
:1024E0008093CC048091C5048195880FE0E2F2E2EC
:1024F000E81BF109208131812052324283E0369578
:1025000027958A95E1F7822F869520FD06C0C0E0C9
:1025100005C0B1DC882319F386C0C0E8C80F8C2F32
:10252000C7DAFC01208125FF7EC000E20693C111BD
:1025300074C080910F22843019F414DBD0DA73C098
:10254000009122221091232280917424909175246D
:10255000C0910B22D0910C229E01200F311F8217B7
:10256000930718F48C010C1B1D0B80917224909121
:102570007324A8016BEC71E28C0F9D1F83D0C00FF8
:10258000D11FC0930B22D0930C220034110569F4A3
:1025900080910D2290910E228C0F9D1F209170240E
:1025A000309171248217930788F0C0937424D093DC
:1025B0007524E0917824F0917924309729F00995D9
:1025C000811102C0B3DA2FC0BFDA2DC0809174240C
:1025D000909175248C179D07D9F4E0917824F0919F
:1025E0007924309779F30995882361F320910D229E
:1025F00030910E2280910B2290910C22820F931F1A
:1026000080930D2290930E2210920B2210920C2296
:10261000E0E2F2E202E0069306C0C03811F4BDDB4E
:1026200002C08C2FC1DAFF91EF91DF91CF91BF9162
:10263000AF919F918F917F916F915F914F913F915A
:102640002F911F910F910F900FBE0F901F90189513
:10265000AA1BBB1B51E107C0AA1FBB1FA617B707C8
:1026600010F0A61BB70B881F991F5A95A9F78095E4
:102670009095BC01CD010895EE0FFF1F0590F491D8
:10268000E02D0994FB01DC0102C001900D92415044
:0A2690005040D8F70895F894FFCFEA
:10269A00FF55800080007808720882086F080000E1
:1026AA004420162000001C201A20062009022700B8
:1026BA0001010080FA0904000003FFFFFF0007057B
:1026CA00810100010107058201000101070583015B
:1026DA00000101001201000200000040EB0300A00B
:1026EA0000020102000100000003000000000000D7
:1026FA0000000000000000000000000000000000D0
:10270A0000000000000000000000000000000000BF
:10271A0000000000000000000000555342476F62AD
:10272A00696E6461722044756D6D792044657669BD
:10273A00636500546170697254656368000004033C
:10274A000904100020004000800000010002FF037D
:00000001FF
