S01500005553425F42554C4B5F544553542E73726563F9
S113000024C100003EC100003CC100003AC1000010
S113001038C1000036C10000BDC7000032C1000075
S113002030C100002EC100002CC100002AC1000014
S113003028C1000026C1000024C1000022C1000024
S113004020C100001EC100001CC100001AC1000034
S113005018C1000016C1000014C1000012C1000044
S11300600C94BB080EC100000CC100000AC10000C2
S113007008C1000006C1000004C1000002C1000064
S113008000C10000FEC00000FCC00000FAC0000077
S1130090F8C00000F6C00000F4C00000F2C0000088
S11300A0F0C00000EEC00000ECC00000EAC0000098
S11300B0E8C00000E6C00000E4C00000E2C00000A8
S11300C0E0C00000DEC00000DCC00000DAC00000B8
S11300D0D8C00000D6C00000D4C00000D2C00000C8
S11300E0D0C00000CEC00000CCC00000CAC00000D8
S11300F0C8C00000C6C00000C4C00000C2C00000E8
S1130100C0C00000BEC00000BCC00000BAC00000F7
S1130110B8C00000B6C00000B4C000009BC300001B
S1130120B0C00000AEC00000ACC00000AAC0000017
S1130130A8C00000A6C00000A4C00000A2C0000027
S1130140A0C000009EC000009CC0000074C7000056
S113015098C0000096C0000094C0000092C0000047
S113016090C000008EC000008CC000008AC0000057
S113017088C0000086C0000084C0000082C0000067
S113018080C000007EC000007CC000007AC0000077
S113019078C0000076C0000074C0000072C0000087
S11301A070C000006EC000006CC000006AC0000097
S11301B068C0000066C0000064C0000062C00000A7
S11301C060C000005EC000005CC000005AC00000B7
S11301D058C0000056C0000054C0000052C00000C7
S11301E050C000004EC000004CC000004AC00000D7
S11301F048C000000C94DF130C949914D20AD60A58
S1130200120B4E0B570B5C0BA00BA50B020B040B34
S1130210060B080B0A0B0C0B0E0B100B3E0B400BC2
S1130220420B440B460B480B4A0B4C0B680B700BF0
S1130230780B830B850B870B8F0B970B1D0F200FF0
S1130240230F260F290F2C0F2F0F11241FBECFEFC2
S1130250CDBFDFE2DEBF10E2A0E0B0E2E6E7FBE202
S113026002C005900D92A63BB107D9F72EE2A6EB8A
S1130270B0E201C01D92A636B207E1F7C0D10C94DA
S1130280B915BECE1F93CF93DF93C0E5D0E014E041
S11302901E838CE199D2E0E6F0E083838BEB8683C6
S11302A080E8858381E0808388ED84BF10934100DA
S11302B083E08883E0E5F0E081818330E9F7E0E5DD
S11302C0F0E080818160808388E18583818180FF83
S11302D0FDCFE0E5F0E0808180618083818184FF4F
S11302E0FDCF88ED84BF84E080934000DF91CF91FF
S11302F01F910895E0E7F0E085818E7F8583E0E03B
S1130300FAE080EC9DE586A397A380EE9EE280A3AD
S113031091A381E0808308958091200A9091210A1D
S1130320813E2EE2920720F020916A2220936A00F7
S1130330803E2EE2920720F42091672220936A00E7
S113034020910320222331F0809103208150809357
S113035003200895885F9A42813D9740C0F010922F
S1130360B6208091B7209091B820A091B920B09187
S1130370BA200196A11DB11D8093B7209093B82097
S1130380A093B920B093BA2086E080930320089507
S1130390009709F466C00CF09C01992334F42227D9
S11303A03327281B390B51E001C050E0E8E6F0E0A8
S11303B0838190E0809368229093692280916822DF
S11303C0909169229695982F882797958795809381
S11303D068229093692242818091682290916922D7
S11303E0840F911D8093682290936922000080916C
S11303F06822909169228217930728F41092682248
S11304001092692208958091682290916922820F46
S1130410931F8115904238F08FEF9FE180936822FB
S1130420909369220895552359F080916822909100
S11304306922821B930B80936822909369220AC0DD
S11304408091682290916922280F391F2093682295
S11304503093692280916822909169228F778093EA
S11304606A000895CF93DF93C091200AD091210AA6
S113047080910120909102209E01281B390B20932A
S11304806B2230936C228091B62081114DC08091F3
S11304906B2290916C228E3C9F4FE4F480916B22EE
S11304A090916C228B369F4FACF080910020882372
S11304B031F08091002081508093002035C08091DC
S11304C06A0080936A2281E08093B6208CE0809356
S11304D000202AC08CE08093002080916B229091B0
S11304E06C228A369F4F1CF08FEF9FEF02C081E091
S11304F090E0809365229093662280916B22909184
S11305006C22209165223091662260E370E00E94A3
S11305109715261B370B2093652230936622809112
S113052065229091662234DF8091B620813029F5CE
S113053080916B2290916C22C39794F0809100205B
S1130540882331F08091002081508093002015C0D1
S113055080916A008093672283E08093B6200DC067
S113056080916B2290916C22873991051CF481E073
S113057090E002C08FEF9FEF0BDFC0930120D09378
S11305800220DF91CF910895E0E8F6E08FE08083C8
S113059085E08483089508954091C22027E731E0DF
S11305A0429FC001439F900D11244CEC52E06AEF2E
S11305B070E08E57994D67C608954091C22027E791
S11305C031E0429FC001439F900D11244DED52E054
S11305D06AEF70E08458984D62C608954091C22035
S11305E027E731E0429FC001439F900D11244EEE56
S11305F052E06AEF70E08A58974D5DC6089587E02F
S11306008093A20078943EDEC6DF4CD736D159D110
S113061060E080E0E2D0CED08CE0C1D0CAD485D5F1
S11306209CD5B2DF80916E2290916F22A0917022AE
S1130630B09171220196A11DB11D813021EE920766
S113064025EFA20725E0B20718F080E090E0DC0176
S11306500000000000000000000000000000000096
S1130660000000000000000000000000E3CF089537
S11306700895F8948091C020882341F03BDE1092C5
S1130680C02081E08093BF20789408958091BF209A
S11306908823B1F18091B620833011F43DDE01C08E
S11306A0E1DE8091BB208F3731F51092BB20E091C1
S11306B0BC20F091BD208091140190911501EE0FA2
S11306C0FF1FE25AF34D808391838091BC20909167
S11306D0BD208F3F910529F41092BC201092BD20BB
S11306E00FC08091BC209091BD2001968093BC20C6
S11306F09093BD2005C08091BB208F5F8093BB2069
S11307008091BE20882351F08091140190911501AD
S113071080935E2E90935F2E1092BE209091C22003
S113072081E0911180E08093C2207894089581E063
S11307308093C5208093C0204CEC52E06EEE72E0B2
S113074082E896E2A0D54DED52E06EEE72E08CE7C1
S113075097E2A5D54EEE52E06EEE72E086E798E29F
S1130760AAD581E008951092C520089581E00895E6
S113077081E00895E0E0F2E010A2982F9C71936864
S113078090A388231CF490E182E002C090E080E012
S1130790892BE0E0F2E081A312A216A20895E0E022
S11307A0F2E010AA836880AB80E181AB83E082AB86
S11307B016AA0895E0E0F2E010A683E880A78FE28D
S11307C081A712A616A60895AAECB1E092E09C9324
S11307D0E82FF0E084911C920895CF93DF93E0E733
S11307E0F0E091819D7F918310920002623031F19B
S11307F0E0E0F2E09CE1918390E49283811102C0F5
S113080080E401C080EC80930302613011F083E046
S113081001C082E0C0E0D2E08C8380E2D5DF8C8727
S113082081E2D2DF8D87188E198E81E08883C2DF42
S11308300EC080EC8093030283E0ECCFE0E0F2E0B2
S11308409EE1918390E492838111F3CFD9CFDF911C
S1130850CF9108951F920F920FB60F9211248F9388
S1130860000000000000000081E0809323028F91CB
S11308700F900FBE0F901F901895CF93DF93E0E772
S1130880F0E082818B7F8283C0E2D3E08DE08883B5
S113089080E4898389E08A8383E396DF888782E31F
S11308A093DF898787E390DF8A8786E38DDF8B87F1
S11308B0E0E2F6E08081836080831482DF91CF914F
S11308C00895E0E7F0E080818E7F808383E8809361
S11308D000010895E0E0F1E0108A80E4808B10A22A
S11308E080A310AA80ABE0E4F1E010828083109230
S11308F0C4201092C32081E08093C22008951092F6
S11309000420E8DFE0E0F1E016AA84E280AB11AA5B
S113091049E542AB92E093AB209106203091072049
S113092024AB35AB22E834E220AF31AF12AE2BE377
S113093024AF23E020933D0110923E0130A930689A
S113094030AB10924601A0E4B1E08C9310924101C7
S11309504093420120934301409108205091092083
S1130960409344015093450142E752E240934801C9
S11309705093490110924A0139E330934C0120937A
S11309804D0110924E012C9120682C93108A20E482
S1130990208B808B918B25E9228B20E1238B2EEEFB
S11309A032E0248B358B808F918F128E82E896E211
S11309B0848F958F168E80898068808B0895CF935D
S11309C0DF9381E08093042085DFE0E0F1E010AA6A
S11309D080E480AB94E090AB11AA12AA5BE453AB21
S11309E014AA15AA16AA25E030E220AF31AF12AE40
S11309F040EA44AF38E030933D0110923E0180A9B3
S1130A00806A80AB85E58093A00810924601A0E43B
S1130A10B1E0D4E2DC931092410189E58093420174
S1130A20C2E0C09343016091062070910720609357
S1130A3044017093450162E874E260934801709345
S1130A40490110924A018BE380934C0183E0809327
S1130A504D0110924E012C9120682C93908B818B28
S1130A60A1E9A28B20E1238B67E771E0648B758B8E
S1130A70D08FC18F128EC2E8D6E2C48FD58F168E66
S1130A8020892068208B90A381A3A2A353A364A3ED
S1130A9075A340A731A712A689EF97E284A795A76B
S1130AA016A680A1806880A3DF91CF910895CF938B
S1130AB0F894C2E0C09304200DDFE0E0F1E016AA50
S1130AC094E290AB11AA39E532AB83E083AB409159
S1130AD008205091092044AB55AB42E752E240AFA5
S1130AE051AF12AE29E324AF80933D0110923E0131
S1130AF020A9206820AB10924601A0E4B1E09C93A9
S1130B001092410130934201C09343012091062089
S1130B1030910720209344013093450122E834E2C8
S1130B20209348013093490110924A012BE320930A
S1130B304C0180934D0110924E012C9120682C930E
S1130B4054E0508B818B41E9428B20E1238B27E7D2
S1130B5031E0248B358B908FC18F128E62E876E260
S1130B60648F758F168E90899068908B50A381A3A3
S1130B7042A382E183A324A335A384E380A7C1A76E
S1130B8012A689EF97E284A795A716A680A180688C
S1130B9080A37894CF910895CF93C3E0C0930420A9
S1130BA099DEE0E0F1E010A250E450A344E040A359
S1130BB011A212A23BE433A314A215A216A285E04B
S1130BC090E280A791A712A620EA24A798E095A70F
S1130BD016A680A1806A80A385E58093A00816AA42
S1130BE074E270AB11AA69E562ABC3ABA0910820B3
S1130BF0B0910920A4ABB5ABA2E7B2E2A0AFB1AF0C
S1130C0012AE89E384AFC0933D0110923E0180A9E6
S1130C10806880AB10924601A0E4B1E07C9310920E
S1130C2041016093420182E0809343016091062078
S1130C3070910720609344017093450162E874E267
S1130C40609348017093490110924A018BE38093A9
S1130C504C01C0934D0110924E018C9180688C938D
S1130C60108A508B408BC18B81E9828B338B47E791
S1130C7051E0448B558B208F918F128E82E896E23F
S1130C80848F958F168E80898068808BCF9108958C
S1130C90CF93C4E0C09304201DDEE0E0F1E010A295
S1130CA080E480A3C0A311A212A24BE443A314A224
S1130CB015A216A285E090E280A791A712A660EA89
S1130CC064A788E085A716A690A1906A90A395E5ED
S1130CD09093A00810924601A0E4B1E094E29C93A2
S1130CE01092410199E59093420192E0909343015F
S1130CF02091062030910720209344013093450130
S1130D0022E834E2209348013093490110924A01C9
S1130D109BE390934C0193E090934D0110924E010C
S1130D202C9120682C93C08B918B31E9328B438BAF
S1130D3047E751E0448B558B608F818F128E62E8B8
S1130D4076E2648F758F168E20892068208BC0AB65
S1130D5091AB32AB9AE493AB44AB55AB93EC90AF0D
S1130D6081AF12AE89EF97E284AF90933D01109268
S1130D703E0180A9806880ABCF91089585E080937F
S1130D800420A8DDE0E0F1E016AA34E230AB11AAB9
S1130D9029E522AB83E083AB4091082050910920E0
S1130DA044AB55AB42E752E240AF51AF12AE99E3C8
S1130DB094AF80933D0110923E0190A9906890AB4E
S1130DC010924601E0E4F1E0308310924101209357
S1130DD042018093430120910820309109202093FF
S1130DE044013093450122E834E2209348013093D2
S1130DF0490110924A019BE390934C0180934D0169
S1130E0010924E01808180688083089586E08093EB
S1130E10042060DDE0E0F1E016AA94E290AB11AAB0
S1130E2039E532AB83E083AB40910820509109202F
S1130E3044AB55AB42E752E240AF51AF12AE29E3A7
S1130E4024AF80933D0110923E0120A9206820AB7D
S1130E5010924601A0E4B1E09C93109241013093BA
S1130E60420132E030934301409106205091072023
S1130E70409344015093450142E854E240934801B1
S1130E805093490110924A012BE320934C01809323
S1130E904D0110924E012C9120682C93108A20E46D
S1130EA0208B24E0208B818B81E9828B80E1838BF2
S1130EB04EEE52E0448B558B908F318F128E82E828
S1130EC096E2848F958F168E80898068808B089532
S1130ED087E080930420FEDCE0E0F1E016AA94E2CF
S1130EE090AB11AA39E532AB83E083AB4091082083
S1130EF05091092044AB55AB42E752E240AF51AFA9
S1130F0012AE29E324AF80933D0110923E0120A943
S1130F10206820AB10924601A0E4B1E09C931092AB
S1130F2041013093420132E0309343014091062065
S1130F3050910720409344015093450142E854E204
S1130F40409348015093490110924A012BE32093A6
S1130F504C0180934D0110924E012C9120682C93EA
S1130F60108A20E4208B25E0208B818B81E9828B01
S1130F7080E1838B4EEE52E0448B558B908F318F02
S1130F80128E82E896E2848F958F168E808980680F
S1130F90808B08951F920F920FB60F9211248F9396
S1130FA081E0809303018F910F900FBE0F901F90EB
S1130FB01895E0E7F0E083818C7F838384818C7FC4
S1130FC0848380818D7F8083E0E8F1E080EC8283FC
S1130FD0128688EC81831186A0E0B8E034E03C936B
S1130FE023E011962C93119714961C92149785ED77
S1130FF091E096968D939C93979716961C921697CC
S1131000E0E4F8E030832183148286A397A3168258
S1131010E0E6F6E0808180618083E0E4F9E083E14A
S11310208183148282E08683A6A3B7A310A611A6A7
S113103081E0808308951F920F920FB60F921124BE
S11310402F933F934F935F938F939F93EF93FF93CC
S1131050CF93DF931F92CDB7DEB78FEF80934C0908
S113106080910420873031F4E0E0F2E084A58983A4
S113107095A502C090912C028091C120891B2091DA
S113108068093091690991E082300CF490E0992369
S1131090C9F091E02A3F374008F090E0992391F09D
S11310A0209168093091690989301CF481E090E04D
S11310B002C086E090E0820F931F8093780990939A
S11310C0790923C0209168093091690991E08F3F23
S11310D00CF090E09923C9F091E02730310508F431
S11310E090E0992391F02091680930916909883F33
S11310F01CF081E090E002C086E090E0A901481B6A
S1131100590B40937809509379090F90DF91CF914F
S1131110FF91EF919F918F915F914F913F912F910B
S11311200F900FBE0F901F901895E0E7F0E08381B9
S11311308F7E8383E0E4F6E080818A6A80838FEF88
S1131140848388E5828BE0EAF8E084EC858383E09D
S11311508683178288E184830895E0E7F0E0838141
S1131160877F8383E0ECF8E080E48083118288E564
S11311708093550608951F920F920FB60F92112473
S113118000000F900FBE0F901F9018959FB7F89412
S1131190E82FF0E0E059FF4F609580816823608379
S11311A09FBF0895863011F060E001C068E180912E
S11311B0510081FD26C09FB7F894E0E5F0E08081FE
S11311C0826080839FBF818181FFFDCF9FB7F894A8
S11311D0A0E5B0E016968C911697897F16968C93AD
S11311E01697E0E6F0E080E885838BEB868316961D
S11311F08C911697846016968C938081816080838D
S11312009FBF636084E490E01AD560E480E0BECFC1
S113121008958091C620089540D1FC018381809374
S1131220C620811102C083CA089581E00895809187
S1131230C620813009F497CA0895809172248823C6
S11312404CF480768034A9F480917324811113C006
S11312508FCA08958076803481F48091732481113B
S11312600EC08091782490917924892B51F07ECA04
S1131270089580E0089580E0089580E0089580E076
S1131280089580E008950F931F939B018A01AC0198
S113129060E081E80E9493121F910F9108950F93CB
S11312A01F939B018A01AC0160E082E80E949312C3
S11312B01F910F9108950F931F939B018A01AC0115
S11312C060E083E80E9493121F910F910895E091CA
S11312D0CB20F091CC200190F081E02D228133814C
S11312E02E0F3F1FFC014081E40FF11DE217F307AD
S11312F0B8F481818430B9F0861309C005C08181B6
S11313008430A1F0861303C08E2F9F2F089580810F
S1131310E80FF11DE217F30790F380E090E00895E1
S113132080E090E0089580E090E0089580E090E00F
S11313300895809174248F770C94C111089590912D
S1131340CE20992381F1E091CB20F091CC20019023
S1131350F081E02D9481891740F5E093C920F09342
S1131360CA20228133812E0F3F1FE217F307F8F4BE
S11313709181943061F49281981309C093819613FA
S113138006C0E093C920F093CA2081E008959081BB
S1131390E90FF11DE217F30758F3E093C920F09326
S11313A0CA2080E0089580E0089580E0089580E0F8
S11313B00895EF92FF921F93CF93DF93C82F60E0BD
S11313C0BEDF182F882381F1A091CB20B091CC20CF
S11313D0EC2FF0E0EE0FFF1F12968D919C91139766
S11313E0E80FF91FE080F180D7011696ED91FC918A
S11313F017970995682F8C2FA2DF182F8823A1F047
S1131400C091C920D091CA2065E0CE0160DFEC0113
S1131410892B21F08A810E949613F6CFD701129668
S1131420ED91FC9113970995812FDF91CF911F9135
S1131430FF90EF9008951F93CF93DF93182F7FDFD2
S1131440882339F1C091C920D091CA2065E0CE012A
S11314503EDFEC01892B41F04C815D816B818A81F7
S11314609DD78111F3CF15C0A091CB20B091CC2092
S1131470E12FF0E0EE0FFF1F12968D919C911397D0
S1131480E80FF91F0190F081E02D0190F081E02D2B
S11314900995DF91CF911F9108958091C920909172
S11314A0CA200895E9C60895CF938091CE20882359
S11314B0C1F0E091CB20F091CC200190F081E02D9F
S11314C08481882371F0C0E08C2F73DFCF5FE091BB
S11314D0CB20F091CC200190F081E02D8481C817BD
S11314E098F31092CE201092D2201092D320CF9154
S11314F00895CF938091CE20882349F1A091CB20E9
S1131500B091CC20ED91FC91119784818823F9F05E
S1131510C0E0EC2FF0E0EE0FFF1F12968D919C912E
S11315201397E80FF91F0190F081E02D0084F185F5
S1131530E02D309709F00995CF5FA091CB20B091B1
S1131540CC20ED91FC9111978481C81710F3CF91B1
S113155008950F931F93CF93DF93E2E7F4E212868B
S113156013861486158616861786808188233CF494
S11315702091782430917924232B09F454C3807664
S1131580803409F0F2C0E09173248E2F90E0FC01C6
S1131590E05AF109E830F10508F0DEC0E250FF4FEF
S11315A00C94AA1581E08093BE2041C3E0E0F8E0EA
S11315B01082C2E7D4E28A819B8186AB97AB8C818F
S11315C08F7080836E817F8182E792E2E0D68E8184
S11315D09F8120910820309109208217930709F4F4
S11315E026C38093082090930920E09104208E2F35
S11315F090E08830910508F0B1C0FC01EA5FFE4F2D
S11316000C94AA157CD913C3DAD911C350DA0FC3C9
S1131610C3DA0DC33DDB0BC3B1DB09C3F7DB07C37F
S113162057DC05C3E0E4F8E01082C2E7D4E28A8123
S11316309B8186AB97AB8C818F7080836E817F8119
S113164082E894E2A4D68E819F8120910620309175
S113165007208217930709F4EAC280930620909327
S11316600720E09104208E2F90E08830910508F047
S113167077C0FC01E25FFE4F0C94AA1540D9D7C293
S11316809ED9D5C214DAD3C287DAD1C201DBCFC264
S113169075DBCDC2BBDBCBC21BDCC9C210926809AF
S11316A010926909809174248093C120C0C28091F2
S11316B0742480932406BBC2E0917424F0917524B1
S11316C0E830F10508F04EC0EA5EFE4F0C94AA150E
S11316D060E080E082D8809176244CD810D9A7C2EB
S11316E060E080E07AD88091762444D868D99FC29B
S11316F061E081E072D8C2E7D4E28C813BD88D816D
S11317004ED8D5D994C248DA92C2C2DA90C260E007
S113171080E063D8809176242DD830DB88C261E0E4
S113172080E05BD88091762425D870DB80C262E0AB
S113173080E053D88091762480681CD8C9DB77C2B6
S1131740809174248093840672C2E9E7F0E091E00A
S113175088EDF89484BF908380E005C081E003C0E5
S113176081E001C080E0811165C280917224982FCC
S1131770907609F0E1C188230CF005C1209178240A
S1131780309179242115310509F4D6C18F7109F0FE
S1131790A3C090917324963079F0983009F492C0E4
S11317A091119AC02230310509F0C6C162E070E09F
S11317B082ED90E2ECD53DC2809174249091752421
S11317C0292F332722303105A9F024F421303105A3
S11317D041F0A9C123303105D9F12F30310551F140
S11317E0A2C18091142090911520DC016C9170E0CD
S11317F0CED559C0E0911420F0911520218982178B
S113180008F09AC19927880F991F880F991FE091B2
S11318101620F0911720E80FF91F80819181FC01B7
S113182062817381B4D5E0917A24F0917B2482E0C3
S1131830818339C08091182090911920009709F470
S11318407BC1DC0112966D917C911397A0D52BC0BE
S113185099278130910571F038F0029709F06CC135
S11318608EE890E228E109C064E070E082EB90E247
S11318708ED519C087EA90E229E0382FAEE5B0E2B0
S1131880E82FF92F819190E08D939D938E2F831BE8
S11318908217C0F3622F660F6E5F60935C2070E066
S11318A08CE590E274D5E2E7F4E2868197812285A3
S11318B033858217930708F0BCC180937C249093EE
S11318C07D24B7C12130310509F036C161E070E0F3
S11318D08EEC90E25CD5ADC18130E1F5909173243A
S11318E09A30C1F52130310509F026C18091CE200E
S11318F0882309F421C1C0917624D09177240091E2
S1131900CB201091CC20D801ED91FC918481C81793
S113191008F012C160E08C2F12DD882309F40CC199
S1131920CE019927880F991FD8011296ED91FC9149
S11319301397E80FF91F0190F081E02D86819781BC
S1131940FC0109958093D02061E070E080ED90E285
S11319501ED56FC1823009F0EFC0809173248111CC
S1131960E4C02230310509F0E7C0809176248BD59C
S113197090E08093C7209093C82062E070E087ECE9
S113198090E205D556C18F7109F083C090917324FC
S1131990933009F4CCC018F49130A1F07AC095309A
S11319A019F0993039F175C0809178249091792497
S11319B0892B09F0C1C089E999E080937E24909332
S11319C07F2437C18091782490917924892B09F060
S11319D0B3C08091742490917524019709F0ACC030
S11319E08091D2209091D3208D7F8093D2209093A8
S11319F0D3201FC18091782490917924892B09F0F8
S1131A009BC0C2D4882309F497C0209174243091D8
S1131A1075243327E0911420F0911520818990E0FA
S1131A208217930708F488C03FDD80917424909155
S1131A3075248093CE20882309F4FBC09927815014
S1131A40904C880F991F880F991FE0911620F091F0
S1131A501720E80FF91FE093CB20F093CC200190DE
S1131A60F081E02D8481882309F4E3C0C0E060E0C4
S1131A708C2FE1DC882309F45FC0CF5FE091CB2099
S1131A80F091CC200190F081E02D8481C81778F387
S1131A90D0C08130E1F4909173249B30C1F48091E3
S1131AA0782490917924892B09F046C08091CE2026
S1131AB0882309F441C0E2E7F4E2C481D2818C2F87
S1131AC078DC8823C9F16D2F8C2FB5DC33C08230CC
S1131AD099F580917324813019F0833089F029C0FD
S1131AE08091782490917924892B31F58091742404
S1131AF090917524892B01F580917624DFD41AC046
S1131B008091782490917924892BB1F48091742464
S1131B1090917524892B81F4C2E7D4E28C81BDD5E0
S1131B208C8120D607C080E005C080E003C080E03F
S1131B3001C080E081117EC0809172248F71813058
S1131B4071F58091CE20882351F100917624109173
S1131B507724C091CB20D091CC20E881F981848175
S1131B600817E8F460E0802FEADB8823C1F0F8016D
S1131B70FF27CF01880F991FEA81FB81E80FF91F26
S1131B80C081D181EE81FF810995682F802FD7DB39
S1131B90882329F0EC81FD81099581114BC0809146
S1131BA072248F71823009F040C08091CE20882346
S1131BB0B1F1A091CB20B091CC20ED91FC91119783
S1131BC08481882371F1C0E0EC2FF0E0EE0FFF1F59
S1131BD012968D919C911397E80FF91F0081118142
S1131BE0D8011696ED91FC9117970995682F8C2FC3
S1131BF0A6DB8823F9F0D8011496ED91FC91159792
S1131C000995811117C0CF5FA091CB20B091CC2052
S1131C10ED91FC9111979481C917B0F20BC080E04B
S1131C2009C080E007C080E005C080E003C081E017
S1131C3001C081E0DF91CF911F910F9108951BBEE8
S1131C40FC0128ED24BF608308954091CA01E62F6A
S1131C50F72F8093CA0184914093CA01089581119A
S1131C6022C0909164229923D9F09091612E911110
S1131C7001C0FFCF2FB7F894E0E6FEE291819150C6
S1131C8091832FBF0DC09091612E9F3F09F4FFCF28
S1131C902FB7F894E0E6FEE291819F5F91832FBF16
S1131CA080936422089590916422992361F3F8CF7C
S1131CB00F93E8ECF4E080818F7D808380818F7DB9
S1131CC08083E8E2F2E202E0059310922A22109265
S1131CD02B2200E2069300E40693E0E2F2E200E243
S1131CE0069300E40693E2E7F4E21486158616866A
S1131CF017861286138610920F220F9108950F9360
S1131D0085E080930F22E9E2F2E204E00593E1E248
S1131D10F2E204E005930F9108950F9383E080931A
S1131D200F2210922A2210922B22E8E2F2E202E021
S1131D3006930F910895E0917E24F0917F243097CB
S1131D4009F0099508950F93CF93DF9380910F22A3
S1131D50833019F4F0DFACDF5EC080910B229091E8
S1131D600C22C0917C24D0917D24C81BD90B71F521
S1131D7020910D2230910E22820F931F80930D2209
S1131D8090930E222091782430917924821793071E
S1131D9021F08091D420882341F084E080930F22A5
S1131DA0E0E2F2E202E0069336C0E0918024F09192
S1131DB08124309799F00995882381F010920B22A1
S1131DC010920C22C0917C24D0917D24C034D10582
S1131DD028F01092D420C0E4D0E003C081E08093C6
S1131DE0D420E0E1F2E2C28FD38F80910B22909154
S1131DF00C2220917A2430917B24280F391F248FC0
S1131E00358FC80FD91FC0930B22D0930C22E8E260
S1131E10F2E202E00693DF91CF910F910895FC0165
S1131E208181E82FE7708E2F90E0FC013197E73035
S1131E30F105C0F4E25EFE4F8DC680E190E00895A6
S1131E4080E290E0089580E490E0089580E890E0D6
S1131E50089580E091E0089580E092E008958FEF86
S1131E6093E0089588E090E00895282F2F7030E0E3
S1131E70220F331F082E000C990B8827990F881FF7
S1131E809927820F931F02979C01220F331F220F61
S1131E90331F220F331F820F931F8B569E4D0895BD
S1131EA00F93CF938091CC0480FF62C081E0809334
S1131EB0CC04E0E2F2E200E80693E8E2F2E200E8B1
S1131EC006938093CA04E0E2F2E200E10693809173
S1131ED00F22882329F08350823008F42CDFE8DEB7
S1131EE08091222290912322089709F043C088E030
S1131EF0EBECF1E2A2E7B4E201900D928A95E1F7EE
S1131F00E8ECF4E080818062808380818062808359
S1131F1020DBC82F811103C0F2DEC1E02CC0809108
S1131F20722488236CF410920D2210920E221092C7
S1131F300B2210920C2282E080930F2204DF1BC03C
S1131F408091782490917924892B11F4E6DE13C0D2
S1131F5010920D2210920E2210920B2210920C223B
S1131F6081E080930F22E0E2F2E202E0069303C0F4
S1131F70C0E001C0C1E08C2FCF910F9108958F92E2
S1131F809F92AF92BF92DF92EF92FF920F931F93B3
S1131F90CF93DF93D82E69DF8C01BD2CBB1CBB24EF
S1131FA0BB1CCD2DCF70D0E0CC0FDD1FCB0DD11DD0
S1131FB0CE01880F991F880F991F880F991F9C01C4
S1131FC0205E3D4D7901C9012ADF4C01BB2009F493
S1131FD070C0FE01EE0FFF1FEE0FFF1FEE0FFF1F7D
S1131FE0E05FFD4D26893789D80115968D919C9126
S1131FF01697820F931F15968D939C93169713969D
S11320002D913C9114978217930709F43CC0281B27
S1132010390B2115B4E03B0738F02FEF33E0C90149
S1132020B40171D5281B390BF801808181FF09C0E7
S1132030C901B40168D541E0892B09F040E0842F3F
S113204001C080E0D8019C9180FB91F99C93CC0F56
S1132050DD1FCC0FDD1FCC0FDD1FC05FDD4D1E8AE1
S11320601F8A2A8B3B8B11962D913C9112971596C2
S11320708D919C911697820F931F8C8B9D8BF701EA
S113208002E00693CAC0D8018C9181FFB3C08D7F52
S11320908C93CC0FDD1FCC0FDD1FCC0FDD1FC05F79
S11320A0DD4D1E8A1F8A1A8A1B8AF70102E00693F5
S11320B0B4C0FE01EE0FFF1FEE0FFF1FEE0FFF1F58
S11320C0E05FFD4DA288B388D8018C9182FF19C0CE
S11320D01196ED91FC91129715962D913C911697BE
S11320E013968D919C911497B4010DD5B0E4DB9EA9
S11320F0B00111246B567F4DAC01CF01820F931FA9
S11321002FD5F801258136812A0D3B1D2583368381
S1132110838194818217930768F485839683CC0F17
S1132120DD1FCC0FDD1FCC0FDD1FC05FDD4D8E89A1
S11321309F8960C0FE01EE0FFF1FEE0FFF1FEE0F21
S1132140FF1FE05FFD4D468957894A155B0509F07D
S113215051C02817390709F44DC0AC01421B530B79
S11321609A01211554E0350750F02FEF33E0C901EF
S1132170B401C9D4D901A81BB90BCD0107C0C90149
S1132180B401C1D4F901E81BF90BCF01FE01EE0F34
S1132190FF1FEE0FFF1FEE0FFF1FE05FFD4D128AC2
S11321A0138A8815990578F4D8018C9184608C93EE
S11321B0B0E4DB9EC00111248B569F4D848B958B1C
S11321C0868A978A13C0F80141815281258136811C
S11321D0240F351FCC0FDD1FCC0FDD1FCC0FDD1FEF
S11321E0C05FDD4D2C8B3D8B8E8B9F8BF70102E006
S11321F0069313C0D8018C9180FF0FC08E7F8C93FF
S11322001796ED91FC911897309739F015966D91CA
S11322107C9116974D2D80E00995DF91CF911F9108
S11322200F91FF90EF90DF90BF90AF909F908F90B1
S11322300895CF93CFB7F89481E011DDEAECF4E090
S113224080E4808380E28083E1ECF4E0808181603B
S11322508083A9ECB4E08C9182608C93E8ECF4E088
S11322608081806480838C9181608C93808180687C
S11322708083CFBFCF910895CF93DF93C0E6D0E0A2
S1132280188280E30E94D208E0ECF4E0808180644C
S1132290808381E08883CFB7F89480E090E0FC01EC
S11322A0EE0FFF1FEE0FFF1FEE0FFF1FE05FFD4D50
S11322B0118A01968830910591F7E5E9F1E2808170
S11322C08E7F8083EEE9F1E280818E7F8083E7EA6E
S11322D0F1E280818E7F8083E0EBF1E280818E7F6A
S11322E08083E9EBF1E280818E7F8083E2ECF1E28E
S11322F080818E7F80836AE170E082E0A6DC8F3F7C
S113230019F08093FA0403C08FE18093FA046BE11F
S113231070E082E09ADC8F3F19F08093FB0403C0E5
S11323208FE18093FB04E0ECF4E0808183608083A0
S113233080818068808380818061808380E292E2F2
S1132340868397838081806280838FEF8093C50426
S1132350E8ECF4E0808182608083109264228091B2
S1132360652E8F3F09F4FFCF9FB7F894E0E6FEE2B5
S113237085818F5F85839FBF5CDFCFBFDF91CF9166
S113238008958093C30408958091C3040895E2E7F7
S1132390F4E280879187628773870895282F2F70CE
S11323A030E0220F331F082E000C990B8827990F59
S11323B0881F9927820F931FFC01EE0FFF1FEE0F5A
S11323C0FF1FEE0FFF1FE05FFD4D2189207C09F008
S11323D058C06370613011F018F404C020EC03C0DD
S11323E020E801C020E440385105E9F050F44032BF
S11323F05105A9F040345105A1F040315105D9F4FB
S11324000CC0411532E0530791F04F3F33E05307BE
S113241081F04115514079F408C041E00DC042E01B
S11324200BC043E009C044E007C045E005C046E0F6
S113243003C047E001C040E0FC01EE0FFF1FEE0FB8
S1132440FF1FEE0FFF1FE05FFD4D118ADC01AA0F95
S1132450BB1FAA0FBB1FAA0FBB1FA05EBD4D36E05A
S11324603C93242B218B880F991F880F991F880F69
S1132470991FFC01E05FFD4D81898062818B81E0C1
S1132480089580E00895E82FEF70F0E0EE0FFF1F4D
S1132490082E000C990B8827990F881F9927E80F9D
S11324A0F91FEE0FFF1FEE0FFF1FEE0FFF1FE05F80
S11324B0FD4D818982FB882780F90895282F2F708C
S11324C030E0A901440F551F282F082E000C330BB0
S11324D02227330F221F3327240F351FF901EE0F54
S11324E0FF1FEE0FFF1FEE0FFF1FE05FFD4D9189F1
S11324F092FF17C0220F331F220F331F220F331FE7
S1132500F901E05FFD4D91899B7F918BAEDCFC016D
S1132510808180FF06C08E7F80830780F085E02D58
S1132520099581E008957F928F929F92AF92BF9216
S1132530CF92DF92EF92FF920F931F93CF93DF938B
S1132540982E862E6A01790190DC5C01792C771C27
S11325507724771CC92DCF70D0E0CC0FDD1FC70DB9
S1132560D11DFE01EE0FFF1FEE0FFF1FEE0FFF1F29
S1132570E05FFD4D8189807C09F47DC0FE01EE0F92
S1132580FF1FEE0FFF1FEE0FFF1FE05FFD4D818960
S1132590807C803C61F0FE01EE0FFF1FEE0FFF1FF9
S11325A0EE0FFF1FE05FFD4D818982FD66C08FB78E
S11325B0F894F501908190FF03C08FBF712C5EC029
S11325C0F5019081916090838FBFC182D282E382B2
S11325D0F4821582168207831087811006C091E069
S11325E0E114F10419F090E001C091E0F50180815B
S11325F090FB81F98B7F8083772059F0CC0FDD1F0E
S1132600CC0FDD1FCC0FDD1FC05FDD4D1E8A1F8A7E
S11326102DC0FE01EE0FFF1FEE0FFF1FEE0FFF1F79
S1132620E05FFD4D8189807C803CA1F4CE01880F60
S1132630991F880F991F880F991F805E9D4DEFDBAE
S1132640BC01C70160D2892B29F0F50180818E7FFE
S1132650808314C0CC0FDD1FCC0FDD1FCC0FDD1F1A
S1132660C05FDD4D1A8A1B8A1E8A1F8A892D87DC6A
S11326707724739403C0712C01C0712C872DDF91D2
S1132680CF911F910F91FF90EF90DF90CF90BF906B
S1132690AF909F908F907F900895FF920F931F9318
S11326A0CF93DF93182FF82EFF1CFF24FF1CC82F95
S11326B0CF70D0E0CC0FDD1FCF0DD11DD6DBDC01F8
S11326C0FE01EE0FFF1FEE0FFF1FEE0FFF1FE05E78
S11326D0FD4D02E005938C9180FF22C08E7F8C9388
S11326E01796ED91FC9118973097D1F0FF2059F08F
S11326F0CC0FDD1FCC0FDD1FCC0FDD1FC05FDD4D08
S11327006E897F890AC0CC0FDD1FCC0FDD1FCC0F73
S1132710DD1FC05FDD4D6A897B89412F81E009950A
S1132720DF91CF911F910F91FF900895CF93C82F00
S1132730B4DFEC2FEF70F0E0EE0FFF1F8C2FCC0F07
S1132740990B8827990F881F9927E80FF91FEE0F17
S1132750FF1FEE0FFF1FEE0FFF1FE05FFD4D118AFD
S1132760CF9108950F93E82FEF70F0E0EE0FFF1F65
S1132770282F082E000C330B2227330F221F332758
S1132780E20FF31FDF01AA0FBB1FAA0FBB1FAA0F83
S1132790BB1FA05FBD4D51969C915197946051967B
S11327A09C93EE0FFF1FEE0FFF1FEE0FFF1FE05E67
S11327B0FD4D01E0069371DF81E00F9108951F92B2
S11327C00F920FB60F9211240F932F933F934F93B1
S11327D05F936F937F938F939F93AF93BF93EF9385
S11327E0FF938091CB04882344F480E88093CA0447
S11327F00E94790A0E9439038AC08091CB0482FF27
S113280020C084E08093CA048091282286FF7FC080
S11328108091CC0481FD7BC043DB811178C0809121
S11328200F22813011F479DA72C0843009F06FC05C
S1132830E9E2F2E204E00593E1E2F2E204E0059366
S113284066C08091CB0481FF5DC082E08093CA049E
S11328508091202286FF5BC08091CC0481FD57C00B
S11328601FDB811154C080910F22823041F484E037
S113287080930F22E0E2F2E202E0069348C0833044
S113288009F045C0E9E2F2E204E00593E1E2F2E294
S113289004E005933CC080E18093CA0481E0FDDE3E
S11328A081E8FBDE82E0F9DE82E8F7DE0E94540A6A
S11328B01092C304E0E1F2E2118A96E0908B83E483
S11328C0818B118E908F818F8BEC91E2848B958B11
S11328D0EFD91DC08091CB0486FF08C080E48093AB
S11328E0CA0480E0BCD90E94370311C08091CB0494
S11328F085FF0DC080E28093CA0481E0B0D90E94B4
S1132900380305C08091CB0484FDC5CFE3CFFF918C
S1132910EF91BF91AF919F918F917F916F915F9153
S11329204F913F912F910F910F900FBE0F901F90D9
S113293018951F920F920FB60F9211240F931F93A5
S11329402F933F934F935F936F937F938F939F93B3
S1132950AF93BF93CF93DF93EF93FF938091CC0416
S113296081FD03C09DDA8111B9C082E08093CC045B
S11329708091C5048195880FE0E2F2E2E81BF10939
S113298020813181205232423695279536952795FC
S113299036952795822F869520FD02C090E001C0D0
S11329A090E8890FE82FEF70F0E0EE0FFF1F282F5B
S11329B0082E000C330B2227330F221F3327E20F7C
S11329C0F31FDF01AA0FBB1FAA0FBB1FAA0FBB1F58
S11329D0A05EBD4D9C9195FF81C0FD0100E2069370
S11329E0811177C080910F22843019F4A4D960D961
S11329F075C0009122221091232280917C24909111
S1132A007D24C0910B22D0910C229E01200F311FF6
S1132A108217930718F48C010C1B1D0B80917A24E8
S1132A2090917B24A8016BEC71E28C0F9D1F98D0D0
S1132A30C00FD11FC0930B22D0930C220034110578
S1132A4069F480910D2290910E228C0F9D1F20918C
S1132A507824309179248217930780F0E2E7F4E236
S1132A60C287D3870684F785E02D309729F009952E
S1132A70811102C044D932C050D930C080917C2425
S1132A8090917D24C817D907F9F4E0918024F0913E
S1132A908124309711F433D921C00995811102C0E2
S1132AA02ED91CC020910D2230910E2280910B2230
S1132AB090910C22820F931F80930D2290930E22EB
S1132AC010920B2210920C22E0E2F2E202E0069352
S1132AD005C0803811F437D901C051DAFF91EF9164
S1132AE0DF91CF91BF91AF919F918F917F916F9122
S1132AF05F914F913F912F911F910F910F900FBEB6
S1132B000F901F901895AA1BBB1B51E107C0AA1F69
S1132B10BB1FA617B70710F0A61BB70B881F991F7A
S1132B205A95A9F780959095BC01CD01089597FB1E
S1132B30072E16F4009406D077FD08D0E4DF07FCD6
S1132B4005D03EF4909581959F4F089570956195B9
S1132B507F4F0895EE0FFF1F0590F491E02D099427
S1132B60FB01DC0102C001900D9241505040D8F7A6
S1092B700895F894FFCF64
S1132B760CE02E0AFF55800080000C0917091D0978
S1132B860909000048201A20000020201E200A20DF
S1132B960902270001010080FA0904000003FFFF6F
S1132BA6FF000705810100010107058201000101FB
S1132BB60705830100010100120100020000004024
S1132BC6EB0300A000020102000100000003000064
S1132BD600000000000000000000000000000000EB
S1132BE600000000000000000000000000000000DB
S1132BF60000000000000000000000000000555323
S1132C0642476F62696E6461722044756D6D792006
S1132C1644657669636500546170697254656368D6
S1092C2600000403090490
S9030000FC
