:1000000024C100003EC100003CC100003AC1000014
:1000100038C1000036C100000C94F30832C1000062
:1000200030C100002EC100002CC100002AC1000018
:1000300028C1000026C1000024C1000022C1000028
:1000400020C100001EC100001CC100001AC1000038
:1000500018C1000016C1000014C1000012C1000048
:100060000C94E4090EC100000CC100000AC100009C
:1000700008C1000006C1000004C1000002C1000068
:1000800000C10000FEC00000FCC00000FAC000007B
:10009000F8C00000F6C00000F4C00000F2C000008C
:1000A000F0C00000EEC00000ECC00000EAC000009C
:1000B000E8C00000E6C00000E4C00000E2C00000AC
:1000C000E0C00000DEC00000DCC00000DAC00000BC
:1000D000D8C00000D6C00000D4C00000D2C00000CC
:1000E000D0C00000CEC00000CCC00000CAC00000DC
:1000F000C8C00000C6C00000C4C00000C2C00000EC
:10010000C0C00000BEC00000BCC00000BAC00000FB
:10011000B8C00000B6C00000B4C00000AAC400000F
:10012000B0C00000AEC00000ACC00000AAC000001B
:10013000A8C00000A6C00000A4C00000A2C000002B
:10014000A0C000009EC000009CC000000C944409A8
:1001500098C0000096C0000094C0000092C000004B
:1001600090C000008EC000008CC000008AC000005B
:1001700088C0000086C0000084C0000082C000006B
:1001800080C000007EC000007CC000007AC000007B
:1001900078C0000076C0000074C0000072C000008B
:1001A00070C000006EC000006CC000006AC000009B
:1001B00068C0000066C0000064C0000062C00000AB
:1001C00060C000005EC000005CC000005AC00000BB
:1001D00058C0000056C0000054C0000052C00000CB
:1001E00050C000004EC000004CC000004AC00000DB
:1001F00048C000000C942C150C94E615FB0B200C49
:100200005C0C980CA10CA60CED0CF20C4C0C4E0CDA
:10021000500C520C540C560C580C5A0C880C8A0C6E
:100220008C0C8E0C900C920C940C960CB20CBA0C9C
:10023000C20CCD0CCF0CD10CDA0CE30C6A106D1093
:1002400070107310761079107C1011241FBECFEF40
:10025000CDBFDFE2DEBF10E2A0E0B0E2EEE2FEE200
:1002600002C005900D92A83CB107D9F72EE2A8EC88
:10027000B0E201C01D92A039B207E1F795D20C940B
:100280001517BECE1F93CF93DF93C0E5D0E014E0E7
:100290001E838CE1A8D3E0E6F0E083838BEB8683BA
:1002A00080E8858381E0808388ED84BF10934100DE
:1002B00083E08883E0E5F0E081818330E9F7E0E5E1
:1002C000F0E080818160808388E18583818180FF87
:1002D000FDCFE0E5F0E0808180618083818184FF53
:1002E000FDCF88ED84BF84E080934000DF91CF9103
:1002F0001F910895E0E7F0E085818E7F8583E0E03F
:10030000FAE08FEB9DE586A397A380EE9EE280A3A3
:1003100091A381E0808308958091200A9091210A21
:10032000813E2EE2920720F020917E2220936A00E7
:10033000803E2EE2920720F420917B2220936A00D7
:1003400020910520222331F0809105208150809357
:10035000052033C0885F9A42813D974070F18091BB
:10036000C9209091CA20A091CB20B091CC200196B9
:10037000A11DB11D8093C9209093CA20A093CB20CA
:10038000B093CC208091C9209091CA20A091CB201D
:10039000B091CC20892F9A2FAB2FBB27E6E8F2E251
:1003A000828B8091C9209091CA20A091CB20B091DE
:1003B000CC20818B86E0809305208091072090914E
:1003C00008200196B1F4809109208F3F91F080912F
:1003D0000620811106C0809106208150809306205E
:1003E00008958091140190911501809307209093B6
:1003F00008200895009709F466C00CF09C01992329
:1004000034F422273327281B390B51E001C050E078
:10041000E8E6F0E0838190E080937C2290937D2257
:1004200080917C2290917D229695982F8827979590
:10043000879580937C2290937D22428180917C22BB
:1004400090917D22840F911D80937C2290937D2238
:10045000000080917C2290917D228217930728F4DE
:1004600010927C2210927D22089580917C2290919E
:100470007D22820F931F8115904238F08FEF9FE10C
:1004800080937C2290937D220895552359F080918A
:100490007C2290917D22821B930B80937C229093EF
:1004A0007D220AC080917C2290917D22280F391FE5
:1004B00020937C2230937D2280917C2290917D221A
:1004C0008F7780936A000895CF93DF93C091200ABD
:1004D000D091210A80910320909104209E01281B35
:1004E000390B20937F22309380228091C820811184
:1004F0004DC080917F22909180228E3C9F4FE4F4EA
:1005000080917F22909180228B369F4FACF080911A
:100510000220882331F080910220815080930220B4
:1005200035C080916A0080937E2281E08093C8204C
:100530008CE0809302202AC08CE08093022080917E
:100540007F22909180228A369F4F1CF08FEF9FEF81
:1005500002C081E090E08093792290937A2280918A
:100560007F22909180222091792230917A2260E33B
:1005700070E00E94E416261B370B209379223093FB
:100580007A228091792290917A2234DF8091C8205A
:10059000813029F580917F2290918022C39794F039
:1005A00080910220882331F0809102208150809335
:1005B000022015C080916A0080937B2283E08093A3
:1005C000C8200DC080917F229091802287399105AB
:1005D0001CF481E090E002C08FEF9FEF0BDFC0932F
:1005E0000320D0930420DF91CF91089586179707B9
:1005F00079F06817790728F49C01261B370BB9019D
:1006000009C08617970718F4681B790B03C0089573
:1006100060E070E0862F972F0895CF93DF9380914D
:10062000002090910120892B51F080910020909121
:1006300001200197809300209093012065C080E401
:1006400090E080930020909301208091072090916A
:100650000820019609F458C0C0911401D0911501E9
:100660006091072070910820CE01C0DF893C910580
:1006700000F1AE0149585E4F9A0136952795A1EBDE
:10068000BBE20E94FD16EC010024CC0FDD1F001C14
:10069000CC0FDD1F001CCD2FD02D2EEE32E0C29FDF
:1006A000C001C39F900DD29F900D1124EA01C81B79
:1006B000D90B80910720909108208C179D0778F422
:1006C0006091072070910820CE0190DF029738F0EA
:1006D00080EC9DE58093360A9093370A15C080918F
:1006E000072090910820C817D90770F4609107205F
:1006F00070910820CE017ADF029730F08FEB9DE5F4
:100700008093360A9093370ADF91CF910895AC0118
:10071000460F571F861B970BE0E0FAE020A131A19E
:1007200024173507D8F720A131A182179307B0F716
:100730000895E0E8F6E08FE0808385E08483089503
:1007400008954091D42027E731E0429FC001439FA4
:10075000900D112441EA53E06AEF70E08455994D01
:10076000BBC608954091D42027E731E0429FC001E5
:10077000439F900D112442EB53E06AEF70E08A55DD
:10078000984DB6C608954091D42027E731E0429FA6
:10079000C001439F900D112443EC53E06AEF70E0D9
:1007A0008056974DB1C6089587E08093A200789453
:1007B00069DDC6DFA0D770D193D160E080E01CD1A5
:1007C00008D18CE0FCD01ED5D9D5F0D5B2DF89E0B8
:1007D000EEEBF0E2A6E8B2E201900D928A95E1F725
:1007E0008091822290918322A0918422B0918522CF
:1007F0000196A11DB11D813021EE920725EFA207C0
:1008000025E0B20718F080E090E0DC010000000075
:1008100000000000000000000000000000000000D8
:100820000000000000000000E3CF08950895CF937A
:10083000DF93F894A0E0B1E054968C915497E6E8E9
:10084000F2E2818755968C9155978287C0E0DAE075
:1008500088A1838B89A1848B54968D919C91559707
:100860008634914080F08091140190911501893A6D
:10087000914048F480911401909115018093882E45
:100880009093892E00008091D220882341F032DDA0
:100890001092D22081E08093D120789455C080912D
:1008A000D1208823B9F18091C820833019F434DD38
:1008B000B4DE01C009DE8091CD208F3731F5109272
:1008C000CD20E091CE20F091CF2080911401909125
:1008D0001501EE0FFF1FE857F34D80839183809140
:1008E000CE209091CF208F3F910529F41092CE20F9
:1008F0001092CF200FC08091CE209091CF200196F2
:100900008093CE209093CF2005C08091CD208F5F23
:100910008093CD208091D020882351F080911401C4
:10092000909115018093882E9093892E1092D0205B
:10093000209114013091150181E02737314008F0F2
:1009400080E08093D4207894DF91CF91089581E066
:100950008093D7208093D22041EA53E06AEF70E081
:100960008CEA96E2B9D542EB53E06AEF70E086EA92
:1009700097E2BED543EC53E06AEF70E080EA98E27C
:10098000C3D581E008951092D720089581E008959D
:1009900081E00895E0E0F2E010A2982F9C71936846
:1009A00090A388231CF490E182E002C090E080E0F4
:1009B000892BE0E0F2E081A312A216A20895E0E004
:1009C000F2E010AA836880AB80E181AB12AA16AA7C
:1009D0000895E0E0F2E010A683E880A78FE281A707
:1009E00012A616A60895AAECB1E092E09C93E82F17
:1009F000F0E084911C920895CF93DF93E0E7F0E05C
:100A000091819D7F918310920002623031F1E0E08C
:100A1000F2E09CE1918390E49283811102C080E432
:100A200001C080EC80930302613011F083E001C0CB
:100A300082E0C0E0D2E08C8380E2D5DF8C8781E267
:100A4000D2DF8D87188E198E81E08883C2DF0EC0B9
:100A500080EC8093030283E0ECCFE0E0F2E09EE1E3
:100A6000918390E492838111F3CFD9CFDF91CF911D
:100A700008951F920F920FB60F9211248F930000CA
:100A800000000000000081E0809323028F910F900E
:100A90000FBE0F901F901895CF93DF93E0E7F0E023
:100AA00082818B7F8283C0E2D3E08DE0888380E403
:100AB000898389E08A8383E396DF888782E393DFF3
:100AC000898787E390DF8A8786E38DDF8B87E0E283
:100AD000F6E08081836080831482DF91CF91089556
:100AE000E0E7F0E080818E7F808383E880930001DF
:100AF0000895E0E0F1E0108A80E4808B10A280A3EA
:100B000010AA80ABE0E4F1E0108280831092D6203E
:100B10001092D52081E08093D4200895CF93DF9365
:100B2000F89410920920E5DFC0E0D1E01EAA84E22B
:100B300088AB19AA49E54AAB32E03BAB60910B2088
:100B400070910C206CAB7DAB6CEA74E268AF79AF4E
:100B50001AAE9BE39CAF93E090933D0110923E014F
:100B600028A9206828AB10924601E0E4F1E08083D8
:100B700010924101409342019093430140910D2016
:100B800050910E2040934401509345014CE952E2AC
:100B9000409348015093490110924A0129E3209360
:100BA0004C0190934D0110924E019081906890837A
:100BB000188A90E4988B888B198A95E99A8B90E132
:100BC0009B8B4EEE52E04C8B5D8B888F398F1A8E4B
:100BD0008CEA96E28C8F9D8F1E8E68EC70E084EF1D
:100BE00091E095DD1092D6201092D52081E080937F
:100BF000D4202FEF3FEF20930720309308208093DD
:100C0000062088898068888B7894DF91CF91089539
:100C1000CF93DF9381E0809309206BDFE0E0F1E088
:100C200010AA80E480AB94E090AB11AA12AA5BE416
:100C300053AB14AA15AA16AA2AE030E220AF31AFAE
:100C400012AE40EA44AF38E030933D0110923E01CD
:100C500080A9806A80AB85E58093A0081092460148
:100C6000A0E4B1E0D4E2DC931092410189E58093E5
:100C70004201C2E0C093430160910B2070910C20AF
:100C800060934401709345016CEA74E260934801FB
:100C90007093490110924A018BE380934C0183E0E9
:100CA00080934D0110924E012C9120682C93908BD3
:100CB000818BA1E9A28B20E1238B67E771E0648B34
:100CC000758BD08FC18F128ECCEAD6E2C48FD58FB0
:100CD000168E20892068208B90A381A3A2A353A302
:100CE00064A375A340A731A712A683E298E284A764
:100CF00095A716A680A1806880A3DF91CF91089563
:100D0000CF93F894C2E0C0930920F3DEE0E0F1E075
:100D100016AA94E290AB11AA39E532AB83E083AB1B
:100D200040910D2050910E2044AB55AB4CE952E25E
:100D300040AF51AF12AE29E324AF80933D01109232
:100D40003E0120A9206820AB10924601A0E4B1E04A
:100D50009C931092410130934201C0934301209132
:100D60000B2030910C2020934401309345012CEA54
:100D700034E2209348013093490110924A012BE359
:100D800020934C0180934D0110924E012C912068CC
:100D90002C9354E0508B818B41E9428B20E1238BD3
:100DA00027E731E0248B358B908FC18F128E6CEA50
:100DB00076E2648F758F168E90899068908B50A321
:100DC00081A342A382E183A324A335A384E380A764
:100DD000C1A712A683E298E284A795A716A680A1D0
:100DE000806880A37894CF910895CF93C3E0C09397
:100DF00009207FDEE0E0F1E010A250E450A344E0DF
:100E000040A311A212A23BE433A314A215A216A27E
:100E10008AE090E280A791A712A620EA24A798E092
:100E200095A716A680A1806A80A385E58093A00877
:100E300016AA74E270AB11AA69E562ABC3ABA091CC
:100E40000D20B0910E20A4ABB5ABACE9B2E2A0AFDF
:100E5000B1AF12AE89E384AFC0933D0110923E0161
:100E600080A9806880AB10924601A0E4B1E07C9339
:100E7000109241016093420182E0809343016091AE
:100E80000B2070910C2060934401709345016CEA33
:100E900074E2609348017093490110924A018BE318
:100EA00080934C01C0934D0110924E018C9180684B
:100EB0008C93108A508B408BC18B81E9828B338B52
:100EC00047E751E0448B558B208F918F128E8CEA2F
:100ED00096E2848F958F168E80898068808BCF9163
:100EE0000895CF93C4E0C093092003DEE0E0F1E071
:100EF00010A280E480A3C0A311A212A24BE443A3DA
:100F000014A215A216A28AE090E280A791A712A6C9
:100F100060EA64A788E085A716A690A1906A90A3CE
:100F200095E59093A00810924601A0E4B1E094E208
:100F30009C931092410199E59093420192E0909325
:100F4000430120910B2030910C20209344013093D9
:100F500045012CEA34E22093480130934901109274
:100F60004A019BE390934C0193E090934D011092C2
:100F70004E012C9120682C93C08B918B31E9328BE0
:100F8000438B47E751E0448B558B608F818F128EE6
:100F90006CEA76E2648F758F168E20892068208B2C
:100FA000C0AB91AB32AB9AE493AB44AB55AB93EC93
:100FB00090AF81AF12AE83E298E284AF90933D018F
:100FC00010923E0180A9806880ABCF91089585E0A2
:100FD000809309208EDDE0E0F1E016AA34E230AB28
:100FE00011AA29E522AB83E083AB40910D205091FB
:100FF0000E2044AB55AB4CE952E240AF51AF12AEBC
:1010000099E394AF80933D0110923E0190A99068BE
:1010100090AB10924601E0E4F1E030831092410180
:10102000209342018093430120910D2030910E20A6
:1010300020934401309345012CEA34E22093480187
:101040003093490110924A019BE390934C018093A5
:101050004D0110924E01808180688083089586E062
:101060008093092046DDE0E0F1E016AA94E290AB1F
:1010700011AA39E532AB83E083AB40910D2050914A
:101080000E2044AB55AB4CE952E240AF51AF12AE2B
:1010900029E324AF80933D0110923E0120A92068EE
:1010A00020AB10924601A0E4B1E09C931092410164
:1010B0003093420132E03093430140910B20509134
:1010C0000C2040934401509345014CEA54E2409374
:1010D00048015093490110924A012BE320934C019F
:1010E00080934D0110924E012C9120682C93108A10
:1010F00020E4208B24E0208B818B81E9828B80E1AE
:10110000838B4EEE52E0448B558B908F318F128E35
:101110008CEA96E2848F958F168E80898068808B0A
:10112000089587E080930920E4DCE0E0F1E016AA6E
:1011300094E290AB11AA39E532AB83E083AB4091E6
:101140000D2050910E2044AB55AB4CE952E240AF1C
:1011500051AF12AE29E324AF80933D0110923E01BE
:1011600020A9206820AB10924601A0E4B1E09C9336
:10117000109241013093420132E03093430140919B
:101180000B2050910C2040934401509345014CEAB0
:1011900054E2409348015093490110924A012BE3D5
:1011A00020934C0180934D0110924E012C912068A8
:1011B0002C93108A20E4208B25E0208B818B81E901
:1011C000828B80E1838B4EEE52E0448B558B908F67
:1011D000318F128E8CEA96E2848F958F168E8089DD
:1011E0008068808B08951F920F920FB60F92112482
:1011F0008F9381E0809303018F910F900FBE0F902A
:101200001F901895E0E7F0E083818C7F83838481D1
:101210008C7F848380818D7F8083E0E8F1E080ECA7
:101220008283128688EC81831186A0E0B8E034E0E6
:101230003C9323E011962C93119714961C921497CB
:1012400085ED91E096968D939C93979716961C92B8
:101250001697E0E4F8E030832183148286A397A3F5
:101260001682E0E6F6E0808180618083E0E4F9E0C8
:1012700083E18183148282E08683A6A3B7A310A6AC
:1012800011A681E0808308951F920F920FB60F92EE
:1012900011242F933F934F935F938F939F93EF93DB
:1012A000FF93CF93DF931F92CDB7DEB78FEF80937D
:1012B0004C0980910920873031F4E0E0F2E084A508
:1012C000898395A502C090912C028091D320891B1F
:1012D000209168093091690991E082300CF490E026
:1012E0009923C9F091E02A3F374008F090E0992314
:1012F00091F0209168093091690989301CF481E0EE
:1013000090E002C086E090E0820F931F80937809FE
:101310009093790923C0209168093091690991E07F
:101320008F3F0CF090E09923C9F091E02730310510
:1013300008F490E0992391F02091680930916909AF
:10134000883F1CF081E090E002C086E090E0A901B7
:10135000481B590B40937809509379090F90DF91FE
:10136000CF91FF91EF919F918F915F914F913F911D
:101370002F910F900FBE0F901F901895E0E7F0E0AF
:1013800083818F7E8383E0E4F6E080818A6A8083B4
:101390008FEF848388E5828BE0EAF8E084EC858334
:1013A00083E08683178288E184830895E0E7F0E094
:1013B0008381877F8383E0ECF8E080E4808311827F
:1013C00088E58093550608951F920F920FB60F92ED
:1013D000112400000F900FBE0F901F9018959FB71B
:1013E000F894E82FF0E0E059FF4F60958081682382
:1013F00060839FBF0895863011F060E001C068E10E
:101400008091510081FD26C09FB7F894E0E5F0E09F
:101410008081826080839FBF818181FFFDCF9FB7E4
:10142000F894A0E5B0E016968C911697897F1696F1
:101430008C931697E0E6F0E080E885838BEB86835B
:1014400016968C911697846016968C938081816095
:1014500080839FBF636084E490E03ED560E480E0D9
:10146000BECF08958091D820089540D1FC0183819A
:101470008093D820811102C06ACA089581E008953E
:101480008091D820813009F47ECA089580919C24EF
:1014900088234CF480768034A9F480919D248111B6
:1014A00013C076CA08958076803481F480919D249B
:1014B00081110EC08091A2249091A324892B51F018
:1014C00065CA089580E0089580E0089580E0089559
:1014D00080E0089580E008950F931F939B018A0197
:1014E000AC0160E081E80E94E0131F910F91089524
:1014F0000F931F939B018A01AC0160E082E80E9478
:10150000E0131F910F9108950F931F939B018A0180
:10151000AC0160E083E80E94E0131F910F910895F1
:10152000E091DD20F091DE200190F081E02D22811C
:1015300033812E0F3F1FFC014081E40FF11DE217A4
:10154000F307B8F481818430B9F0861309C005C06F
:1015500081818430A1F0861303C08E2F9F2F0895C0
:101560008081E80FF11DE217F30790F380E090E02F
:10157000089580E090E0089580E090E0089580E094
:1015800090E0089580919E248F770C940E13089517
:101590009091E020992381F1E091DD20F091DE200F
:1015A0000190F081E02D9481891740F5E093DB20D4
:1015B000F093DC20228133812E0F3F1FE217F307C7
:1015C000F8F49181943061F49281981309C0938169
:1015D000961306C0E093DB20F093DC2081E00895B1
:1015E0009081E90FF11DE217F30758F3E093DB2038
:1015F000F093DC2080E0089580E0089580E0089575
:1016000080E00895EF92FF921F93CF93DF93C82F4E
:1016100060E0BEDF182F882381F1A091DD20B0911A
:10162000DE20EC2FF0E0EE0FFF1F12968D919C91C3
:101630001397E80FF91FE080F180D7011696ED911E
:10164000FC9117970995682F8C2FA2DF182F8823FC
:10165000A1F0C091DB20D091DC2065E0CE0160DFFD
:10166000EC01892B21F08A810E94E314F6CFD70187
:101670001296ED91FC9113970995812FDF91CF91EF
:101680001F91FF90EF9008951F93CF93DF93182F32
:101690007FDF882339F1C091DB20D091DC2065E029
:1016A000CE013EDFEC01892B41F04C815D816B81E5
:1016B0008A81C1D78111F3CF15C0A091DD20B091EF
:1016C000DE20E12FF0E0EE0FFF1F12968D919C912E
:1016D0001397E80FF91F0190F081E02D0190F08140
:1016E000E02D0995DF91CF911F9108958091DB2026
:1016F0009091DC2008950DC70895CF938091E0204C
:101700008823C1F0E091DD20F091DE200190F0818E
:10171000E02D8481882371F0C0E08C2F73DFCF5FD0
:10172000E091DD20F091DE200190F081E02D8481B8
:10173000C81798F31092E0201092E4201092E52050
:10174000CF910895CF938091E020882349F1A09113
:10175000DD20B091DE20ED91FC91119784818823EA
:10176000F9F0C0E0EC2FF0E0EE0FFF1F12968D9124
:101770009C911397E80FF91F0190F081E02D0084F0
:10178000F185E02D309709F00995CF5FA091DD201C
:10179000B091DE20ED91FC9111978481C81710F370
:1017A000CF9108950F931F93CF93DF93ECE9F4E269
:1017B00012861386148615861686178680818823DE
:1017C0003CF42091A2243091A324232B09F478C364
:1017D0008076803409F016C1E0919D248E2F90E030
:1017E000FC01E05AF109E830F10508F002C1E250CD
:1017F000FF4F0C94F71681E08093D0208091072052
:1018000090910820E6E8F2E283878091072090918A
:101810000820948780917E22858780917B2286870D
:10182000A8E6B0E012968C911297878713968C9158
:10183000808B6091A2247091A324CF01F5D644C37C
:10184000E0E0F8E01082CCE9D4E28A819B8186ABAB
:1018500097AB8C818F7080836E817F818CE992E25F
:10186000E3D68E819F8120910D2030910E2082172A
:10187000930709F429C380930D2090930E20E091E3
:1018800009208E2F90E08830910508F0B4C0FC014B
:10189000EA5FFE4F0C94F71641D916C3B9D914C3A9
:1018A0002FDA12C3A2DA10C31CDB0EC390DB0CC309
:1018B000D6DB0AC336DC08C3E0E4F8E01082CCE9EA
:1018C000D4E28A819B8186AB97AB8C818F708083B9
:1018D0006E817F818CEA94E2A7D68E819F812091D0
:1018E0000B2030910C208217930709F4EDC28093EE
:1018F0000B2090930C20E09109208E2F90E08830EF
:10190000910508F07AC0FC01E25FFE4F0C94F716D7
:1019100005D9DAC27DD9D8C2F3D9D6C266DAD4C223
:10192000E0DAD2C254DBD0C29ADBCEC2FADBCCC240
:10193000109268091092690980919E248093D320A7
:10194000C3C280919E2480932406BEC2E0919E244F
:10195000F0919F24E830F10508F051C0EA5EFE4F97
:101960000C94F71660E080E047D88091A02412D84C
:10197000D5D8AAC260E080E03FD88091A0240AD8E0
:1019800047D9A2C261E081E037D8CCE9D4E28C81AA
:1019900001D88D8114D8B4D997C227DA95C2A1DABB
:1019A00093C260E080E028D88091A0240E94CA04FD
:1019B0000EDB8AC261E080E01FD88091A0240E94E3
:1019C000CA044DDB81C262E080E016D88091A02479
:1019D00080680E94CA04A5DB77C280919E24809310
:1019E000840672C2E9E7F0E091E088EDF89484BFE4
:1019F000908380E005C081E003C081E001C080E009
:101A0000811165C280919C24982F907609F0E1C1E4
:101A100088230CF005C12091A2243091A324211524
:101A2000310509F4D6C18F7109F0A3C090919D24AE
:101A3000963079F0983009F492C091119AC0223012
:101A4000310509F0C6C162E070E084EE90E2ECD5A9
:101A50003DC280919E2490919F24292F33272230CC
:101A60003105A9F024F42130310541F0A9C123301A
:101A70003105D9F12F30310551F1A2C180911920E2
:101A800090911A20DC016C9170E0CED559C0E091A4
:101A90001920F0911A202189821708F09AC19927FC
:101AA000880F991F880F991FE0911B20F0911C202F
:101AB000E80FF91F80819181FC0162817381B4D5A7
:101AC000E091A424F091A52482E0818339C0809123
:101AD0001D2090911E20009709F47BC1DC01129615
:101AE0006D917C911397A0D52BC0992781309105DA
:101AF00071F038F0029709F06CC186E990E228E1B4
:101B000009C064E070E08AEB90E28ED519C08FEADC
:101B100090E229E0382FA6E6B0E2E82FF92F819174
:101B200090E08D939D938E2F831B8217C0F3622FBD
:101B3000660F6E5F6093642070E084E690E274D577
:101B4000ECE9F4E286819781228533858217930739
:101B500008F0BCC18093A6249093A724B7C121307C
:101B6000310509F036C161E070E080EE90E25CD5AD
:101B7000ADC18130E1F590919D249A30C1F52130BD
:101B8000310509F026C18091E020882309F421C1A4
:101B9000C091A024D091A1240091DD201091DE20DD
:101BA000D801ED91FC918481C81708F012C160E062
:101BB0008C2FEEDC882309F40CC1CE019927880F05
:101BC000991FD8011296ED91FC911397E80FF91F18
:101BD0000190F081E02D86819781FC010995809329
:101BE000E22061E070E082EE90E21ED56FC18230AB
:101BF00009F0EFC080919D248111E4C022303105AD
:101C000009F0E7C08091A0248BD590E08093D92083
:101C10009093DA2062E070E089ED90E205D556C13C
:101C20008F7109F083C090919D24933009F4CCC04A
:101C300018F49130A1F07AC0953019F0993039F14B
:101C400075C08091A2249091A324892B09F0C1C072
:101C500082EC9AE08093A8249093A92437C18091C4
:101C6000A2249091A324892B09F0B3C080919E24D3
:101C700090919F24019709F0ACC08091E42090914D
:101C8000E5208D7F8093E4209093E5201FC1809113
:101C9000A2249091A324892B09F09BC0C2D488234D
:101CA00009F497C020919E2430919F243327E0911E
:101CB0001920F0911A20818990E08217930708F487
:101CC00088C01BDD80919E2490919F248093E0200A
:101CD000882309F4FBC099278150904C880F991FE5
:101CE000880F991FE0911B20F0911C20E80FF91F2D
:101CF000E093DD20F093DE200190F081E02D8481DF
:101D0000882309F4E3C0C0E060E08C2FBDDC8823A9
:101D100009F45FC0CF5FE091DD20F091DE200190FB
:101D2000F081E02D8481C81778F3D0C08130E1F4D0
:101D300090919D249B30C1F48091A2249091A32482
:101D4000892B09F046C08091E020882309F441C026
:101D5000ECE9F4E2C481D2818C2F54DC8823C9F1F0
:101D60006D2F8C2F91DC33C0823099F580919D24AA
:101D7000813019F0833089F029C08091A22490919C
:101D8000A324892B31F580919E2490919F24892B47
:101D900001F58091A024DFD41AC08091A2249091F3
:101DA000A324892BB1F480919E2490919F24892BA8
:101DB00081F4CCE9D4E28C81BDD58C8120D607C0DA
:101DC00080E005C080E003C080E001C080E08111B8
:101DD0007EC080919C248F71813071F58091E020CC
:101DE000882351F10091A0241091A124C091DD20FD
:101DF000D091DE20E881F98184810817E8F460E061
:101E0000802FC6DB8823C1F0F801FF27CF01880FA0
:101E1000991FEA81FB81E80FF91FC081D181EE8112
:101E2000FF810995682F802FB3DB882329F0EC818F
:101E3000FD81099581114BC080919C248F71823066
:101E400009F040C08091E0208823B1F1A091DD200D
:101E5000B091DE20ED91FC9111978481882371F17E
:101E6000C0E0EC2FF0E0EE0FFF1F12968D919C91D9
:101E70001397E80FF91F00811181D8011696ED9193
:101E8000FC9117970995682F8C2F82DB8823F9F036
:101E9000D8011496ED91FC9115970995811117C001
:101EA000CF5FA091DD20B091DE20ED91FC911197E4
:101EB0009481C917B0F20BC080E009C080E007C070
:101EC00080E005C080E003C081E001C081E0DF91D7
:101ED000CF911F910F9108951BBEFC0128ED24BFE7
:101EE000608308954091CA01E62FF72F8093CA01BD
:101EF00084914093CA010895811122C09091782263
:101F00009923D9F090918B2E911101C0FFCF2FB75B
:101F1000F894EAE8FEE29181915091832FBF0DC0C1
:101F200090918B2E9F3F09F4FFCF2FB7F894EAE8EA
:101F3000FEE291819F5F91832FBF80937822089565
:101F400090917822992361F3F8CF0F93E8ECF4E0B5
:101F500080818F7D808380818F7D8083ECE3F2E2BE
:101F600002E0059310923E2210923F2200E2069377
:101F700000E40693E4E3F2E200E2069300E4069351
:101F8000ECE9F4E214861586168617861286138607
:101F9000109221220F9108950F9385E080932122C2
:101FA000EDE3F2E204E00593E5E3F2E204E00593F9
:101FB0000F9108950F9383E08093212210923E2287
:101FC00010923F22ECE3F2E202E006930F910895B3
:101FD000E091A824F091A924309709F0099508957B
:101FE0000F93CF93DF9380912122833019F4F0DF98
:101FF000ACDF5EC080911D2290911E22C091A6246C
:10200000D091A724C81BD90B71F520911F223091C4
:102010002022820F931F80931F22909320222091D1
:10202000A2243091A3248217930721F08091E62007
:10203000882341F084E080932122E4E3F2E202E08D
:10204000069336C0E091AA24F091AB24309799F022
:102050000995882381F010921D2210921E22C091B2
:10206000A624D091A724C034D10528F01092E620F0
:10207000C0E4D0E003C081E08093E620E4E2F2E235
:10208000C28FD38F80911D2290911E222091A42473
:102090003091A524280F391F248F358FC80FD91FE1
:1020A000C0931D22D0931E22ECE3F2E202E00693DD
:1020B000DF91CF910F910895FC018181E82FE770A6
:1020C0008E2F90E0FC013197E730F105C0F4E25E1D
:1020D000FE4F8DC680E190E0089580E290E0089583
:1020E00080E490E0089580E890E0089580E091E039
:1020F000089580E092E008958FEF93E0089588E0DE
:1021000090E00895282F2F7030E0220F331F082E03
:10211000000C990B8827990F881F9927820F931F0E
:1021200002979C01220F331F220F331F220F331FF0
:10213000820F931F89559E4D08950F93CF938091E1
:10214000CC0480FF62C081E08093CC04E4E3F2E23F
:1021500000E80693ECE3F2E200E806938093CA04F9
:10216000E4E3F2E200E1069380912122882329F042
:102170008350823008F42CDFE8DE80913622909183
:102180003722089709F043C088E0EDEDF1E2ACE9B1
:10219000B4E201900D928A95E1F7E8ECF4E08081D9
:1021A00080628083808180628083FCDAC82F811105
:1021B00003C0F2DEC1E02CC080919C2488236CF423
:1021C00010921F221092202210921D2210921E2285
:1021D00082E08093212204DF1BC08091A224909191
:1021E000A324892B11F4E6DE13C010921F22109253
:1021F000202210921D2210921E2281E08093212223
:10220000E4E3F2E202E0069303C0C0E001C0C1E0F3
:102210008C2FCF910F9108958F929F92AF92BF9282
:10222000DF92EF92FF920F931F93CF93DF93D82EFD
:1022300069DF8C01BD2CBB1CBB24BB1CCD2DCF701A
:10224000D0E0CC0FDD1FCB0DD11DCE01880F991F23
:10225000880F991F880F991F9C012C5C3D4D7901B7
:10226000C9012ADF4C01BB2009F470C0FE01EE0F4A
:10227000FF1FEE0FFF1FEE0FFF1FEC5DFD4D2689C8
:102280003789D80115968D919C911697820F931FCF
:1022900015968D939C93169713962D913C911497B8
:1022A0008217930709F43CC0281B390B2115B4E0B1
:1022B0003B0738F02FEF33E0C901B40171D5281B7B
:1022C000390BF801808181FF09C0C901B40168D5CB
:1022D00041E0892B09F040E0842F01C080E0D80163
:1022E0009C9180FB91F99C93CC0FDD1FCC0FDD1FDF
:1022F000CC0FDD1FCC5DDD4D1E8A1F8A2A8B3B8BE8
:1023000011962D913C91129715968D919C9116974F
:10231000820F931F8C8B9D8BF70102E00693CAC03E
:10232000D8018C9181FFB3C08D7F8C93CC0FDD1FC2
:10233000CC0FDD1FCC0FDD1FCC5DDD4D1E8A1F8A4B
:102340001A8A1B8AF70102E00693B4C0FE01EE0F61
:10235000FF1FEE0FFF1FEE0FFF1FEC5DFD4DA2886C
:10236000B388D8018C9182FF19C01196ED91FC9130
:10237000129715962D913C91169713968D919C91DD
:102380001497B4010DD5B0E4DB9EB001112469555A
:102390007F4DAC01CF01820F931F3ED5F8012581FF
:1023A00036812A0D3B1D25833683838194818217D4
:1023B000930768F485839683CC0FDD1FCC0FDD1F58
:1023C000CC0FDD1FCC5DDD4D8E899F8960C0FE0185
:1023D000EE0FFF1FEE0FFF1FEE0FFF1FEC5DFD4D19
:1023E000468957894A155B0509F051C028173907F6
:1023F00009F44DC0AC01421B530B9A01211554E066
:10240000350750F02FEF33E0C901B401C9D4D90129
:10241000A81BB90BCD0107C0C901B401C1D4F90192
:10242000E81BF90BCF01FE01EE0FFF1FEE0FFF1FA0
:10243000EE0FFF1FEC5DFD4D128A138A881599057A
:1024400078F4D8018C9184608C93B0E4DB9EC00159
:10245000112489559F4D848B958B868A978A13C04A
:10246000F8014181528125813681240F351FCC0F1F
:10247000DD1FCC0FDD1FCC0FDD1FCC5DDD4D2C8BA8
:102480003D8B8E8B9F8BF70102E0069313C0D80122
:102490008C9180FF0FC08E7F8C931796ED91FC91ED
:1024A0001897309739F015966D917C9116974D2DB0
:1024B00080E00995DF91CF911F910F91FF90EF90F0
:1024C000DF90BF90AF909F908F900895CF93CFB73C
:1024D000F89481E011DDEAECF4E080E4808380E2AE
:1024E0008083E1ECF4E0808181608083A9ECB4E03A
:1024F0008C9182608C93E8ECF4E08081806480832E
:102500008C9181608C93808180688083CFBFCF91D4
:102510000895CF93DF93C0E6D0E0188280E30E9455
:10252000FB09E0ECF4E080818064808381E08883B3
:10253000CFB7F89480E090E0FC01EE0FFF1FEE0FA4
:10254000FF1FEE0FFF1FEC5DFD4D118A01968830D5
:10255000910591F7E7EAF1E280818E7F8083E0EBDD
:10256000F1E280818E7F8083E9EBF1E280818E7FD2
:102570008083E2ECF1E280818E7F8083EBECF1E2FC
:1025800080818E7F8083E4EDF1E280818E7F808385
:102590006AE170E082E0A6DC8F3F19F08093FA04D4
:1025A00003C08FE18093FA046BE170E082E09ADC73
:1025B0008F3F19F08093FB0403C08FE18093FB04ED
:1025C000E0ECF4E080818360808380818068808398
:1025D00080818061808384E392E286839783808117
:1025E000806280838FEF8093C504E8ECF4E0808103
:1025F000826080831092782280918F2E8F3F09F421
:10260000FFCF9FB7F894EAE8FEE285818F5F85836C
:102610009FBF5CDFCFBFDF91CF9108958093C3044C
:1026200008958091C3040895ECE9F4E280879187CE
:10263000628773870895282F2F7030E0220F331F91
:10264000082E000C990B8827990F881F9927820F55
:10265000931FFC01EE0FFF1FEE0FFF1FEE0FFF1F7A
:10266000EC5DFD4D2189207C09F058C0637061301C
:1026700011F018F404C020EC03C020E801C020E4ED
:1026800040385105E9F050F440325105A9F040348A
:102690005105A1F040315105D9F40CC0411532E08B
:1026A000530791F04F3F33E0530781F041155140FC
:1026B00079F408C041E00DC042E00BC043E009C01E
:1026C00044E007C045E005C046E003C047E001C064
:1026D00040E0FC01EE0FFF1FEE0FFF1FEE0FFF1F8C
:1026E000EC5DFD4D118ADC01AA0FBB1FAA0FBB1FB9
:1026F000AA0FBB1FAC5CBD4D36E03C93242B218B55
:10270000880F991F880F991F880F991FFC01EC5D96
:10271000FD4D81898062818B81E0089580E008957C
:10272000E82FEF70F0E0EE0FFF1F082E000C990B62
:102730008827990F881F9927E80FF91FEE0FFF1FB1
:10274000EE0FFF1FEE0FFF1FEC5DFD4D818982FB39
:10275000882780F90895282F2F7030E0A901440FB1
:10276000551F282F082E000C330B2227330F221F52
:102770003327240F351FF901EE0FFF1FEE0FFF1F48
:10278000EE0FFF1FEC5DFD4D918992FF17C0220FE8
:10279000331F220F331F220F331FF901EC5DFD4D54
:1027A00091899B7F918BAEDCFC01808180FF06C00C
:1027B0008E7F80830780F085E02D099581E0089564
:1027C0007F928F929F92AF92BF92CF92DF92EF92C1
:1027D000FF920F931F93CF93DF93982E862E6A015B
:1027E000790190DC5C01792C771C7724771CC92D4A
:1027F000CF70D0E0CC0FDD1FC70DD11DFE01EE0F55
:10280000FF1FEE0FFF1FEE0FFF1FEC5DFD4D8189D7
:10281000807C09F47DC0FE01EE0FFF1FEE0FFF1F4D
:10282000EE0FFF1FEC5DFD4D8189807C803C61F0E7
:10283000FE01EE0FFF1FEE0FFF1FEE0FFF1FEC5DFF
:10284000FD4D818982FD66C08FB7F894F5019081B6
:1028500090FF03C08FBF712C5EC0F5019081916025
:1028600090838FBFC182D282E382F4821582168266
:1028700007831087811006C091E0E114F10419F07C
:1028800090E001C091E0F501808190FB81F98B7FA0
:102890008083772059F0CC0FDD1FCC0FDD1FCC0FCC
:1028A000DD1FCC5DDD4D1E8A1F8A2DC0FE01EE0F9F
:1028B000FF1FEE0FFF1FEE0FFF1FEC5DFD4D818927
:1028C000807C803CA1F4CE01880F991F880F991F4E
:1028D000880F991F8C5C9D4DEFDBBC01C70160D256
:1028E000892B29F0F50180818E7F808314C0CC0F65
:1028F000DD1FCC0FDD1FCC0FDD1FCC5DDD4D1A8A37
:102900001B8A1E8A1F8A892D87DC7724739403C053
:10291000712C01C0712C872DDF91CF911F910F91E8
:10292000FF90EF90DF90CF90BF90AF909F908F90EF
:102930007F900895FF920F931F93CF93DF93182FEB
:10294000F82EFF1CFF24FF1CC82FCF70D0E0CC0F47
:10295000DD1FCF0DD11DD6DBDC01FE01EE0FFF1F09
:10296000EE0FFF1FEE0FFF1FEC5CFD4D02E0059325
:102970008C9180FF22C08E7F8C931796ED91FC91F5
:1029800018973097D1F0FF2059F0CC0FDD1FCC0FF6
:10299000DD1FCC0FDD1FCC5DDD4D6E897F890AC048
:1029A000CC0FDD1FCC0FDD1FCC0FDD1FCC5DDD4D4F
:1029B0006A897B89412F81E00995DF91CF911F9131
:1029C0000F91FF900895CF93C82FB4DFEC2FEF70D5
:1029D000F0E0EE0FFF1F8C2FCC0F990B8827990F7B
:1029E000881F9927E80FF91FEE0FFF1FEE0FFF1F3B
:1029F000EE0FFF1FEC5DFD4D118ACF9108950F93EF
:102A0000E82FEF70F0E0EE0FFF1F282F082E000CCC
:102A1000330B2227330F221F3327E20FF31FDF016F
:102A2000AA0FBB1FAA0FBB1FAA0FBB1FAC5DBD4DDA
:102A300051969C915197946051969C93EE0FFF1F75
:102A4000EE0FFF1FEE0FFF1FEC5CFD4D01E0069344
:102A500071DF81E00F9108951F920F920FB60F92D0
:102A600011240F932F933F934F935F936F937F9313
:102A70008F939F93AF93BF93EF93FF938091CB047A
:102A8000882344F480E88093CA040E94A20B0E9429
:102A900017048AC08091CB0482FF20C084E0809319
:102AA000CA0480913C2286FF7FC08091CC0481FDC6
:102AB0007BC043DB811178C080912122813011F4E9
:102AC00079DA72C0843009F06FC0EDE3F2E204E01D
:102AD0000593E5E3F2E204E0059366C08091CB0440
:102AE00081FF5DC082E08093CA048091342286FF1A
:102AF0005BC08091CC0481FD57C01FDB811154C0A5
:102B000080912122823041F484E080932122E4E309
:102B1000F2E202E0069348C0833009F045C0EDE3DD
:102B2000F2E204E00593E5E3F2E204E005933CC041
:102B300080E18093CA0481E0FDDE81E8FBDE82E073
:102B4000F9DE82E8F7DE0E947D0B1092C304E4E216
:102B5000F2E2118A96E0908B83E4818B118E908F44
:102B6000818F8DED91E2848B958BEFD91DC0809183
:102B7000CB0486FF08C080E48093CA0480E0BCD9FF
:102B80000E94150411C08091CB0485FF0DC080E226
:102B90008093CA0481E0B0D90E94160405C08091D8
:102BA000CB0484FDC5CFE3CFFF91EF91BF91AF91EF
:102BB0009F918F917F916F915F914F913F912F9155
:102BC0000F910F900FBE0F901F9018951F920F92AC
:102BD0000FB60F9211240F931F932F933F934F9390
:102BE0005F936F937F938F939F93AF93BF93CF9395
:102BF000DF93EF93FF938091CC0481FD03C09DDAB6
:102C00008111B9C082E08093CC048091C504819584
:102C1000880FE4E3F2E2E81BF109208131812453BB
:102C20003242369527953695279536952795822FEA
:102C3000869520FD02C090E001C090E8890FE82F42
:102C4000EF70F0E0EE0FFF1F282F082E000C330B63
:102C50002227330F221F3327E20FF31FDF01AA0FB2
:102C6000BB1FAA0FBB1FAA0FBB1FAC5CBD4D9C9125
:102C700095FF81C0FD0100E20693811177C080912C
:102C80002122843019F4A4D960D975C0009136226C
:102C9000109137228091A6249091A724C0911D22E3
:102CA000D0911E229E01200F311F8217930718F426
:102CB0008C010C1B1D0B8091A4249091A524A801CC
:102CC0006DED71E28C0F9D1FA7D0C00FD11FC09377
:102CD0001D22D0931E220034110569F480911F2219
:102CE000909120228C0F9D1F2091A2243091A3242B
:102CF0008217930780F0ECE9F4E2C287D387068459
:102D0000F785E02D309729F00995811102C044D94B
:102D100032C050D930C08091A6249091A724C81702
:102D2000D907F9F4E091AA24F091AB24309711F47B
:102D300033D921C00995811102C02ED91CC0209120
:102D40001F223091202280911D2290911E22820FFD
:102D5000931F80931F229093202210921D22109285
:102D60001E22E4E3F2E202E0069305C0803811F48B
:102D700037D901C051DAFF91EF91DF91CF91BF9127
:102D8000AF919F918F917F916F915F914F913F9103
:102D90002F911F910F910F900FBE0F901F901895BC
:102DA000AA1BBB1B51E107C0AA1FBB1FA617B70771
:102DB00010F0A61BB70B881F991F5A95A9F780958D
:102DC0009095BC01CD01089597FB072E16F4009451
:102DD00006D077FD08D0E4DF07FC05D03EF49095DF
:102DE00081959F4F0895709561957F4F0895EE0FDF
:102DF000FF1F0590F491E02D0994A29FB001B39FAD
:102E0000C001A39F700D811D1124911DB29F700DF3
:102E1000811D1124911D0895FB01DC0102C0019068
:0E2E20000D9241505040D8F70895F894FFCF1E
:102E2E0040000CE02E0AFFFFFFFF558000800035AA
:102E3E000A400A460A320A000050201F20000028CD
:102E4E002023200F2000000009022700010100802E
:102E5E00FA0904000003FFFFFF00070581010001CE
:102E6E000107058201000101070583010001010030
:102E7E001201000200000040EB0300A0000201025C
:102E8E000001000000030000000000000000000030
:102E9E000000000000000000000000000000000024
:102EAE000000000000000000000000000000000014
:102EBE00000000000000555342476F62696E646166
:102ECE00722044756D6D7920446576696365005492
:102EDE0061706972546563680000040309046465D7
:082EEE00627567313233000008
:00000001FF
