:1000000024C100003EC100003CC100003AC1000014
:1000100038C1000036C1000034C1000032C1000008
:1000200030C100002EC100002CC100002AC1000018
:1000300028C1000026C1000024C1000022C1000028
:1000400020C100001EC100001CC100001AC1000038
:1000500018C1000016C1000014C1000012C1000048
:100060006EC700000EC100000CC100000AC10000F4
:1000700008C1000006C1000004C1000002C1000068
:1000800000C10000FEC00000FCC00000FAC000007B
:10009000F8C00000F6C00000F4C00000F2C000008C
:1000A000F0C00000EEC00000ECC00000EAC000009C
:1000B000E8C00000E6C00000E4C00000E2C00000AC
:1000C000E0C00000DEC00000DCC00000DAC00000BC
:1000D000D8C00000D6C00000D4C00000D2C00000CC
:1000E000D0C00000CEC00000CCC00000CAC00000DC
:1000F000C8C00000C6C00000C4C00000C2C00000EC
:10010000C0C00000BEC00000BCC00000BAC00000FB
:10011000B8C00000B6C00000B4C000008EC200002D
:10012000B0C00000AEC00000ACC00000AAC000001B
:10013000A8C00000A6C00000A4C00000A2C000002B
:10014000A0C000009EC000009CC0000058C6000077
:1001500098C0000096C0000094C0000092C000004B
:1001600090C000008EC000008CC000008AC000005B
:1001700088C0000086C0000084C0000082C000006B
:1001800080C000007EC000007CC000007AC000007B
:1001900078C0000076C0000074C0000072C000008B
:1001A00070C000006EC000006CC000006AC000009B
:1001B00068C0000066C0000064C0000062C00000AB
:1001C00060C000005EC000005CC000005AC00000BB
:1001D00058C0000056C0000054C0000052C00000CB
:1001E00050C000004EC000004CC000004AC00000DB
:1001F00048C000000C94C3120C947D13B609BA09D0
:10020000F609320A3B0A400A840A890AE609E80923
:10021000EA09EC09EE09F009F209F409220A240AB4
:10022000260A280A2A0A2C0A2E0A300A4C0A540ADC
:100230005C0A670A690A6B0A730A7B0A010E040EDC
:10024000070E0A0E0D0E100E130E11241FBECFEF57
:10025000CDBFDFE2DEBF10E2A0E0B0E2E8E1F9E20C
:1002600002C005900D92A63BB107D9F72EE2A6EB8E
:10027000B0E201C01D92A236B207E1F7C9D00C94DA
:100280008A14BECE1F93CF93DF93C0E5D0E014E075
:100290001E838CE18CD1E0E6F0E083838BEB8683D8
:1002A00080E8858381E0808388ED84BF10934100DE
:1002B00083E08883E0E5F0E081818330E9F7E0E5E1
:1002C000F0E080818160808388E18583818180FF87
:1002D000FDCFE0E5F0E0808180618083818184FF53
:1002E000FDCF88ED84BF84E080934000E8E6F0E035
:1002F000828185518283DF91CF911F910895E0E73C
:10030000F0E085818E7F8583E0E0FAE080EC9DE57A
:1003100086A397A380EE9EE280A391A381E08083D1
:1003200008958091200A9091210A20910020309117
:100330000120AC01421B530B40936722509368226B
:10034000853D50E3950718F027E220936A008C3E24
:100350002CE2920718F42BE220936A009C012051B2
:100360003742213A3F40A0F04091B6205091B7204B
:100370006091B8207091B9204F5F5F4F6F4F7F4FF2
:100380004093B6205093B7206093B8207093B92063
:1003900080930020909301200895E0E8F6E08FE03C
:1003A000808385E08483089508954091C02027E7E5
:1003B00031E0429FC001439F900D112445ED51E073
:1003C0006AEF70E08258994D42C608954091C0206E
:1003D00027E731E0429FC001439F900D112446EE74
:1003E00051E06AEF70E08858984D3DC608954091FD
:1003F000C02027E731E0429FC001439F900D1124A8
:1004000047EF51E06AEF70E08E58974D38C6089577
:1004100087E08093A200789435DFC6DF27D720D10C
:1004200043D160E080E0CCD0B8D08CE0ACD0A5D493
:1004300060D577D5B2DF80916A2290916B22A0912E
:100440006C22B0916D220196A11DB11D813021EE6B
:10045000920725EFA20725E0B20718F080E090E0B0
:10046000DC010000000000000000000000000000AF
:100470000000000000000000000000000000E3CFCA
:10048000089508958091BE20882339F038DF1092B6
:10049000BE2081E08093BD2036C08091BD2088239E
:1004A00091F13FDFE091BA20F091BB2080911401DF
:1004B00090911501EE0FFF1FE65AF34D8083918353
:1004C0008091BA209091BB208F3F910599F41092B2
:1004D000BA201092BB208091BC208823A1F080918B
:1004E00014019091150180935A2E90935B2E1092D7
:1004F000BC2009C08091BA209091BB2001968093C6
:10050000BA209093BB209091C02081E0911180E0AF
:100510008093C020089581E08093C3208093BE2003
:1005200045ED51E06EEE72E08EE796E290D546EE34
:1005300051E06EEE72E088E797E295D547EF51E023
:100540006EEE72E082E798E29AD581E0089510920B
:10055000C320089581E0089581E00895E0E0F2E08D
:1005600010A2982F9C71936890A388231CF490E1AB
:1005700082E002C090E080E0892BE0E0F2E081A31D
:1005800012A216A20895E0E0F2E010AA836880AB00
:1005900080E181AB12AA16AA0895E0E0F2E010A66D
:1005A00083E880A78FE281A712A616A60895AAEC79
:1005B000B1E092E09C93E82FF0E084911C920895C2
:1005C000CF93DF93E0E7F0E091819D7F91831092DC
:1005D0000002623031F1E0E0F2E09CE1918390E4CE
:1005E0009283811102C080E401C080EC80930302F9
:1005F000613011F083E001C082E0C0E0D2E08C8382
:1006000080E2D5DF8C8781E2D2DF8D87188E198E4C
:1006100081E08883C2DF0EC080EC8093030283E018
:10062000ECCFE0E0F2E09EE1918390E492838111CF
:10063000F3CFD9CFDF91CF9108951F920F920FB6CC
:100640000F9211248F9381E0809323020000000019
:10065000000000008F910F900FBE0F901F90189513
:10066000CF93DF93E0E7F0E082818B7F8283C0E26B
:10067000D3E08DE0888380E4898389E08A8383E303
:1006800096DF888782E393DF898787E390DF8A8715
:1006900086E38DDF8B87E0E2F6E0808183608083F4
:1006A0001482DF91CF910895E0E7F0E080818E7FA2
:1006B000808383E8809300010895E0E0F1E0108AF0
:1006C00080E4808B10A280A310AA80ABE0E4F1E06C
:1006D000108280831092C2201092C12081E080930A
:1006E000C020089510920220E8DFE0E0F1E016AAB1
:1006F00084E280AB11AA49E542AB32E033AB6091B2
:1007000004207091052064AB75AB6EE774E260AFB6
:1007100071AF12AE9BE394AF93E090933D011092C2
:100720003E0120A9206820AB10924601A0E4B1E070
:100730008C93109241014093420190934301409168
:1007400006205091072040934401509345014EE606
:1007500052E2409348015093490110924A0129E323
:1007600020934C0190934D0110924E019C91906802
:100770009C93108A90E4908B808B118A95E9928BE0
:1007800090E1938B4EEE52E0448B558B808F318FEE
:10079000128E8EE796E2848F958F168E8089806800
:1007A000808B0895CF93DF9381E08093022085DFD3
:1007B000E0E0F1E010AA80E480AB94E090AB11AAF5
:1007C00012AA5BE453AB14AA15AA16AA23E030E2DE
:1007D00020AF31AF12AE40EA44AF38E030933D0174
:1007E00010923E0180A9806A80AB85E58093A008C5
:1007F00010924601A0E4B1E0D4E2DC9310924101F2
:1008000089E580934201C2E0C093430160910420D6
:100810007091052060934401709345016EE774E286
:10082000609348017093490110924A018BE38093D1
:100830004C0183E080934D0110924E012C91206871
:100840002C93908B818BA1E9A28B20E1238B67E70E
:1008500071E0648B758BD08FC18F128ECEE7D6E29C
:10086000C48FD58F168E20892068208B90A381A3FA
:10087000A2A353A364A375A340A731A712A685EF33
:1008800097E284A795A716A680A1806880A3DF9130
:10089000CF910895CF93F894C2E0C09302200DDF6A
:1008A000E0E0F1E016AA94E290AB11AA39E532AB90
:1008B00083E083AB409106205091072044AB55ABB9
:1008C0004EE652E240AF51AF12AE29E324AF80931F
:1008D0003D0110923E0120A9206820AB10924601F4
:1008E000A0E4B1E09C931092410130934201C09387
:1008F000430120910420309105202093440130933E
:1009000045012EE734E220934801309349011092CB
:100910004A012BE320934C0180934D0110924E012C
:100920002C9120682C9354E0508B818B41E9428BB1
:1009300020E1238B27E731E0248B358B908FC18F0B
:10094000128E6EE776E2648F758F168E90899068AE
:10095000908B50A381A342A382E183A324A335A358
:1009600084E380A7C1A712A685EF97E284A795A785
:1009700016A680A1806880A37894CF910895CF9324
:10098000C3E0C093022099DEE0E0F1E010A250E461
:1009900050A344E040A311A212A23BE433A314A24B
:1009A00015A216A283E090E280A791A712A620EAE2
:1009B00024A798E095A716A680A1806A80A385E564
:1009C0008093A00816AA74E270AB11AA69E562AB25
:1009D000C3ABA0910620B0910720A4ABB5ABAEE6A7
:1009E000B2E2A0AFB1AF12AE89E384AFC0933D01D4
:1009F00010923E0180A9806880AB10924601A0E46D
:100A0000B1E07C93109241016093420182E08093B7
:100A1000430160910420709105206093440170931C
:100A200045016EE774E260934801709349011092AA
:100A30004A018BE380934C01C0934D0110924E010B
:100A40008C9180688C93108A508B408BC18B81E98C
:100A5000828B338B47E751E0448B558B208F918FEE
:100A6000128E8EE796E2848F958F168E808980682D
:100A7000808BCF910895CF93C4E0C09302201DDEF8
:100A8000E0E0F1E010A280E480A3C0A311A212A2D2
:100A90004BE443A314A215A216A283E090E280A720
:100AA00091A712A660EA64A788E085A716A690A180
:100AB000906A90A395E59093A00810924601A0E457
:100AC000B1E094E29C931092410199E59093420128
:100AD00092E09093430120910420309105202093CF
:100AE0004401309345012EE734E2209348013093CE
:100AF000490110924A019BE390934C0193E090933B
:100B00004D0110924E012C9120682C93C08B918B3B
:100B100031E9328B438B47E751E0448B558B608F33
:100B2000818F128E6EE776E2648F758F168E208924
:100B30002068208BC0AB91AB32AB9AE493AB44AB53
:100B400055AB93EC90AF81AF12AE85EF97E284AFD7
:100B500090933D0110923E0180A9806880ABCF91B7
:100B6000089585E080930220A8DDE0E0F1E016AA78
:100B700034E230AB11AA29E522AB83E083AB40918C
:100B800006205091072044AB55AB4EE652E240AFF1
:100B900051AF12AE99E394AF80933D0110923E01A4
:100BA00090A9906890AB10924601E0E4F1E03083A8
:100BB000109241012093420180934301209106202D
:100BC0003091072020934401309345012EE734E211
:100BD000209348013093490110924A019BE390937E
:100BE0004C0180934D0110924E018081806880837A
:100BF000089586E08093022060DDE0E0F1E016AA2F
:100C000094E290AB11AA39E532AB83E083AB40911B
:100C100006205091072044AB55AB4EE652E240AF60
:100C200051AF12AE29E324AF80933D0110923E01F3
:100C300020A9206820AB10924601A0E4B1E09C936B
:100C4000109241013093420132E0309343014091D0
:100C500004205091052040934401509345014EE7F4
:100C600054E2409348015093490110924A012BE30A
:100C700020934C0180934D0110924E012C912068DD
:100C80002C93108A20E4208B24E0208B818B81E937
:100C9000828B80E1838B4EEE52E0448B558B908F9C
:100CA000318F128E8EE796E2848F958F168E808913
:100CB0008068808B089587E080930220FEDCE0E06E
:100CC000F1E016AA94E290AB11AA39E532AB83E0C9
:100CD00083AB409106205091072044AB55AB4EE6C4
:100CE00052E240AF51AF12AE29E324AF80933D01F1
:100CF00010923E0120A9206820AB10924601A0E48A
:100D0000B1E09C93109241013093420132E0309364
:100D10004301409104205091052040934401509399
:100D200045014EE754E24093480150934901109227
:100D30004A012BE320934C0180934D0110924E0108
:100D40002C9120682C93108A20E4208B25E0208BA6
:100D5000818B81E9828B80E1838B4EEE52E0448B64
:100D6000558B908F318F128E8EE796E2848F958F00
:100D7000168E80898068808B0895E0E7F0E083819B
:100D80008C7F838384818C7F848380818D7F80832B
:100D9000E0E8F1E080EC8283128688EC81831186A2
:100DA000A0E0B8E034E03C9323E011962C93119737
:100DB00014961C92149785ED91E096968D939C93D2
:100DC000979716961C921697E0E4F8E030832183FB
:100DD000148286A397A31682E0E6F6E08081806104
:100DE0008083E0E4F9E083E18183148282E08683FA
:100DF000A6A3B7A310A611A681E0808308951F9231
:100E00000F920FB60F9211242F933F934F935F933E
:100E10008F939F93EF93FF93CF93DF931F92CDB761
:100E2000DEB78FEF80934C0980910220873031F438
:100E3000E0E0F2E084A5898395A502C090912C02A0
:100E40008091BF20891B209168093091690991E048
:100E500082300CF490E09923C9F091E02A3F3740AA
:100E600008F090E0992391F0209168093091690988
:100E700089301CF481E090E002C086E090E0820FAF
:100E8000931F809378099093790923C02091680972
:100E90003091690991E08F3F0CF090E09923C9F0FF
:100EA00091E02730310508F490E0992391F02091EA
:100EB000680930916909883F1CF081E090E002C028
:100EC00086E090E0A901481B590B409378095093A4
:100ED00079090F90DF91CF91FF91EF919F918F91C1
:100EE0005F914F913F912F910F900FBE0F901F90E8
:100EF0001895E0E7F0E083818F7E8383E0E4F6E0FD
:100F000080818A6A80838FEF848388E5828BE0EA20
:100F1000F8E084EC858383E08683178288E184830C
:100F20000895E0E7F0E08381877F8383E0ECF8E0D9
:100F300080E48083118288E58093550608951F928E
:100F40000F920FB60F92112400000F900FBE0F905A
:100F50001F9018959FB7F894E82FF0E0E059FF4FE5
:100F600060958081682360839FBF0895863011F06B
:100F700060E001C068E18091510081FD26C09FB70B
:100F8000F894E0E5F0E08081826080839FBF8181FA
:100F900081FFFDCF9FB7F894A0E5B0E016968C9145
:100FA0001697897F16968C931697E0E6F0E080E816
:100FB00085838BEB868316968C91169784601696A4
:100FC0008C938081816080839FBF636084E490E024
:100FD0001AD560E480E0BECF08958091C4200895C2
:100FE00040D1FC0183818093C420811102C093CA47
:100FF000089581E008958091C420813009F4A7CA42
:10100000089580916E2488234CF480768034A9F46E
:1010100080916F24811113C09FCA08958076803417
:1010200081F480916F2481110EC08091742490917D
:101030007524892B51F08ECA089580E0089580E0D0
:10104000089580E0089580E0089580E008950F936A
:101050001F939B018A01AC0160E081E80E94771137
:101060001F910F9108950F931F939B018A01AC016B
:1010700060E082E80E9477111F910F9108950F930D
:101080001F939B018A01AC0160E083E80E94771105
:101090001F910F910895E091C920F091CA2001900D
:1010A000F081E02D228133812E0F3F1FFC01408112
:1010B000E40FF11DE217F307B8F481818430B9F031
:1010C000861309C005C081818430A1F0861303C056
:1010D0008E2F9F2F08958081E80FF11DE217F307EF
:1010E00090F380E090E0089580E090E0089580E043
:1010F00090E0089580E090E00895809170248F77CB
:101100000C94A51008959091CC20992381F1E09141
:10111000C920F091CA200190F081E02D94818917B7
:1011200040F5E093C720F093C820228133812E0F31
:101130003F1FE217F307F8F49181943061F4928134
:10114000981309C09381961306C0E093C720F093CB
:10115000C82081E008959081E90FF11DE217F3079F
:1011600058F3E093C720F093C82080E0089580E012
:10117000089580E0089580E00895EF92FF921F9314
:10118000CF93DF93C82F60E0BEDF182F882381F153
:10119000A091C920B091CA20EC2FF0E0EE0FFF1F04
:1011A00012968D919C911397E80FF91FE080F180C2
:1011B000D7011696ED91FC9117970995682F8C2F02
:1011C000A2DF182F8823A1F0C091C720D091C8209A
:1011D00065E0CE0160DFEC01892B21F08A810E945D
:1011E0007A12F6CFD7011296ED91FC9113970995DB
:1011F000812FDF91CF911F91FF90EF9008951F9362
:10120000CF93DF93182F7FDF882339F1C091C72058
:10121000D091C82065E0CE013EDFEC01892B41F082
:101220004C815D816B818A819DD78111F3CF15C07F
:10123000A091C920B091CA20E12FF0E0EE0FFF1F6E
:1012400012968D919C911397E80FF91F0190F081F0
:10125000E02D0190F081E02D0995DF91CF911F9154
:1012600008958091C7209091C8200895E9C60895F7
:10127000CF938091CC208823C1F0E091C920F091D8
:10128000CA200190F081E02D8481882371F0C0E0B4
:101290008C2F73DFCF5FE091C920F091CA200190BD
:1012A000F081E02D8481C81798F31092CC20109221
:1012B000D0201092D120CF910895CF938091CC204F
:1012C000882349F1A091C920B091CA20ED91FC91E9
:1012D000119784818823F9F0C0E0EC2FF0E0EE0F45
:1012E000FF1F12968D919C911397E80FF91F0190A3
:1012F000F081E02D0084F185E02D309709F009950B
:10130000CF5FA091C920B091CA20ED91FC911197B7
:101310008481C81710F3CF9108950F931F93CF9333
:10132000DF93EEE6F4E2128613861486158616869F
:101330001786808188233CF4209174243091752491
:10134000232B09F454C38076803409F0F2C0E09175
:101350006F248E2F90E0FC01E05AF109E830F1058E
:1013600008F0DEC0E250FF4F0C947B1481E08093C4
:10137000BC2041C3E0E0F8E01082CEE6D4E28A81EE
:101380009B8186AB97AB8C818F7080836E817F81D0
:101390008EE692E2E0D68E819F81209106203091E8
:1013A00007208217930709F426C3809306209093A1
:1013B0000720E09102208E2F90E08830910508F000
:1013C000B1C0FC01EA5FFE4F0C947B148BD913C3B0
:1013D000E9D911C35FDA0FC3D2DA0DC34CDB0BC3FB
:1013E000C0DB09C306DC07C366DC05C3E0E4F8E044
:1013F0001082CEE6D4E28A819B8186AB97AB8C814A
:101400008F7080836E817F818EE794E2A4D68E8177
:101410009F8120910420309105208217930709F4C1
:10142000EAC28093042090930520E09102208E2F41
:1014300090E08830910508F077C0FC01E25FFE4F34
:101440000C947B144FD9D7C2ADD9D5C223DAD3C2FD
:1014500096DAD1C210DBCFC284DBCDC2CADBCBC2ED
:101460002ADCC9C21092680910926909809170241F
:101470008093BF20C0C28091702480932406BBC299
:10148000E0917024F0917124E830F10508F04EC02D
:10149000EA5EFE4F0C947B1460E080E091D880916E
:1014A00072245CD81FD9A7C260E080E089D88091FF
:1014B000722454D877D99FC261E081E081D8CEE60A
:1014C000D4E28C814BD88D815ED8E4D994C257DAAE
:1014D00092C2D1DA90C260E080E072D8809172242A
:1014E0003DD83FDB88C261E080E06AD880917224F9
:1014F00035D87FDB80C262E080E062D880917224C0
:1015000080682CD8D8DB77C28091702480938406C1
:1015100072C2E9E7F0E091E088EDF89484BF90832F
:1015200080E005C081E003C081E001C080E081115E
:1015300065C280916E24982F907609F0E1C18823CE
:101540000CF005C1209174243091752421153105CA
:1015500009F4D6C18F7109F0A3C090916F24963021
:1015600079F0983009F492C091119AC02230310577
:1015700009F0C6C162E070E080ED90E2ECD53DC2BA
:101580008091702490917124292F332722303105C6
:10159000A9F024F42130310541F0A9C123303105EF
:1015A000D9F12F30310551F1A2C1809112209091D3
:1015B0001320DC016C9170E0CED559C0E09112206F
:1015C000F09113202189821708F09AC19927880F7A
:1015D000991F880F991FE0911420F0911520E80FB2
:1015E000F91F80819181FC0162817381B4D5E09102
:1015F0007624F091772482E0818339C0809116208F
:1016000090911720009709F47BC1DC0112966D912F
:101610007C911397A0D52BC099278130910571F04B
:1016200038F0029709F06CC18EE890E228E109C019
:1016300064E070E082EB90E28ED519C087EA90E218
:1016400029E0382FAEE5B0E2E82FF92F819190E044
:101650008D939D938E2F831B8217C0F3622F660F8D
:101660006E5F60935C2070E08CE590E274D5EEE6EE
:10167000F4E286819781228533858217930708F0EB
:10168000BCC18093782490937924B7C1213031056F
:1016900009F036C161E070E08CEC90E25CD5ADC140
:1016A0008130E1F590916F249A30C1F521303105F8
:1016B00009F026C18091CC20882309F421C1C09172
:1016C0007224D09173240091C9201091CA20D801AE
:1016D000ED91FC918481C81708F012C160E08C2F55
:1016E00012DD882309F40CC1CE019927880F991FB8
:1016F000D8011296ED91FC911397E80FF91F019014
:10170000F081E02D86819781FC0109958093CE20A0
:1017100061E070E08EEC90E21ED56FC1823009F07E
:10172000EFC080916F248111E4C02230310509F0AF
:10173000E7C0809172248BD590E08093C520909370
:10174000C62062E070E085EC90E205D556C18F714D
:1017500009F083C090916F24933009F4CCC018F441
:101760009130A1F07AC0953019F0993039F175C0F7
:101770008091742490917524892B09F0C1C08DE764
:1017800098E080937A2490937B2437C180917424CD
:1017900090917524892B09F0B3C0809170249091A9
:1017A0007124019709F0ACC08091D0209091D12094
:1017B0008D7F8093D0209093D1201FC1809174247D
:1017C00090917524892B09F09BC0C2D4882309F419
:1017D00097C020917024309171243327E09112201A
:1017E000F0911320818990E08217930708F488C054
:1017F0003FDD80917024909171248093CC208823C8
:1018000009F4FBC099278150904C880F991F880FCD
:10181000991FE0911420F0911520E80FF91FE09333
:10182000C920F093CA200190F081E02D84818823A3
:1018300009F4E3C0C0E060E08C2FE1DC882309F408
:101840005FC0CF5FE091C920F091CA200190F08184
:10185000E02D8481C81778F3D0C08130E1F49091F5
:101860006F249B30C1F48091742490917524892B4E
:1018700009F046C08091CC20882309F441C0EEE6EF
:10188000F4E2C481D2818C2F78DC8823C9F16D2FDA
:101890008C2FB5DC33C0823099F580916F24813074
:1018A00019F0833089F029C08091742490917524B7
:1018B000892B31F58091702490917124892B01F549
:1018C00080917224DFD41AC0809174249091752481
:1018D000892BB1F48091702490917124892B81F42B
:1018E000CEE6D4E28C81BDD58C8120D607C080E0C5
:1018F00005C080E003C080E001C080E081117EC0AF
:1019000080916E248F71813071F58091CC20882375
:1019100051F10091722410917324C091C920D0918B
:10192000CA20E881F98184810817E8F460E0802FFB
:10193000EADB8823C1F0F801FF27CF01880F991F48
:10194000EA81FB81E80FF91FC081D181EE81FF811F
:101950000995682F802FD7DB882329F0EC81FD8142
:10196000099581114BC080916E248F71823009F0EE
:1019700040C08091CC208823B1F1A091C920B091C2
:10198000CA20ED91FC9111978481882371F1C0E008
:10199000EC2FF0E0EE0FFF1F12968D919C911397A4
:1019A000E80FF91F00811181D8011696ED91FC9185
:1019B00017970995682F8C2FA6DB8823F9F0D8019B
:1019C0001496ED91FC9115970995811117C0CF5F81
:1019D000A091C920B091CA20ED91FC9111979481FA
:1019E000C917B0F20BC080E009C080E007C080E0FA
:1019F00005C080E003C081E001C081E0DF91CF91AC
:101A00001F910F9108951BBEFC0128ED24BF608338
:101A100008954091CA01E62FF72F8093CA0184915F
:101A20004093CA010895811122C0909164229923A4
:101A3000D9F090915D2E911101C0FFCF2FB7F8948E
:101A4000ECE5FEE29181915091832FBF0DC0909102
:101A50005D2E9F3F09F4FFCF2FB7F894ECE5FEE22F
:101A600091819F5F91832FBF80936422089590910D
:101A70006422992361F3F8CF0F93E8ECF4E08081BE
:101A80008F7D808380818F7D8083E8E2F2E202E0B7
:101A9000059310922A2210922B2200E2069300E472
:101AA0000693E0E2F2E200E2069300E40693EEE63B
:101AB000F4E214861586168617861286138610920F
:101AC0000D220F9108950F9385E080930D22E9E296
:101AD000F2E204E00593E1E2F2E204E005930F9103
:101AE00008950F9383E080930D2210922A22109282
:101AF0002B22E8E2F2E202E006930F910895E091D2
:101B00007A24F0917B24309709F0099508950F937A
:101B1000CF93DF9380910D22833019F4F0DFACDF97
:101B20005EC08091092290910A22C0917824D091C0
:101B30007924C81BD90B71F520910B2230910C220E
:101B4000820F931F80930B2290930C222091742478
:101B5000309175248217930721F08091D220882339
:101B600041F084E080930D22E0E2F2E202E006938D
:101B700036C0E0917C24F0917D24309799F009954E
:101B8000882381F01092092210920A22C0917824B1
:101B9000D0917924C034D10528F01092D220C0E42D
:101BA000D0E003C081E08093D220E0E1F2E2C28F76
:101BB000D38F8091092290910A222091762430912E
:101BC0007724280F391F248F358FC80FD91FC09352
:101BD0000922D0930A22E8E2F2E202E00693DF91C2
:101BE000CF910F910895FC018181E82FE7708E2F2E
:101BF00090E0FC013197E730F105C0F4E25EFE4F62
:101C00007AC680E190E0089580E290E0089580E453
:101C100090E0089580E890E0089580E091E00895D4
:101C200080E092E008958FEF93E0089588E090E0DF
:101C30000895282F2F7030E0220F331F082E000C3C
:101C4000990B8827990F881F9927820F931F029756
:101C50009C01220F331F220F331F220F331F820FCD
:101C6000931F8D569E4D08950F93CF938091CC0472
:101C700080FF62C081E08093CC04E0E2F2E200E801
:101C80000693E8E2F2E200E806938093CA04E0E2F9
:101C9000F2E200E1069380910D22882329F083501F
:101CA000823008F42CDFE8DE8091222290912322FA
:101CB000089709F043C088E0E9ECF1E2AEE6B4E24F
:101CC00001900D928A95E1F7E8ECF4E08081806262
:101CD000808380818062808320DBC82F811103C0D4
:101CE000F2DEC1E02CC080916E2488236CF4109247
:101CF0000B2210920C221092092210920A2282E0EA
:101D000080930D2204DF1BC0809174249091752470
:101D1000892B11F4E6DE13C010920B2210920C22D4
:101D20001092092210920A2281E080930D22E0E2B3
:101D3000F2E202E0069303C0C0E001C0C1E08C2FD4
:101D4000CF910F9108958F929F92AF92BF92DF92A1
:101D5000EF92FF920F931F93CF93DF93D82E69DFFB
:101D60008C01BD2CBB1CBB24BB1CCD2DCF70D0E087
:101D7000CC0FDD1FCB0DD11DCE01880F991F880F11
:101D8000991F880F991F9C01205E3D4D7901C90163
:101D90002ADF4C01BB2009F470C0FE01EE0FFF1FCB
:101DA000EE0FFF1FEE0FFF1FE05FFD4D2689378905
:101DB000D80115968D919C911697820F931F1596B9
:101DC0008D939C93169713962D913C91149782179F
:101DD000930709F43CC0281B390B2115B4E03B07DD
:101DE00038F02FEF33E0C901B40171D5281B390B4E
:101DF000F801808181FF09C0C901B40168D541E0C3
:101E0000892B09F040E0842F01C080E0D8019C912B
:101E100080FB91F99C93CC0FDD1FCC0FDD1FCC0F05
:101E2000DD1FC05FDD4D1E8A1F8A2A8B3B8B1196FA
:101E30002D913C91129715968D919C911697820F3A
:101E4000931F8C8B9D8BF70102E00693CAC0D801CB
:101E50008C9181FFB3C08D7F8C93CC0FDD1FCC0F95
:101E6000DD1FCC0FDD1FC05FDD4D1E8A1F8A1A8A61
:101E70001B8AF70102E00693B4C0FE01EE0FFF1FBC
:101E8000EE0FFF1FEE0FFF1FE05FFD4DA288B3882E
:101E9000D8018C9182FF19C01196ED91FC91129797
:101EA00015962D913C91169713968D919C911497B0
:101EB000B4010DD5B0E4DB9EB00111246D567F4D09
:101EC000AC01CF01820F931F1CD5F801258136810B
:101ED0002A0D3B1D258336838381948182179307C6
:101EE00068F485839683CC0FDD1FCC0FDD1FCC0FEC
:101EF000DD1FC05FDD4D8E899F8960C0FE01EE0F42
:101F0000FF1FEE0FFF1FEE0FFF1FE05FFD4D468925
:101F100057894A155B0509F051C02817390709F49C
:101F20004DC0AC01421B530B9A01211554E03507FB
:101F300050F02FEF33E0C901B401C9D4D901A81B77
:101F4000B90BCD0107C0C901B401C1D4F901E81B27
:101F5000F90BCF01FE01EE0FFF1FEE0FFF1FEE0F7B
:101F6000FF1FE05FFD4D128A138A8815990578F4EA
:101F7000D8018C9184608C93B0E4DB9EC001112465
:101F80008D569F4D848B958B868A978A13C0F80156
:101F90004181528125813681240F351FCC0FDD1FF1
:101FA000CC0FDD1FCC0FDD1FC05FDD4D2C8B3D8BBB
:101FB0008E8B9F8BF70102E0069313C0D8018C91A2
:101FC00080FF0FC08E7F8C931796ED91FC91189730
:101FD000309739F015966D917C9116974D2D80E0D4
:101FE0000995DF91CF911F910F91FF90EF90DF90B6
:101FF000BF90AF909F908F900895CF93CFB7F894F4
:1020000081E011DDEAECF4E080E4808380E280830B
:10201000E1ECF4E0808181608083A9ECB4E08C91F4
:1020200082608C93E8ECF4E08081806480838C9102
:1020300081608C93808180688083CFBFCF91089529
:10204000CF93DF93C0E6D0E0188280E30E94B6070A
:10205000E0ECF4E080818064808381E08883CFB706
:10206000F89480E090E0FC01EE0FFF1FEE0FFF1FE1
:10207000EE0FFF1FE05FFD4D118A0196883091053C
:1020800091F7E3E9F1E280818E7F8083ECE9F1E270
:1020900080818E7F8083E5EAF1E280818E7F80837C
:1020A000EEEAF1E280818E7F8083E7EBF1E28081CE
:1020B0008E7F8083E0ECF1E280818E7F80836AE115
:1020C00070E082E0A6DC8F3F19F08093FA0403C031
:1020D0008FE18093FA046BE170E082E09ADC8F3F3D
:1020E00019F08093FB0403C08FE18093FB04E0ECC4
:1020F000F4E0808183608083808180688083808138
:102100008061808380E292E286839783808180620F
:1021100080838FEF8093C504E8ECF4E080818260D7
:102120008083109264228091612E8F3F09F4FFCF4B
:102130009FB7F894ECE5FEE285818F5F85839FBFB2
:102140005CDFCFBFDF91CF9108958093C3040895E2
:102150008091C3040895EEE6F4E280879187628758
:1021600073870895282F2F7030E0220F331F082E19
:10217000000C990B8827990F881F9927820F931FAE
:10218000FC01EE0FFF1FEE0FFF1FEE0FFF1FE05FC2
:10219000FD4D2189207C09F058C06370613011F039
:1021A00018F404C020EC03C020E801C020E440384B
:1021B0005105E9F050F440325105A9F04034510581
:1021C000A1F040315105D9F40CC0411532E053075C
:1021D00091F04F3F33E0530781F04115514079F4BE
:1021E00008C041E00DC042E00BC043E009C044E03C
:1021F00007C045E005C046E003C047E001C040E03D
:10220000FC01EE0FFF1FEE0FFF1FEE0FFF1FE05F41
:10221000FD4D118ADC01AA0FBB1FAA0FBB1FAA0F1D
:10222000BB1FA05EBD4D36E03C93242B218B880F55
:10223000991F880F991F880F991FFC01E05FFD4DC2
:1022400081898062818B81E0089580E00895E82F84
:10225000EF70F0E0EE0FFF1F082E000C990B88279F
:10226000990F881F9927E80FF91FEE0FFF1FEE0F38
:10227000FF1FEE0FFF1FE05FFD4D818982FB882766
:1022800080F90895282F2F7030E0A901440F551FC1
:10229000282F082E000C330B2227330F221F332741
:1022A000240F351FF901EE0FFF1FEE0FFF1FEE0F7A
:1022B000FF1FE05FFD4D918992FF17C0220F331F72
:1022C000220F331F220F331FF901E05FFD4D91896B
:1022D0009B7F918BAEDCFC01808180FF06C08E7FEE
:1022E00080830780F085E02D099581E008957F9235
:1022F0008F929F92AF92BF92CF92DF92EF92FF9216
:102300000F931F93CF93DF93982E862E6A01790146
:1023100090DC5C01792C771C7724771CC92DCF7059
:10232000D0E0CC0FDD1FC70DD11DFE01EE0FFF1F4A
:10233000EE0FFF1FEE0FFF1FE05FFD4D8189807CD8
:1023400009F47DC0FE01EE0FFF1FEE0FFF1FEE0F21
:10235000FF1FE05FFD4D8189807C803C61F0FE01C4
:10236000EE0FFF1FEE0FFF1FEE0FFF1FE05FFD4D93
:10237000818982FD66C08FB7F894F501908190FF46
:1023800003C08FBF712C5EC0F50190819160908376
:102390008FBFC182D282E382F482158216820783C4
:1023A0001087811006C091E0E114F10419F090E06B
:1023B00001C091E0F501808190FB81F98B7F8083E2
:1023C000772059F0CC0FDD1FCC0FDD1FCC0FDD1FA8
:1023D000C05FDD4D1E8A1F8A2DC0FE01EE0FFF1F5C
:1023E000EE0FFF1FEE0FFF1FE05FFD4D8189807C28
:1023F000803CA1F4CE01880F991F880F991F880F88
:10240000991F805E9D4DEFDBBC01C70160D2892B17
:1024100029F0F50180818E7F808314C0CC0FDD1FF1
:10242000CC0FDD1FCC0FDD1FC05FDD4D1A8A1B8A6C
:102430001E8A1F8A892D87DC7724739403C0712C30
:1024400001C0712C872DDF91CF911F910F91FF90CB
:10245000EF90DF90CF90BF90AF909F908F907F9044
:102460000895FF920F931F93CF93DF93182FF82EA9
:10247000FF1CFF24FF1CC82FCF70D0E0CC0FDD1F46
:10248000CF0DD11DD6DBDC01FE01EE0FFF1FEE0FDD
:10249000FF1FEE0FFF1FE05EFD4D02E005938C91E4
:1024A00080FF22C08E7F8C931796ED91FC91189738
:1024B0003097D1F0FF2059F0CC0FDD1FCC0FDD1F7E
:1024C000CC0FDD1FC05FDD4D6E897F890AC0CC0F48
:1024D000DD1FCC0FDD1FCC0FDD1FC05FDD4D6A8916
:1024E0007B89412F81E00995DF91CF911F910F9159
:1024F000FF900895CF93C82FB4DFEC2FEF70F0E07A
:10250000EE0FFF1F8C2FCC0F990B8827990F881F78
:102510009927E80FF91FEE0FFF1FEE0FFF1FEE0FB9
:10252000FF1FE05FFD4D118ACF9108950F93E82FB3
:10253000EF70F0E0EE0FFF1F282F082E000C330B7A
:102540002227330F221F3327E20FF31FDF01AA0FC9
:10255000BB1FAA0FBB1FAA0FBB1FA05FBD4D51968B
:102560009C915197946051969C93EE0FFF1FEE0F34
:10257000FF1FEE0FFF1FE05EFD4D01E0069371DFD0
:1025800081E00F9108951F920F920FB60F921124C0
:102590000F932F933F934F935F936F937F938F93FB
:1025A0009F93AF93BF93EF93FF938091CB048823C6
:1025B00044F480E88093CA040E945D090E944202AC
:1025C0008AC08091CB0482FF20C084E08093CA043B
:1025D0008091282286FF7FC08091CC0481FD7BC042
:1025E00043DB811178C080910D22813011F479DABA
:1025F00072C0843009F06FC0E9E2F2E204E00593B2
:10260000E1E2F2E204E0059366C08091CB0481FF31
:102610005DC082E08093CA048091202286FF5BC067
:102620008091CC0481FD57C01FDB811154C0809183
:102630000D22823041F484E080930D22E0E2F2E248
:1026400002E0069348C0833009F045C0E9E2F2E2B7
:1026500004E00593E1E2F2E204E005933CC080E18E
:102660008093CA0481E0FDDE81E8FBDE82E0F9DED2
:1026700082E8F7DE0E9438091092C304E0E1F2E23A
:10268000118A96E0908B83E4818B118E908F818FDD
:1026900089EC91E2848B958BEFD91DC08091CB049E
:1026A00086FF08C080E48093CA0480E0BCD90E9401
:1026B000400211C08091CB0485FF0DC080E2809361
:1026C000CA0481E0B0D90E94410205C08091CB04C8
:1026D00084FDC5CFE3CFFF91EF91BF91AF919F9163
:1026E0008F917F916F915F914F913F912F910F91BA
:1026F0000F900FBE0F901F9018951F920F920FB65C
:102700000F9211240F931F932F933F934F935F9337
:102710006F937F938F939F93AF93BF93CF93DF93E9
:10272000EF93FF938091CC0481FD03C09DDA81116A
:10273000B9C082E08093CC048091C5048195880F54
:10274000E0E2F2E2E81BF1092081318120523242BD
:10275000369527953695279536952795822F869518
:1027600020FD02C090E001C090E8890FE82FEF70D3
:10277000F0E0EE0FFF1F282F082E000C330B22274E
:10278000330F221F3327E20FF31FDF01AA0FBB1FF6
:10279000AA0FBB1FAA0FBB1FA05EBD4D9C9195FF4A
:1027A00081C0FD0100E20693811177C080910D2266
:1027B000843019F4A4D960D975C0009122221091F7
:1027C00023228091782490917924C0910922D0917C
:1027D0000A229E01200F311F8217930718F48C01E3
:1027E0000C1B1D0B8091762490917724A80169EC35
:1027F00071E28C0F9D1F85D0C00FD11FC09309229D
:10280000D0930A220034110569F480910B22909133
:102810000C228C0F9D1F20917424309175248217F7
:10282000930780F0EEE6F4E2C287D3870684F7854B
:10283000E02D309729F00995811102C044D932C0AA
:1028400050D930C08091782490917924C817D90745
:10285000F9F4E0917C24F0917D24309711F433D980
:1028600021C00995811102C02ED91CC020910B22D4
:1028700030910C228091092290910A22820F931F9D
:1028800080930B2290930C221092092210920A221C
:10289000E0E2F2E202E0069305C0803811F437D995
:1028A00001C051DAFF91EF91DF91CF91BF91AF91CC
:1028B0009F918F917F916F915F914F913F912F9158
:1028C0001F910F910F900FBE0F901F901895AA1B8C
:1028D000BB1B51E107C0AA1FBB1FA617B70710F00B
:1028E000A61BB70B881F991F5A95A9F7809590953D
:1028F000BC01CD010895EE0FFF1F0590F491E02D6E
:102900000994FB01DC0102C001900D92415050403E
:08291000D8F70895F894FFCFF9
:10291800E02EFF5580008000F007FB070108ED0757
:10292800000048201820000020201C20082000005B
:102938000902270001010080FA0904000003FFFFD3
:10294800FF0007058101000101070582010001015F
:102958000705830100010100120100020000004088
:10296800EB0300A0000201020001000000030000C8
:10297800000000000000000000000000000000004F
:10298800000000000000000000000000000000003F
:102998000000000000000000000000000000555387
:1029A80042476F62696E6461722044756D6D79206B
:1029B800446576696365005461706972546563683B
:0629C800000004030904F5
:00000001FF
