S01500005553425F42554C4B5F544553542E73726563F9
S11300002CC1000046C1000044C1000042C10000F0
S113001040C100003EC1000012C6000048C70000F5
S1130020B5C70000F4C7000034C1000032C10000AD
S113003030C100002EC100002CC100002AC1000004
S113004028C1000026C1000024C1000022C1000014
S113005020C100001EC100001CC100001AC1000024
S11300600C942E0916C1000014C1000012C1000036
S113007010C100000EC100000CC100000AC1000044
S113008008C1000006C1000004C1000002C1000054
S113009000C10000FEC00000FCC00000FAC0000067
S11300A0F8C00000F6C00000F4C00000F2C0000078
S11300B0F0C00000EEC00000ECC00000EAC0000088
S11300C0E8C00000E6C00000E4C00000E2C0000098
S11300D0E0C00000DEC00000DCC00000DAC00000A8
S11300E0D8C00000D6C00000D4C00000D2C00000B8
S11300F0D0C00000CEC00000CCC00000CAC00000C8
S1130100C8C00000C6C00000C4C00000C2C00000D7
S1130110C0C00000BEC00000BCC00000BAC00000E7
S1130120B8C00000B6C00000B4C00000B2C00000F7
S1130130B0C00000AEC00000ACC00000AAC0000007
S1130140A8C00000A6C00000A4C00000E7C70000CB
S1130150A0C000009EC000009CC000009AC0000027
S113016098C0000096C0000094C0000092C0000037
S113017090C000008EC000008CC000008AC0000047
S113018088C0000086C0000084C0000082C0000057
S113019080C000007EC000007CC000007AC0000067
S11301A078C0000076C0000074C0000072C0000077
S11301B070C000006EC000006CC000006AC0000087
S11301C068C0000066C0000064C0000062C0000097
S11301D060C000005EC000005CC000005AC00000A7
S11301E058C0000056C0000054C0000052C00000B7
S11301F050C000000C94DA140C9494153D06640667
S11302008B06B206D906490700072507B70BB90BB9
S1130210F80B380C410C460C9B0CA00CE50BE80BBE
S1130220EB0BEE0BF00BF20BF40BF60B240C270C80
S11302302A0C2D0C300C320C340C360C520C5D0C88
S1130240680C770C7A0C7C0C860C900C18101B1024
S11302501E102110241027102A1011241FBECFEFC6
S1130260CDBFDFE2DEBF10E2A0E0B0E2E6E4FDE2F3
S113027002C005900D92A23BB107D9F72CE2A2EB84
S1130280B0E201C01D92A035B207E1F753D00C943F
S1130290A116B6CEE0E7F0E085818E7F8583E0E0AD
S11302A0FAE080EC9DE586A397A380EE9EE280A30E
S11302B091A381E080830895E0E8F6E08FE08083F5
S11302C085E08483089508954091B5202EEE32E0B0
S11302D0429FC001439F900D112444E651E06AEF10
S11302E070E08259994D0C94280A08954091B520E4
S11302F02EEE32E0429FC001439F900D112446E749
S113030051E06AEF70E08859984D0C94340A0895CE
S11303104091B5202EEE32E0429FC001439F900DE4
S1130320112448E851E06AEF70E08E59974D0C941F
S1130330400A089587E08093A20078949AD7C3DF97
S11303400E94370BDFD002D160E080E09ED08AD0DB
S11303508CE07ED0A1D65CD773D7AEDF80915A22D1
S113036090915B22A0915C22B0915D220196A11D27
S1130370B11D813021EE920725EFA20725E0B207D7
S113038018F080E090E0DC010000000000000000B4
S11303900000000000000000000000000000000059
S11303A000000000E3CF089508958091B3208823CE
S11303B039F070DF1092B32081E08093B22005C041
S11303C08091B220882309F000009091B72081E049
S11303D0911180E08093B520089581E08093B82046
S11303E08093B32044E651E06EEE72E08EE696E22E
S11303F00E94280A46E751E06EEE72E088E697E232
S11304000E94340A48E851E06EEE72E082E698E217
S11304100E94400A81E008951092B820089581E076
S1130420089581E00895E0E0F2E010A2982F9C7115
S1130430936890A388231CF490E182E002C090E0CA
S113044080E0892BE0E0F2E081A312A216A20895D5
S1130450E0E0F2E010AA836880AB80E181AB12AAED
S113046016AA0895E0E0F2E010A683E880A78FE2E0
S113047081A712A616A60895AAECB1E092E09C9377
S1130480E82FF0E084911C920895CF93DF93E0E786
S1130490F0E091819D7F918310920002623031F1EE
S11304A0E0E0F2E09CE1918390E49283811102C048
S11304B080E401C080EC80930302613011F083E09A
S11304C001C082E0C0E0D2E08C8380E2D5DF8C877B
S11304D081E2D2DF8D87188E198E81E08883C2DF96
S11304E00EC080EC8093030283E0ECCFE0E0F2E006
S11304F09EE1918390E492838111F3CFD9CFDF9170
S1130500CF910895CF93DF93E0E7F0E082818B7F72
S11305108283C0E2D3E08DE0888380E4898389E02C
S11305208A8383E3A9DF888782E3A6DF898787E359
S1130530A3DF8A8786E3A0DF8B87E0E2F6E0808191
S1130540836080831482DF91CF910895E0E7F0E027
S113055080818E7F808383E8809300010895E0E0AA
S1130560F1E0108A80E4808B10A280A310AA80ABF3
S1130570E0E4F1E0108280831092B7201092B6205C
S1130580089510920020EBDFE0E0F1E016AA94E277
S113059090AB11AA49E542AB32E033AB6091022043
S11305A07091032064AB75AB6EE674E260AF71AF1B
S11305B012AE8BE384AF83E080933D0110923E0141
S11305C020A9206820AB10924601A0E4B1E09C93DE
S11305D010924101409342018093430140910420D1
S11305E05091052040934401509345014EE552E259
S11305F0409348015093490110924A0129E3209302
S11306004C0180934D0110924E012C9120682C9343
S1130610108A20E4208B24E0208B818B81E9828B5B
S113062080E1838B47E751E0448B558B908F318F6A
S1130630128E4091B7202EEE32E0429FC001439FBC
S1130640900D11248259994D848F4091B720429F77
S1130650C001439F900D11248259994D958F168E98
S113066080898068808B0895CF93DF9381E08093A5
S1130670002075DFE0E0F1E010AA80E480AB94E0B4
S113068090AB11AA12AA5BE453AB14AA15AA16AA3A
S113069021E030E220AF31AF12AE40EA44AF38E09F
S11306A030933D0110923E0180A9806A80AB85E5BC
S11306B08093A00810924601A0E4B1E0D4E2DC9358
S11306C01092410189E580934201C2E0C093430145
S11306D0609102207091032060934401709345015E
S11306E06EE674E2609348017093490110924A01E6
S11306F08BE380934C0183E080934D0110924E0173
S11307002C9120682C93908B818BA1E9A28B20E102
S1130710238B67E771E0648B758BD08FC18F128E4A
S1130720CEE6D6E2C48FD58F168E20892068208B22
S113073090A381A3A2A353A364A375A340A731A745
S113074012A685EE97E284A795A716A680A18068D5
S113075080A3DF91CF910895CF93F894C2E0C09322
S11307600020FDDEE0E0F1E016AA94E290AB11AACD
S113077039E532AB83E083AB4091042050910520EE
S113078044AB55AB4EE552E240AF51AF12AE29E354
S113079024AF80933D0110923E0120A9206820AB34
S11307A010924601A0E4B1E09C9310924101309371
S11307B04201C093430120910220309103202093F1
S11307C04401309345012EE634E2209348013093EE
S11307D0490110924A012BE320934C0180934D016F
S11307E010924E012C9120682C9354E0508B818BF5
S11307F041E9428B20E1238B27E731E0248B358BC1
S1130800908FC18F128E6EE676E2648F758F168E8E
S113081090899068908B50A381A342A382E183A323
S113082024A335A384E380A7C1A712A685EE97E28B
S113083084A795A716A680A1806880A37894CF91F9
S11308400895CF93C3E0C093002089DEE0E0F1E097
S113085010A250E450A344E040A311A212A23BE42E
S113086033A314A215A216A281E090E280A791A757
S113087012A620EA24A798E095A716A680A1806A6C
S113088080A385E58093A00816AA74E270AB11AA30
S113089069E562ABC3ABA0910420B0910520A4AB81
S11308A0B5ABAEE5B2E2A0AFB1AF12AE89E384AFAF
S11308B0C0933D0110923E0180A9806880AB1092E4
S11308C04601A0E4B1E07C9310924101609342019F
S11308D082E0809343016091022070910320609331
S11308E04401709345016EE674E26093480170938D
S11308F0490110924A018BE380934C01C0934D014E
S113090010924E018C9180688C93108A508B408B8E
S1130910C18B81E9828B338B47E751E0448B558B44
S1130920208F918F128E8EE696E2848F958F168E8D
S113093080898068808BCF910895CF93C4E0C09361
S113094000200DDEE0E0F1E010A280E480A3C0A36B
S113095011A212A24BE443A314A215A216A281E091
S113096090E280A791A712A660EA64A788E085A711
S113097016A690A1906A90A395E59093A008109272
S11309804601A0E4B1E094E29C931092410199E500
S11309909093420192E09093430120910220309180
S11309A0032020934401309345012EE634E2209342
S11309B048013093490110924A019BE390934C0102
S11309C093E090934D0110924E012C9120682C934A
S11309D0C08B918B31E9328B438B47E751E0448BD9
S11309E0558B608F818F128E6EE676E2648F758FE1
S11309F0168E20892068208BC0AB91AB32AB9AE471
S1130A0093AB44AB55AB93EC90AF81AF12AE85EE94
S1130A1097E284AF90933D0110923E0180A98068D3
S1130A2080ABCF91089585E08093002098DDE0E0CD
S1130A30F1E016AA34E230AB11AA29E522AB83E037
S1130A4083AB409104205091052044AB55AB4EE557
S1130A5052E240AF51AF12AE99E394AF80933D019F
S1130A6010923E0190A9906890AB10924601E0E488
S1130A70F1E03083109241012093420180934301BD
S1130A8020910420309105202093440130934501A6
S1130A902EE634E2209348013093490110924A0132
S1130AA09BE390934C0180934D0110924E01808101
S1130AB080688083089586E08093002050DDE0E024
S1130AC0F1E016AA94E290AB11AA39E532AB83E0C7
S1130AD083AB409104205091052044AB55AB4EE5C7
S1130AE052E240AF51AF12AE29E324AF80933D01EF
S1130AF010923E0120A9206820AB10924601A0E488
S1130B00B1E09C93109241013093420132E0309362
S1130B10430140910220509103204093440150939B
S1130B2045014EE654E24093480150934901109226
S1130B304A012BE320934C0180934D0110924E0106
S1130B402C9120682C93108A20E4208B24E0208BA5
S1130B50818B81E9828B80E1838B4EEE52E0448B62
S1130B60558B908F318F128E8EE696E2848F958FFF
S1130B70168E80898068808B089587E0809300209A
S1130B80EEDCE0E0F1E016AA94E290AB11AA39E5BC
S1130B9032AB83E083AB409104205091052044ABF9
S1130BA055AB4EE552E240AF51AF12AE29E324AF4C
S1130BB080933D0110923E0120A9206820AB109241
S1130BC04601A0E4B1E09C931092410130934201AC
S1130BD032E030934301409102205091032040932E
S1130BE04401509345014EE654E24093480150932A
S1130BF0490110924A012BE320934C0180934D014B
S1130C0010924E012C9120682C93108A20E4208BA2
S1130C1025E0208B818B81E9828B80E1838B4EEEF2
S1130C2052E0448B558B908F318F128E8EE696E274
S1130C30848F958F168E80898068808B08951F928B
S1130C400F920FB60F9211242F933F934F938F93CC
S1130C509F93AF93BF93EF93FF9381E0809303013E
S1130C60E09100208E2F90E08830910508F011C1AA
S1130C70FC01E250FF4F0C949216E0E0F1E087E7AC
S1130C8091E0848B958B4091B7202EEE32E0429F09
S1130C90C001439F900D11248259994D848F409136
S1130CA0B720429FC001439F900D11248259994D52
S1130CB0958F80898068808B9091B72081E0911115
S1130CC080E08093B720E5C0E0E0F1E087E791E0C1
S1130CD0848B958B4091B7202EEE32E0429FC00169
S1130CE0439F900D11248259994D848F4091B720D0
S1130CF0429FC001439F900D11248259994D958FB5
S1130D0080898068808B9091B72081E0911180E088
S1130D108093B720BEC0E0E0F1E087E791E0848BE8
S1130D20958B4091B7202EEE32E0429FC001439F45
S1130D30900D11248259994D848F4091B720429F80
S1130D40C001439F900D11248259994D958F80893C
S1130D508068808B9091B72081E0911180E080932E
S1130D60B72097C0E0E0F1E087E791E0848B958BB2
S1130D704091B7202EEE32E0429FC001439F900D78
S1130D8011248259994D848F4091B720429FC0010C
S1130D90439F900D11248259994D958F80898068C5
S1130DA0808B9091B72081E0911180E08093B720EF
S1130DB070C0E0E0F1E087E791E0848B958B40918F
S1130DC0B7202EEE32E0429FC001439F900D1124C4
S1130DD08259994D848F4091B720429FC001439F0F
S1130DE0900D11248259994D958F80898068808B4C
S1130DF09091B72081E0911180E08093B72049C0A1
S1130E00E0E0F1E02EEE32E0248B358B4091B72008
S1130E10429FC001439F900D11248259994D848FA4
S1130E204091B720429FC001439F900D11248259E5
S1130E30994D958F80898068808B9091B72081E04F
S1130E40911180E08093B72024C0E0E0F1E02EEE21
S1130E5032E0248B358B4091B720429FC001439FE1
S1130E60900D11248259994D848F4091B720429F4F
S1130E70C001439F900D11248259994D958F80890B
S1130E808068808B9091B72081E0911180E08093FD
S1130E90B720FF91EF91BF91AF919F918F914F91A7
S1130EA03F912F910F900FBE0F901F9018951F9296
S1130EB00F920FB60F9211242F933F934F938F935A
S1130EC09F93EF93FF9382E080930301809100202E
S1130ED0813019F0823041F14DC0E0E0F1E087E764
S1130EE091E084A395A34091B6202EEE32E0429F78
S1130EF0C001439F900D11248B51984D84A74091BC
S1130F00B620429FC001439F900D11248B51984DF0
S1130F1095A780A1806880A39091B62081E091116B
S1130F2080E08093B62026C0E0E0F1E087E791E01E
S1130F3084A395A34091B6202EEE32E0429FC001D7
S1130F40439F900D11248B51984D84A74091B62056
S1130F50429FC001439F900D11248B51984D95A73A
S1130F6080A1806880A39091B62081E0911180E0F7
S1130F708093B620FF91EF919F918F914F913F9174
S1130F802F910F900FBE0F901F9018951F920F92E4
S1130F900FB60F9211242F933F934F938F939F93E8
S1130FA0EF93FF93E0E0F1E084E0838387E791E04F
S1130FB084AB95AB4091B6202EEE32E0429FC00147
S1130FC0439F900D11248B51984D84AF4091B620CE
S1130FD0429FC001439F900D11248B51984D9093D3
S1130FE03D0180A9806880AB9091B62081E0911189
S1130FF080E08093B620FF91EF919F918F914F9164
S11310003F912F910F900FBE0F901F9018951F9234
S11310100F920FB60F9211242F933F934F938F93F8
S11310209F93EF93FF9388E08093030187E791E018
S113103080934401909345014091B6202EEE32E016
S1131040429FC001439F900D11248B51984D809372
S11310504C014091B620429FC001439F900D112442
S11310608B51984D90934D01E0E4F1E080818068CC
S113107080839091B62081E0911180E08093B62026
S1131080FF91EF919F918F914F913F912F910F90ED
S11310900FBE0F901F901895E0E7F0E083818C7FDE
S11310A0838384818C7F848380818D7F8083E0E847
S11310B0F1E080EC8283128688EC81831186A0E0C3
S11310C0B8E034E03C9323E011962C9311971496E6
S11310D01C92149785ED91E096968D939C93979727
S11310E016961C921697E0E4F8E03083218314826C
S11310F086A397A31682E0E6F6E080818061808370
S1131100E0E4F9E083E18183148282E08683A6A38C
S1131110B7A310A611A681E0808308951F920F92B1
S11311200FB60F9211242F933F934F935F938F9396
S11311309F93EF93FF93CF93DF931F92CDB7DEB7C7
S11311408FEF80934C0980910020873031F4E0E0E8
S1131150F2E084A5898395A502C090912C02809128
S1131160B420891B209168093091690991E082308B
S11311700CF490E09923C9F091E02A3F374008F03D
S113118090E0992391F020916809309169098930A0
S11311901CF481E090E002C086E090E0820F931F8F
S11311A0809378099093790923C02091680930913C
S11311B0690991E08F3F0CF090E09923C9F091E028
S11311C02730310508F490E0992391F020916809C3
S11311D030916909883F1CF081E090E002C086E00C
S11311E090E0A901481B590B409378095093790961
S11311F00F90DF91CF91FF91EF919F918F915F912C
S11312004F913F912F910F900FBE0F901F90189503
S1131210E0E7F0E083818F7E8383E0E4F6E0808181
S11312208A6A80838FEF848388E5828BE0EAF8E022
S113123084EC858383E08683178288E18483089520
S1131240E0E7F0E08381877F8383E0ECF8E080E4EB
S11312508083118288E58093550608951F920F922A
S11312600FB60F92112400000F900FBE0F901F9025
S113127018950F931F93CF93DF9300D000D0CDB771
S1131280DEB78FEF809370008093710080937200BB
S1131290809373008093740080937500809376002C
S11312A064E081E490E0C6D56CE170E082E0C8D5EA
S11312B08A836DE170E082E0C3D5898389819A8154
S11312C0019621F480E493E289839A8389819A8147
S11312D08B839C83E0E6F0E082838C8183839FB7D9
S11312E0F894E0E5F0E08081826080839FBF818193
S11312F081FFFDCF9FB7F89400E510E0D801169662
S11313008C911697897F16968C931697E0E6F0E0F9
S113131080E885838BEB868316968C911697846080
S113132016968C938081816080839FBF61E080E406
S113133090E080D59FB7F894F80180818E7F8083F8
S11313409FBF2496CDBFDEBFDF91CF911F910F9138
S113135008959FB7F894E82FF0E0E059FF4F6095A7
S11313608081682360839FBF0895863011F060E018
S113137001C068E18091510081FD26C09FB7F894B7
S1131380E0E5F0E08081826080839FBF818181FFFE
S1131390FDCF9FB7F894A0E5B0E016968C91169710
S11313A0897F16968C931697E0E6F0E080E88583B3
S11313B08BEB868316968C911697846016968C9385
S11313C08081816080839FBF636084E490E032D534
S11313D060E480E0BECF08958091B920089542D1A1
S11313E0FC0183818093B920811103C00C94ED0129
S11313F0089581E008958091B920813009F40CC8E2
S1131400089580915E2488234CF480768034B1F46E
S113141080915F24811114C004C8089580768034BB
S113142089F480915F2481110FC08091642490918C
S11314306524892B59F00C940F02089580E00895D7
S113144080E0089580E0089580E0089580E00895A4
S11314500F931F939B018A01AC0160E081E80E9415
S11314608E131F910F9108950F931F939B018A016F
S1131470AC0160E082E80E948E131F910F910895E1
S11314800F931F939B018A01AC0160E083E80E94E3
S11314908E131F910F910895E091BE20F091BF200B
S11314A00190F081E02D228133812E0F3F1FFC013A
S11314B04081E40FF11DE217F307B8F48181843011
S11314C0B9F0861309C005C081818430A1F0861368
S11314D003C08E2F9F2F08958081E80FF11DE2171E
S11314E0F30790F380E090E0089580E090E00895A1
S11314F080E090E0089580E090E008958091602479
S11315008F770C94BC1208959091C020992381F197
S1131510E091BE20F091BF200190F081E02D9481F4
S1131520891740F5E093BC20F093BD2022813381DC
S11315302E0F3F1FE217F307F8F49181943061F402
S11315409281981309C09381961306C0E093BC203E
S1131550F093BD2081E008959081E90FF11DE21719
S1131560F30758F3E093BC20F093BD2080E0089586
S113157080E0089580E0089580E00895EF92FF925E
S11315801F93CF93DF93C82F60E0BEDF182F88230B
S113159081F1A091BE20B091BF20EC2FF0E0EE0FBE
S11315A0FF1F12968D919C911397E80FF91FE0800D
S11315B0F180D7011696ED91FC9117970995682F44
S11315C08C2FA2DF182F8823A1F0C091BC20D091CA
S11315D0BD2065E0CE0160DFEC01892B21F08A811A
S11315E00E949114F6CFD7011296ED91FC911397B6
S11315F00995812FDF91CF911F91FF90EF9008956E
S11316001F93CF93DF93182F7FDF882339F1C09185
S1131610BC20D091BD2065E0CE013EDFEC01892BDA
S113162041F04C815D816B818A81B3D78111F3CF05
S113163015C0A091BE20B091BF20E12FF0E0EE0FC5
S1131640FF1F12968D919C911397E80FF91F01903B
S1131650F081E02D0190F081E02D0995DF91CF918B
S11316601F9108958091BC209091BD200895FFC6DC
S11316700895CF938091C0208823C1F0E091BE20CB
S1131680F091BF200190F081E02D8481882371F0D6
S1131690C0E08C2F73DFCF5FE091BE20F091BF20BC
S11316A00190F081E02D8481C81798F31092C02036
S11316B01092C4201092C520CF910895CF938091A9
S11316C0C020882349F1A091BE20B091BF20ED91A4
S11316D0FC91119784818823F9F0C0E0EC2FF0E0AD
S11316E0EE0FFF1F12968D919C911397E80FF91F2F
S11316F00190F081E02D0084F185E02D309709F010
S11317000995CF5FA091BE20B091BF20ED91FC91CF
S113171011978481C81710F3CF9108950F931F93E5
S1131720CF93DF93EEE5F4E21286138614861586D2
S113173016861786808188233CF420916424309196
S11317406524232B09F46AC38076803409F008C128
S1131750E0915F248E2F90E0FC01E05AF109E8301B
S1131760F10508F0F4C0EA5FFE4F0C9492160000F5
S113177059C3E0E0F8E01082CEE5D4E28A819B818F
S113178086AB97AB8C818F7080836E817F818EE571
S113179092E2F8D68E819F81209104203091052019
S11317A08217930709F43EC3809304209093052085
S11317B0E09100208E2F90E08830910508F0C9C098
S11317C0FC01E25FFE4F0C9492160E94C1022AC3F0
S11317D00E94340327C30E94AC0324C332D822C31B
S11317E0ACD820C320D91EC366D91CC3C6D91AC31A
S11317F0E0E4F8E01082CEE5D4E28A819B8186ABF6
S113180097AB8C818F7080836E817F818EE694E2AA
S1131810B9D68E819F8120910220309103208217B6
S1131820930709F4FFC28093022090930320E09170
S113183000208E2F90E08830910508F08CC0FC01C8
S1131840EA5EFE4F0C9492160E94C102EBC20E9403
S11318503403E8C20E94AC03E5C20E942104E2C240
S11318606CD8E0C2E0D8DEC226D9DCC286D9DAC29E
S11318701092680910926909809160248093B420C1
S1131880D1C28091602480932406CCC2E09160246C
S1131890F0916124E830F10508F05FC0E25EFE4F8C
S11318A00C94921660E080E00E94450280916224CC
S11318B00E9413020E94C102B5C260E080E00E944F
S11318C04502809162240E9413020E943403AAC23A
S11318D061E081E00E944502CEE5D4E28C810E9461
S11318E013028D810E9428020E94AC039BC20E94B5
S11318F0210498C222D896C260E080E00E9445028A
S1131900809162240E9413028ED88CC261E080E030
S11319100E944502809162240E941302CCD882C2A4
S113192062E080E00E9445028091622480680E9407
S1131930130223D977C2809160248093840672C2F3
S1131940E9E7F0E091E088EDF89484BF908380E0CB
S113195005C081E003C081E001C080E0811165C25F
S113196080915E24982F907609F0E1C188230CF0D1
S113197005C120916424309165242115310509F4B1
S1131980D6C18F7109F0A3C090915F24963079F08D
S1131990983009F492C091119AC02230310509F0AF
S11319A0C6C162E070E084EC90E2ECD53DC2809167
S11319B0602490916124292F332722303105A9F026
S11319C024F42130310541F0A9C123303105D9F186
S11319D02F30310551F1A2C1809110209091112036
S11319E0DC016C9170E0CED559C0E0911020F091EB
S11319F011202189821708F09AC19927880F991F0D
S1131A00880F991FE0911220F0911320E80FF91F1D
S1131A1080819181FC0162817381B4D5E091662457
S1131A20F091672482E0818339C0809114209091E1
S1131A301520009709F47BC1DC0112966D917C910D
S1131A401397A0D52BC099278130910571F038F0F8
S1131A50029709F06CC18AE890E228E109C064E0C9
S1131A6070E08EEA90E28ED519C083EA90E229E014
S1131A70382FAAE5B0E2E82FF92F819190E08D93F9
S1131A809D938E2F831B8217C0F3622F660F6E5FA8
S1131A906093582070E088E590E274D5EEE5F4E2B6
S1131AA086819781228533858217930708F0BCC10C
S1131AB08093682490936924B7C12130310509F0DB
S1131AC036C161E070E080EC90E25CD5ADC181305C
S1131AD0E1F590915F249A30C1F52130310509F088
S1131AE026C18091C020882309F421C1C0916224B9
S1131AF0D09163240091BE201091BF20D801ED91B4
S1131B00FC918481C81708F012C160E08C2FFCDCC2
S1131B10882309F40CC1CE019927880F991FD80195
S1131B201296ED91FC911397E80FF91F0190F08143
S1131B30E02D86819781FC0109958093C22061E0A4
S1131B4070E082EC90E21ED56FC1823009F0EFC0E4
S1131B5080915F248111E4C02230310509F0E7C08F
S1131B60809162248BD590E08093BA209093BB201F
S1131B7062E070E08AEB90E205D556C18F7109F0FE
S1131B8083C090915F24933009F4CCC018F4913051
S1131B90A1F07AC0953019F0993039F175C080916F
S1131BA0642490916524892B09F0C1C08EE79AE0E2
S1131BB080936A2490936B2437C18091642490911C
S1131BC06524892B09F0B3C080916024909161242D
S1131BD0019709F0ACC08091C4209091C5208D7FFD
S1131BE08093C4209093C5201FC180916424909158
S1131BF06524892B09F09BC0C2D4882309F497C0BB
S1131C0020916024309161243327E0911020F091D9
S1131C101120818990E08217930708F488C029DD98
S1131C2080916024909161248093C020882309F4DA
S1131C30FBC099278150904C880F991F880F991FDA
S1131C40E0911220F0911320E80FF91FE093BE20D9
S1131C50F093BF200190F081E02D8481882309F462
S1131C60E3C0C0E060E08C2FCBDC882309F45FC0C4
S1131C70CF5FE091BE20F091BF200190F081E02D74
S1131C808481C81778F3D0C08130E1F490915F2447
S1131C909B30C1F48091642490916524892B09F0D0
S1131CA046C08091C020882309F441C0EEE5F4E2E7
S1131CB0C481D2818C2F62DC8823C9F16D2F8C2FD3
S1131CC09FDC33C0823099F580915F24813019F014
S1131CD0833089F029C08091642490916524892BF4
S1131CE031F58091602490916124892B01F58091D4
S1131CF06224DFD41AC08091642490916524892BD6
S1131D00B1F48091602490916124892B81F4CEE513
S1131D10D4E28C81BDD58C8120D607C080E005C07B
S1131D2080E003C080E001C080E081117EC080912A
S1131D305E248F71813071F58091C020882351F128
S1131D400091622410916324C091BE20D091BF20E1
S1131D50E881F98184810817E8F460E0802FD4DBFE
S1131D608823C1F0F801FF27CF01880F991FEA816A
S1131D70FB81E80FF91FC081D181EE81FF810995B4
S1131D80682F802FC1DB882329F0EC81FD81099520
S1131D9081114BC080915E248F71823009F040C064
S1131DA08091C0208823B1F1A091BE20B091BF20C2
S1131DB0ED91FC9111978481882371F1C0E0EC2F9F
S1131DC0F0E0EE0FFF1F12968D919C911397E80F90
S1131DD0F91F00811181D8011696ED91FC91179796
S1131DE00995682F8C2F90DB8823F9F0D80114967D
S1131DF0ED91FC9115970995811117C0CF5FA091C2
S1131E00BE20B091BF20ED91FC9111979481C91728
S1131E10B0F20BC080E009C080E007C080E005C0DC
S1131E2080E003C081E001C081E0DF91CF911F9188
S1131E300F9108951BBEFC0128ED24BF6083089513
S1131E404091CA01E62FF72F8093CA0184914093F1
S1131E50CA010895811122C0909158229923D9F082
S1131E6090914B2C911101C0FFCF2FB7F894EAE465
S1131E70FCE29181915091832FBF0DC090914B2C26
S1131E809F3F09F4FFCF2FB7F894EAE4FCE2918175
S1131E909F5F91832FBF8093582208959091582279
S1131EA0992361F3F8CF0F93E8ECF4E080818F7D00
S1131EB0808380818F7D8083ECE1F2E202E00593F0
S1131EC010921E2210921F2200E2069300E4069351
S1131ED0E4E1F2E200E2069300E40693EEE5F4E2C4
S1131EE0148615861686178612861386109201228A
S1131EF00F9108950F9385E080930122EDE1F2E2C2
S1131F0004E00593E5E1F2E204E005930F910895FE
S1131F100F9383E08093012210921E2210921F22BD
S1131F20ECE1F2E202E006930F910895E0916A2455
S1131F30F0916B24309709F0099508950F93CF938E
S1131F40DF9380910122833019F4F0DFACDF5EC0AF
S1131F508091FD219091FE21C0916824D091692443
S1131F60C81BD90B71F52091FF2130910022820FFB
S1131F70931F8093FF219093002220916424309139
S1131F8065248217930721F08091C620882341F0AD
S1131F9084E080930122E4E1F2E202E0069336C099
S1131FA0E0916C24F0916D24309799F00995882381
S1131FB081F01092FD211092FE21C0916824D091ED
S1131FC06924C034D10528F01092C620C0E4D0E0C2
S1131FD003C081E08093C620E4E0F2E2C28FD38F95
S1131FE08091FD219091FE212091662430916724F7
S1131FF0280F391F248F358FC80FD91FC093FD2197
S1132000D093FE21ECE1F2E202E00693DF91CF915E
S11320100F910895FC018181E82FE7708E2F90E0E5
S1132020FC013197E730F105C0F4EA5DFE4F7AC652
S113203080E190E0089580E290E0089580E490E0EB
S1132040089580E890E0089580E091E0089580E0AC
S113205092E008958FEF93E0089588E090E008956A
S1132060282F2F7030E0220F331F082E000C990BFD
S11320708827990F881F9927820F931F02979C0125
S1132080220F331F220F331F220F331F820F931F80
S113209089579E4D08950F93CF938091CC0480FF70
S11320A062C081E08093CC04E4E1F2E200E80693AC
S11320B0ECE1F2E200E806938093CA04E4E1F2E280
S11320C000E1069380910122882329F08350823015
S11320D008F42CDFE8DE80911622909117220897ED
S11320E009F043C088E0EDEBF1E2AEE5B4E2019023
S11320F00D928A95E1F7E8ECF4E0808180628083B8
S11321008081806280830ADBC82F811103C0F2DEE4
S1132110C1E02CC080915E2488236CF41092FF21CE
S1132120109200221092FD211092FE2182E08093F1
S1132130012204DF1BC08091642490916524892BC3
S113214011F4E6DE13C01092FF21109200221092C7
S1132150FD211092FE2181E080930122E4E1F2E26C
S113216002E0069303C0C0E001C0C1E08C2FCF9110
S11321700F9108958F929F92AF92BF92DF92EF9248
S1132180FF920F931F93CF93DF93D82E69DF8C01B7
S1132190BD2CBB1CBB24BB1CCD2DCF70D0E0CC0F01
S11321A0DD1FCB0DD11DCE01880F991F880F991FFC
S11321B0880F991F9C012C5E3D4D7901C9012ADFCE
S11321C04C01BB2009F470C0FE01EE0FFF1FEE0F9F
S11321D0FF1FEE0FFF1FEC5FFD4D26893789D801E5
S11321E015968D919C911697820F931F15968D933A
S11321F09C93169713962D913C91149782179307ED
S113220009F43CC0281B390B2115B4E03B0738F016
S11322102FEF33E0C901B40171D5281B390BF80144
S1132220808181FF09C0C901B40168D541E0892BCF
S113223009F040E0842F01C080E0D8019C9180FB2C
S113224091F99C93CC0FDD1FCC0FDD1FCC0FDD1F4C
S1132250CC5FDD4D1E8A1F8A2A8B3B8B11962D91F4
S11322603C91129715968D919C911697820F931F0E
S11322708C8B9D8BF70102E00693CAC0D8018C9128
S113228081FFB3C08D7F8C93CC0FDD1FCC0FDD1F7E
S1132290CC0FDD1FCC5FDD4D1E8A1F8A1A8A1B8A74
S11322A0F70102E00693B4C0FE01EE0FFF1FEE0F2C
S11322B0FF1FEE0FFF1FEC5FFD4DA288B388D8010E
S11322C08C9182FF19C01196ED91FC91129715968D
S11322D02D913C91169713968D919C911497B4016E
S11322E00DD5B0E4DB9EB001112469577F4DAC01DC
S11322F0CF01820F931F1CD5F801258136812A0D49
S11323003B1D25833683838194818217930768F468
S113231085839683CC0FDD1FCC0FDD1FCC0FDD1F13
S1132320CC5FDD4D8E899F8960C0FE01EE0FFF1FDB
S1132330EE0FFF1FEE0FFF1FEC5FFD4D468957891F
S11323404A155B0509F051C02817390709F44DC037
S1132350AC01421B530B9A01211554E0350750F090
S11323602FEF33E0C901B401C9D4D901A81BB90BBB
S1132370CD0107C0C901B401C1D4F901E81BF90BAF
S1132380CF01FE01EE0FFF1FEE0FFF1FEE0FFF1F29
S1132390EC5FFD4D128A138A8815990578F4D801EB
S11323A08C9184608C93B0E4DB9EC0011124895726
S11323B09F4D848B958B868A978A13C0F80141813F
S11323C0528125813681240F351FCC0FDD1FCC0FA0
S11323D0DD1FCC0FDD1FCC5FDD4D2C8B3D8B8E8B39
S11323E09F8BF70102E0069313C0D8018C9180FF04
S11323F00FC08E7F8C931796ED91FC9118973097B0
S113240039F015966D917C9116974D2D80E00995C4
S1132410DF91CF911F910F91FF90EF90DF90BF90CC
S1132420AF909F908F900895CF93CFB7F89481E0A9
S113243011DDEAECF4E080E4808380E28083E1EC67
S1132440F4E0808181608083A9ECB4E08C918260A7
S11324508C93E8ECF4E08081806480838C918160CB
S11324608C93808180688083CFBFCF910895CF9370
S1132470DF93C0E6D0E0188280E30E94B509E0EC67
S1132480F4E080818064808381E08883CFB7F8940E
S113249080E090E0FC01EE0FFF1FEE0FFF1FEE0F38
S11324A0FF1FEC5FFD4D118A01968830910591F76D
S11324B0E7E8F1E280818E7F8083E0E9F1E28081C8
S11324C08E7F8083E9E9F1E280818E7F8083E2EA76
S11324D0F1E280818E7F8083EBEAF1E280818E7F5E
S11324E08083E4EBF1E280818E7F80836AE170E097
S11324F082E0A6DC8F3F19F08093FA0403C08FE1D9
S11325008093FA046BE170E082E09ADC8F3F19F06B
S11325108093FB0403C08FE18093FB04E0ECF4E0C0
S113252080818360808380818068808380818061F2
S1132530808384E192E286839783808180628083B2
S11325408FEF8093C504E8ECF4E08081826080839F
S11325501092582280914F2C8F3F09F4FFCF9FB7E0
S1132560F894EAE4FCE285818F5F85839FBF5CDF9A
S1132570CFBFDF91CF9108958093C30408958091D4
S1132580C3040895EEE5F4E2808791876287738738
S11325900895282F2F7030E0220F331F082E000CCF
S11325A0990B8827990F881F9927820F931FFC0185
S11325B0EE0FFF1FEE0FFF1FEE0FFF1FEC5FFD4D31
S11325C02189207C09F058C06370613011F018F43F
S11325D004C020EC03C020E801C020E440385105C9
S11325E0E9F050F440325105A9F040345105A1F00E
S11325F040315105D9F40CC0411532E0530791F034
S11326004F3F33E0530781F04115514079F408C03E
S113261041E00DC042E00BC043E009C044E007C004
S113262045E005C046E003C047E001C040E0FC01CE
S1132630EE0FFF1FEE0FFF1FEE0FFF1FEC5FFD4DB0
S1132640118ADC01AA0FBB1FAA0FBB1FAA0FBB1F55
S1132650AC5EBD4D36E03C93242B218B880F991F33
S1132660880F991F880F991FFC01EC5FFD4D81892C
S11326708062818B81E0089580E00895E82FEF70F7
S1132680F0E0EE0FFF1F082E000C990B8827990F1E
S1132690881F9927E80FF91FEE0FFF1FEE0FFF1F8A
S11326A0EE0FFF1FEC5FFD4D818982FB882780F9C7
S11326B00895282F2F7030E0A901440F551F282FAB
S11326C0082E000C330B2227330F221F3327240F2D
S11326D0351FF901EE0FFF1FEE0FFF1FEE0FFF1F57
S11326E0EC5FFD4D918992FF17C0220F331F220F1B
S11326F0331F220F331FF901EC5FFD4D91899B7F3E
S1132700918BAEDCFC01808180FF06C08E7F8083CC
S11327100780F085E02D099581E008957F928F92DE
S11327209F92AF92BF92CF92DF92EF92FF920F935C
S11327301F93CF93DF93982E862E6A01790190DC44
S11327405C01792C771C7724771CC92DCF70D0E0DD
S1132750CC0FDD1FC70DD11DFE01EE0FFF1FEE0FC5
S1132760FF1FEE0FFF1FEC5FFD4D8189807C09F494
S11327707DC0FE01EE0FFF1FEE0FFF1FEE0FFF1FC8
S1132780EC5FFD4D8189807C803C61F0FE01EE0FA1
S1132790FF1FEE0FFF1FEE0FFF1FEC5FFD4D818942
S11327A082FD66C08FB7F894F501908190FF03C055
S11327B08FBF712C5EC0F5019081916090838FBFB3
S11327C0C182D282E382F482158216820783108743
S11327D0811006C091E0E114F10419F090E001C009
S11327E091E0F501808190FB81F98B7F80837720D4
S11327F059F0CC0FDD1FCC0FDD1FCC0FDD1FCC5FDC
S1132800DD4D1E8A1F8A2DC0FE01EE0FFF1FEE0F45
S1132810FF1FEE0FFF1FEC5FFD4D8189807C803C24
S1132820A1F4CE01880F991F880F991F880F991F53
S11328308C5E9D4DEFDBBC01C70160D2892B29F072
S1132840F50180818E7F808314C0CC0FDD1FCC0FF7
S1132850DD1FCC0FDD1FCC5FDD4D1A8A1B8A1E8A5B
S11328601F8A892D87DC7724739403C0712C01C0DF
S1132870712C872DDF91CF911F910F91FF90EF90D5
S1132880DF90CF90BF90AF909F908F907F900895EE
S1132890FF920F931F93CF93DF93182FF82EFF1CF3
S11328A0FF24FF1CC82FCF70D0E0CC0FDD1FCF0D4D
S11328B0D11DD6DBDC01FE01EE0FFF1FEE0FFF1F63
S11328C0EE0FFF1FEC5EFD4D02E005938C9180FF3F
S11328D022C08E7F8C931796ED91FC9118973097B8
S11328E0D1F0FF2059F0CC0FDD1FCC0FDD1FCC0F32
S11328F0DD1FCC5FDD4D6E897F890AC0CC0FDD1FE3
S1132900CC0FDD1FCC0FDD1FCC5FDD4D6A897B89C9
S1132910412F81E00995DF91CF911F910F91FF9095
S11329200895CF93C82FB4DFEC2FEF70F0E0EE0FD3
S1132930FF1F8C2FCC0F990B8827990F881F99277D
S1132940E80FF91FEE0FFF1FEE0FFF1FEE0FFF1F23
S1132950EC5FFD4D118ACF9108950F93E82FEF702E
S1132960F0E0EE0FFF1F282F082E000C330B222758
S1132970330F221F3327E20FF31FDF01AA0FBB1F00
S1132980AA0FBB1FAA0FBB1FAC5FBD4D51969C91F4
S11329905197946051969C93EE0FFF1FEE0FFF1F0B
S11329A0EE0FFF1FEC5EFD4D01E0069371DF81E049
S11329B00F9108951F920F920FB60F9211240F9347
S11329C02F933F934F935F936F937F938F939F9333
S11329D0AF93BF93EF93FF938091CB04882344F488
S11329E080E88093CA040E945E0B0E94D5018AC0CD
S11329F08091CB0482FF20C084E08093CA0480913C
S1132A001C2286FF7FC08091CC0481FD7BC043DB08
S1132A10811178C080910122813011F479DA72C079
S1132A20843009F06FC0EDE1F2E204E00593E5E1E2
S1132A30F2E204E0059366C08091CB0481FF5DC09F
S1132A4082E08093CA048091142286FF5BC0809147
S1132A50CC0481FD57C01FDB811154C08091012239
S1132A60823041F484E080930122E4E1F2E202E066
S1132A70069348C0833009F045C0EDE1F2E204E07A
S1132A800593E5E1F2E204E005933CC080E1809324
S1132A90CA0481E0FDDE81E8FBDE82E0F9DE82E843
S1132AA0F7DE0E94390B1092C304E4E0F2E2118ACB
S1132AB096E0908B83E4818B118E908F818F8DEBC8
S1132AC091E2848B958BEFD91DC08091CB0486FF56
S1132AD008C080E48093CA0480E0BCD90E94D3017A
S1132AE011C08091CB0485FF0DC080E28093CA049D
S1132AF081E0B0D90E94D40105C08091CB0484FD4B
S1132B00C5CFE3CFFF91EF91BF91AF919F918F918B
S1132B107F916F915F914F913F912F910F910F9002
S1132B200FBE0F901F9018951F920F920FB60F9221
S1132B3011240F931F932F933F934F935F936F939E
S1132B407F938F939F93AF93BF93CF93DF93EF9331
S1132B50FF938091CC0481FD03C09DDA8111B9C03B
S1132B6082E08093CC048091C5048195880FE4E1D0
S1132B70F2E2E81BF1092081318124513242369579
S1132B8027953695279536952795822F869520FD8E
S1132B9002C090E001C090E8890FE82FEF70F0E0E8
S1132BA0EE0FFF1F282F082E000C330B2227330FA4
S1132BB0221F3327E20FF31FDF01AA0FBB1FAA0F47
S1132BC0BB1FAA0FBB1FAC5EBD4D9C9195FF81C07E
S1132BD0FD0100E20693811177C0809101228430C7
S1132BE019F4A4D960D975C0009116221091172246
S1132BF08091682490916924C091FD21D091FE2197
S1132C009E01200F311F8217930718F48C010C1BAF
S1132C101D0B8091662490916724A8016DEB71E2ED
S1132C208C0F9D1F85D0C00FD11FC093FD21D09361
S1132C30FE210034110569F48091FF219091002256
S1132C408C0F9D1F20916424309165248217930773
S1132C5080F0EEE5F4E2C287D3870684F785E02DA1
S1132C60309729F00995811102C044D932C050D956
S1132C7030C08091682490916924C817D907F9F469
S1132C80E0916C24F0916D24309711F433D921C074
S1132C900995811102C02ED91CC02091FF213091C9
S1132CA000228091FD219091FE21820F931F809339
S1132CB0FF21909300221092FD211092FE21E4E165
S1132CC0F2E202E0069305C0803811F437D901C05E
S1132CD051DAFF91EF91DF91CF91BF91AF919F9125
S1132CE08F917F916F915F914F913F912F911F91A0
S1132CF00F910F900FBE0F901F901895AA1BBB1B2E
S1132D0051E107C0AA1FBB1FA617B70710F0A61BE7
S1132D10B70B881F991F5A95A9F780959095BC0108
S1132D20CD010895EE0FFF1F0590F491E02D099455
S1132D30FB01DC0102C001900D9241505040D8F7D4
S1092D400895F894FFCF92
S1132D46FF5580008000EF09FB09010AEC09000029
S1132D564420162000001C201A2006200902270001
S1132D6601010080FA0904000003FFFFFF000705C4
S1132D7681010001010705820100010107058301A4
S1132D86000101001201000200000040EB0300A054
S1132D960002010200010000000300000000000020
S1132DA60000000000000000000000000000000019
S1132DB60000000000000000000000000000000009
S1132DC600000000000000000000555342476F62F7
S1132DD6696E6461722044756D6D79204465766907
S1132DE66365005461706972546563680000040386
S1052DF60904CA
S9030000FC
