S01500005553425F42554C4B5F544553542E73726563F9
S113000024C100003EC100003CC100003AC1000010
S113001038C1000036C100000C949C0832C10000B5
S113002030C100002EC100002CC100002AC1000014
S113003028C1000026C1000024C1000022C1000024
S113004020C100001EC100001CC100001AC1000034
S113005018C1000016C1000014C1000012C1000044
S11300600C948D090EC100000CC100000AC10000EF
S113007008C1000006C1000004C1000002C1000064
S113008000C10000FEC00000FCC00000FAC0000077
S1130090F8C00000F6C00000F4C00000F2C0000088
S11300A0F0C00000EEC00000ECC00000EAC0000098
S11300B0E8C00000E6C00000E4C00000E2C00000A8
S11300C0E0C00000DEC00000DCC00000DAC00000B8
S11300D0D8C00000D6C00000D4C00000D2C00000C8
S11300E0D0C00000CEC00000CCC00000CAC00000D8
S11300F0C8C00000C6C00000C4C00000C2C00000E8
S1130100C0C00000BEC00000BCC00000BAC00000F7
S1130110B8C00000B6C00000B4C0000055C4000060
S1130120B0C00000AEC00000ACC00000AAC0000017
S1130130A8C00000A6C00000A4C00000A2C0000027
S1130140A0C000009EC000009CC000000C94ED08FC
S113015098C0000096C0000094C0000092C0000047
S113016090C000008EC000008CC000008AC0000057
S113017088C0000086C0000084C0000082C0000067
S113018080C000007EC000007CC000007AC0000077
S113019078C0000076C0000074C0000072C0000087
S11301A070C000006EC000006CC000006AC0000097
S11301B068C0000066C0000064C0000062C00000A7
S11301C060C000005EC000005CC000005AC00000B7
S11301D058C0000056C0000054C0000052C00000C7
S11301E050C000004EC000004CC000004AC00000D7
S11301F048C000000C94B1140C946B15A40BA80B0C
S1130200E40B200C290C2E0C720C770CD40BD60B9F
S1130210D80BDA0BDC0BDE0BE00BE20B100C120C30
S1130220140C160C180C1A0C1C0C1E0C3A0C420C58
S11302304A0C550C570C590C610C690CEF0FF20F5A
S1130240F50FF80FFB0FFE0F011011241FBECFEFA7
S1130250CDBFDFE2DEBF10E2A0E0B0E2E8E3FDE202
S113026002C005900D92AA3BB107D9F72EE2AAEB82
S1130270B0E201C01D92AA36B207E1F775D20C9420
S11302809A16BECE1F93CF93DF93C0E5D0E014E05F
S11302901E838CE153D3E0E6F0E083838BEB86830B
S11302A080E8858381E0808388ED84BF10934100DA
S11302B083E08883E0E5F0E081818330E9F7E0E5DD
S11302C0F0E080818160808388E18583818180FF83
S11302D0FDCFE0E5F0E0808180618083818184FF4F
S11302E0FDCF88ED84BF84E080934000DF91CF91FF
S11302F01F910895E0E7F0E085818E7F8583E0E03B
S1130300FAE08FEB9DE586A397A380EE9EE280A39F
S113031091A381E0808308958091200A9091210A1D
S1130320813E2EE2920720F020916E2220936A00F3
S1130330803E2EE2920720F420916B2220936A00E3
S113034020910520222331F0809105208150809353
S113035005201DC0885F9A42813D9740C0F01092ED
S1130360BA208091BB209091BC20A091BD20B09177
S1130370BE200196A11DB11D8093BB209093BC208B
S1130380A093BD20B093BE2086E080930520809189
S1130390062090910720019661F4809108208F3FF8
S11303A041F080911401909115018093062090935F
S11303B007200895009709F466C00CF09C01992366
S11303C034F422273327281B390B51E001C050E0B5
S11303D0E8E6F0E0838190E080936C2290936D22B4
S11303E080916C2290916D229695982F88279795ED
S11303F0879580936C2290936D22428180916C2228
S113040090916D22840F911D80936C2290936D22A4
S1130410000080916C2290916D228217930728F43A
S113042010926C2210926D22089580916C2290910A
S11304306D22820F931F8115904238F08FEF9FE158
S113044080936C2290936D220895552359F08091E6
S11304506C2290916D22821B930B80936C2290935B
S11304606D220AC080916C2290916D22280F391F51
S113047020936C2230936D2280916C2290916D2296
S11304808F7780936A000895CF93DF93C091200AF9
S1130490D091210A80910320909104209E01281B71
S11304A0390B20936F22309370228091BA208111EE
S11304B04DC080916F22909170228E3C9F4FE4F446
S11304C080916F22909170228B369F4FACF0809177
S11304D00220882331F080910220815080930220F1
S11304E035C080916A0080936E2281E08093BA20A7
S11304F08CE0809302202AC08CE0809302208091BB
S11305006F22909170228A369F4F1CF08FEF9FEFDD
S113051002C081E090E08093692290936A228091E6
S11305206F22909170222091692230916A2260E3B7
S113053070E00E946916261B370B209369223093C2
S11305406A228091692290916A2234DF8091BA20D4
S1130550813029F580916F2290917022C39794F095
S113056080910220882331F0809102208150809371
S1130570022015C080916A0080936B2283E08093EF
S1130580BA200DC080916F22909170228739910515
S11305901CF481E090E002C08FEF9FEF0BDFC0936B
S11305A00320D0930420DF91CF91089586179707F5
S11305B079F06817790728F49C01261B370BB901D9
S11305C009C08617970718F4681B790B03C00895B0
S11305D060E070E0862F972F0895CF93DF9380918A
S11305E0002090910120892B51F08091002090915E
S11305F001200197809300209093012065C080E43E
S113060090E08093002090930120809106209091A7
S11306100720019609F458C0C0911401D091150126
S11306206091062070910720CE01C0DF893C9105BE
S113063000F1AE0149585E4F9A0136952795A1EB1A
S1130640BBE20E948216EC010024CC0FDD1F001CCB
S1130650CC0FDD1F001CCD2FD02D2EEE32E0C29F1B
S1130660C001C39F900DD29F900D1124EA01C81BB5
S1130670D90B80910620909107208C179D0778F460
S11306806091062070910720CE0190DF029738F028
S113069080EC9DE58093360A9093370A15C08091CB
S11306A0062090910720C817D90770F4609106209E
S11306B070910720CE017ADF029730F08FEB9DE531
S11306C08093360A9093370ADF91CF910895AC0155
S11306D0460F571F861B970BE0E0FAE020A131A1DB
S11306E024173507D8F720A131A182179307B0F753
S11306F00895E0E8F6E08FE0808385E08483089540
S113070008954091C62027E731E0429FC001439FEE
S1130710900D112441E853E06AEF70E08A57994D37
S113072084C608954091C62027E731E0429FC00166
S1130730439F900D112442E953E06AEF70E0805822
S1130740984D7FC608954091C62027E731E0429F27
S1130750C001439F900D112443EA53E06AEF70E017
S11307608658974D7AC6089587E08093A2007894BE
S113077089DDC6DF69D73BD15ED160E080E0E7D098
S1130780D3D08CE0C6D0E7D4A2D5B9D5B2DF80915E
S1130790722290917322A0917422B09175220196D5
S11307A0A11DB11D813021EE920725EFA20725E09E
S11307B0B20718F080E090E0DC01000000000000C7
S11307C00000000000000000000000000000000025
S11307D0000000000000E3CF08950895F89480918C
S11307E0C420882341F086DD1092C42081E08093E8
S11307F0C320789408958091C3208823B9F180910F
S1130800BA20833019F488DDE8DE01C03DDE809132
S1130810BF208F3731F51092BF20E091C020F091B6
S1130820C1208091140190911501EE0FFF1FEE5924
S1130830F34D808391838091C0209091C1208F3F9C
S1130840910529F41092C0201092C1200FC080910C
S1130850C0209091C12001968093C0209093C12024
S113086005C08091BF208F5F8093BF208091C220FC
S1130870882351F080911401909115018093622E88
S11308809093632E1092C22020911401309115018F
S113089081E02737314008F080E08093C6207894C7
S11308A0089581E08093C9208093C42041E853E0F7
S11308B06EEE72E086E896E2B8D542E953E06EEE59
S11308C072E080E897E2BDD543EA53E06EEE72E051
S11308D08AE798E2C2D581E008951092C92008956C
S11308E081E0089581E00895E0E0F2E010A2982FFD
S11308F09C71936890A388231CF490E182E002C069
S113090090E080E0892BE0E0F2E081A312A216A23D
S11309100895E0E0F2E010AA836880AB80E181AB47
S113092083E082AB16AA0895E0E0F2E010A683E823
S113093080A78FE281A712A616A60895AAECB1E0BB
S113094092E09C93E82FF0E084911C920895CF9359
S1130950DF93E0E7F0E091819D7F918310920002A4
S1130960623031F1E0E0F2E09CE1918390E4928323
S1130970811102C080E401C080EC809303026130E5
S113098011F083E001C082E0C0E0D2E08C8380E219
S1130990D5DF8C8781E2D2DF8D87188E198E81E0B6
S11309A08883C2DF0EC080EC8093030283E0ECCF27
S11309B0E0E0F2E09EE1918390E492838111F3CF31
S11309C0D9CFDF91CF9108951F920F920FB60F9256
S11309D011248F93000000000000000081E0809348
S11309E023028F910F900FBE0F901F901895CF93F5
S11309F0DF93E0E7F0E082818B7F8283C0E2D3E083
S1130A008DE0888380E4898389E08A8383E396DFA9
S1130A10888782E393DF898787E390DF8A8786E389
S1130A208DDF8B87E0E2F6E080818360808314822F
S1130A30DF91CF910895E0E7F0E080818E7F80839D
S1130A4083E8809300010895E0E0F1E0108A80E4F7
S1130A50808B10A280A310AA80ABE0E4F1E01082A6
S1130A6080831092C8201092C72081E08093C62012
S1130A700895CF93DF93F89410920820E5DFC0E047
S1130A80D1E01EAA84E288AB19AA49E54AAB92E0F8
S1130A909BAB20910A2030910B202CAB3DAB26E878
S1130AA034E228AF39AF1AAE2BE32CAF23E0209306
S1130AB03D0110923E0138A9306838AB10924601CE
S1130AC0E0E4F1E0808310924101409342012093DD
S1130AD0430140910C2050910D20409344015093C8
S1130AE0450146E752E24093480150934901109270
S1130AF04A0139E330934C0120934D0110924E0189
S1130B00208120682083188A20E4288B888B998B85
S1130B1025E92A8B20E12B8B2EEE32E02C8B3D8BAA
S1130B20888F998F1A8E86E896E28C8F9D8F1E8E01
S1130B3064E670E080E797E1CADD1092C820109265
S1130B40C72081E08093C6208FEF9FEF809306201B
S1130B509093072088898068888B7894DF91CF915F
S1130B600895CF93DF9381E0809308206DDFE0E068
S1130B70F1E010AA80E480AB94E090AB11AA12AA31
S1130B805BE453AB14AA15AA16AA29E030E220AFFD
S1130B9031AF12AE40EA44AF38E030933D011092D9
S1130BA03E0180A9806A80AB85E58093A0081092FD
S1130BB04601A0E4B1E0D4E2DC931092410189E55E
S1130BC080934201C2E0C093430160910A20709176
S1130BD00B20609344017093450166E874E26093CE
S1130BE048017093490110924A018BE380934C01B0
S1130BF083E080934D0110924E012C9120682C9338
S1130C00908B818BA1E9A28B20E1238B67E771E0B4
S1130C10648B758BD08FC18F128EC6E8D6E2C48FD9
S1130C20D58F168E20892068208B90A381A3A2A340
S1130C3053A364A375A340A731A712A68DEF97E22F
S1130C4084A795A716A680A1806880A3DF91CF9181
S1130C500895CF93F894C2E0C0930820F5DEE0E055
S1130C60F1E016AA94E290AB11AA39E532AB83E025
S1130C7083AB40910C2050910D2044AB55AB46E71B
S1130C8052E240AF51AF12AE29E324AF80933D014D
S1130C9010923E0120A9206820AB10924601A0E4E6
S1130CA0B1E09C931092410130934201C0934301FF
S1130CB020910A2030910B20209344013093450168
S1130CC026E834E2209348013093490110924A0106
S1130CD02BE320934C0180934D0110924E012C91F3
S1130CE020682C9354E0508B818B41E9428B20E1A6
S1130CF0238B27E731E0248B358B908FC18F128EA5
S1130D0066E876E2648F758F168E90899068908B72
S1130D1050A381A342A382E183A324A335A384E344
S1130D2080A7C1A712A68DEF97E284A795A716A660
S1130D3080A1806880A37894CF910895CF93C3E075
S1130D40C093082081DEE0E0F1E010A250E450A35B
S1130D5044E040A311A212A23BE433A314A215A2BF
S1130D6016A289E090E280A791A712A620EA24A700
S1130D7098E095A716A680A1806A80A385E5809354
S1130D80A00816AA74E270AB11AA69E562ABC3AB02
S1130D90A0910C20B0910D20A4ABB5ABA6E7B2E2B4
S1130DA0A0AFB1AF12AE89E384AFC0933D011092FE
S1130DB03E0180A9806880AB10924601A0E4B1E0B6
S1130DC07C93109241016093420182E0809343013D
S1130DD060910A2070910B20609344017093450147
S1130DE066E874E2609348017093490110924A01E5
S1130DF08BE380934C01C0934D0110924E018C9172
S1130E0080688C93108A508B408BC18B81E9828BD4
S1130E10338B47E751E0448B558B208F918F128E93
S1130E2086E896E2848F958F168E80898068808B01
S1130E30CF910895CF93C4E0C093082005DEE0E08D
S1130E40F1E010A280E480A3C0A311A212A24BE49B
S1130E5043A314A215A216A289E090E280A791A749
S1130E6012A660EA64A788E085A716A690A1906AF6
S1130E7090A395E59093A00810924601A0E4B1E0F8
S1130E8094E29C931092410199E59093420192E07F
S1130E909093430120910A2030910B202093440128
S1130EA03093450126E834E2209348013093490108
S1130EB010924A019BE390934C0193E090934D016F
S1130EC010924E012C9120682C93C08B918B31E9A8
S1130ED0328B438B47E751E0448B558B608F818F76
S1130EE0128E66E876E2648F758F168E20892068EC
S1130EF0208BC0AB91AB32AB9AE493AB44AB55AB14
S1130F0093EC90AF81AF12AE8DEF97E284AF9093E4
S1130F103D0110923E0180A9806880ABCF91089575
S1130F2085E08093082090DDE0E0F1E016AA34E249
S1130F3030AB11AA29E522AB83E083AB40910C20AE
S1130F4050910D2044AB55AB46E752E240AF51AF50
S1130F5012AE99E394AF80933D0110923E0190A9A3
S1130F60906890AB10924601E0E4F1E03083109277
S1130F704101209342018093430120910C20309140
S1130F800D20209344013093450126E834E2209358
S1130F9048013093490110924A019BE390934C011C
S1130FA080934D0110924E01808180688083089562
S1130FB086E08093082048DDE0E0F1E016AA94E2A0
S1130FC090AB11AA39E532AB83E083AB40910C209E
S1130FD050910D2044AB55AB46E752E240AF51AFC0
S1130FE012AE29E324AF80933D0110923E0120A963
S1130FF0206820AB10924601A0E4B1E09C931092CB
S113100041013093420132E03093430140910A2080
S113101050910B20409344015093450146E854E21B
S1131020409348015093490110924A012BE32093C5
S11310304C0180934D0110924E012C9120682C9309
S1131040108A20E4208B24E0208B818B81E9828B21
S113105080E1838B4EEE52E0448B558B908F318F21
S1131060128E86E896E2848F958F168E808980682A
S1131070808B089587E080930820E6DCE0E0F1E0CF
S113108016AA94E290AB11AA39E532AB83E083ABA4
S113109040910C2050910D2044AB55AB46E752E2F1
S11310A040AF51AF12AE29E324AF80933D011092BB
S11310B03E0120A9206820AB10924601A0E4B1E0D3
S11310C09C93109241013093420132E030934301EA
S11310D040910A2050910B204093440150934501C4
S11310E046E854E2409348015093490110924A0162
S11310F02BE320934C0180934D0110924E012C91CF
S113110020682C93108A20E4208B25E0208B818B8F
S113111081E9828B80E1838B4EEE52E0448B558BC8
S1131120908F318F128E86E896E2848F958F168E7B
S113113080898068808B08951F920F920FB60F925A
S113114011248F9381E0809303018F910F900FBE40
S11311500F901F901895E0E7F0E083818C7F8383E4
S113116084818C7F848380818D7F8083E0E8F1E0BB
S113117080EC8283128688EC81831186A0E0B8E03B
S113118034E03C9323E011962C93119714961C920F
S1131190149785ED91E096968D939C939797169668
S11311A01C921697E0E4F8E030832183148286A32E
S11311B097A31682E0E6F6E0808180618083E0E414
S11311C0F9E083E18183148282E08683A6A3B7A336
S11311D010A611A681E0808308951F920F920FB686
S11311E00F9211242F933F934F935F938F939F9369
S11311F0EF93FF93CF93DF931F92CDB7DEB78FEFBB
S113120080934C0980910820873031F4E0E0F2E0CB
S113121084A5898395A502C090912C028091C52054
S1131220891B209168093091690991E082300CF49E
S113123090E09923C9F091E02A3F374008F090E00C
S1131240992391F0209168093091690989301CF43F
S113125081E090E002C086E090E0820F931F8093CB
S113126078099093790923C020916809309169091C
S113127091E08F3F0CF090E09923C9F091E0273082
S1131280310508F490E0992391F020916809309198
S11312906909883F1CF081E090E002C086E090E09C
S11312A0A901481B590B40937809509379090F9071
S11312B0DF91CF91FF91EF919F918F915F914F912A
S11312C03F912F910F900FBE0F901F901895E0E75C
S11312D0F0E083818F7E8383E0E4F6E080818A6A94
S11312E080838FEF848388E5828BE0EAF8E084ECE6
S11312F0858383E08683178288E184830895E0E709
S1131300F0E08381877F8383E0ECF8E080E48083EE
S1131310118288E58093550608951F920F920FB6A7
S11313200F92112400000F900FBE0F901F9018957C
S11313309FB7F894E82FF0E0E059FF4F6095808163
S1131340682360839FBF0895863011F060E001C078
S113135068E18091510081FD26C09FB7F894E0E5D3
S1131360F0E08081826080839FBF818181FFFDCF17
S11313709FB7F894A0E5B0E016968C911697897FF4
S113138016968C931697E0E6F0E080E885838BEB65
S1131390868316968C911697846016968C9380811A
S11313A0816080839FBF636084E490E01AD560E429
S11313B080E0BECF08958091CA20089540D1FC01F9
S11313C083818093CA20811102C06BCA089581E091
S11313D008958091CA20813009F47FCA08958091CC
S11313E0762488234CF480768034A9F48091772481
S11313F0811113C077CA08958076803481F4809176
S1131400772481110EC080917C2490917D24892BB6
S113141051F066CA089580E0089580E0089580E060
S1131420089580E0089580E008950F931F939B0131
S11314308A01AC0160E081E80E9465131F910F915D
S113144008950F931F939B018A01AC0160E082E829
S11314500E9465131F910F9108950F931F939B0191
S11314608A01AC0160E083E80E9465131F910F912B
S11314700895E091CF20F091D0200190F081E02DEB
S1131480228133812E0F3F1FFC014081E40FF11DA7
S1131490E217F307B8F481818430B9F0861309C0E8
S11314A005C081818430A1F0861303C08E2F9F2F45
S11314B008958081E80FF11DE217F30790F380E0AF
S11314C090E0089580E090E0089580E090E0089531
S11314D080E090E00895809178248F770C949312A3
S11314E008959091D220992381F1E091CF20F09139
S11314F0D0200190F081E02D9481891740F5E0938C
S1131500CD20F093CE20228133812E0F3F1FE2178E
S1131510F307F8F49181943061F49281981309C02F
S11315209381961306C0E093CD20F093CE2081E002
S113153008959081E90FF11DE217F30758F3E09342
S1131540CD20F093CE2080E0089580E0089580E0DF
S1131550089580E00895EF92FF921F93CF93DF9355
S1131560C82F60E0BEDF182F882381F1A091CF201F
S1131570B091D020EC2FF0E0EE0FFF1F12968D916A
S11315809C911397E80FF91FE080F180D70116961C
S1131590ED91FC9117970995682F8C2FA2DF182FD6
S11315A08823A1F0C091CD20D091CE2065E0CE015A
S11315B060DFEC01892B21F08A810E946814F6CF48
S11315C0D7011296ED91FC9113970995812FDF9124
S11315D0CF911F91FF90EF9008951F93CF93DF93C6
S11315E0182F7FDF882339F1C091CD20D091CE20F0
S11315F065E0CE013EDFEC01892B41F04C815D8139
S11316006B818A819DD78111F3CF15C0A091CF2022
S1131610B091D020E12FF0E0EE0FFF1F12968D91D4
S11316209C911397E80FF91F0190F081E02D019030
S1131630F081E02D0995DF91CF911F91089580915C
S1131640CD209091CE200895E9C60895CF9380913E
S1131650D2208823C1F0E091CF20F091D0200190D6
S1131660F081E02D8481882371F0C0E08C2F73DF3A
S1131670CF5FE091CF20F091D0200190F081E02D58
S11316808481C81798F31092D2201092D620109219
S1131690D720CF910895CF938091D220882349F108
S11316A0A091CF20B091D020ED91FC91119784812D
S11316B08823F9F0C0E0EC2FF0E0EE0FFF1F129644
S11316C08D919C911397E80FF91F0190F081E02D03
S11316D00084F185E02D309709F00995CF5FA09142
S11316E0CF20B091D020ED91FC9111978481C8173F
S11316F010F3CF9108950F931F93CF93DF93E6E7F1
S1131700F4E212861386148615861686178680815F
S113171088233CF420917C2430917D24232B09F4EC
S113172054C38076803409F0F2C0E09177248E2F80
S113173090E0FC01E05AF109E830F10508F0DEC060
S1131740E250FF4F0C947C1681E08093C22041C389
S1131750E0E0F8E01082C6E7D4E28A819B8186ABA0
S113176097AB8C818F7080836E817F8186E792E254
S1131770E0D68E819F8120910C2030910D2082171C
S1131780930709F426C380930C2090930D20E091D5
S113179008208E2F90E08830910508F0B1C0FC013C
S11317A0EA5FFE4F0C947C1664D913C3DAD911C3D3
S11317B050DA0FC3C3DA0DC33DDB0BC3B1DB09C37E
S11317C0F7DB07C357DC05C3E0E4F8E01082C6E7A3
S11317D0D4E28A819B8186AB97AB8C818F708083A6
S11317E06E817F8186E894E2A4D68E819F812091C8
S11317F00A2030910B208217930709F4EAC28093E0
S11318000A2090930B20E09108208E2F90E08830DE
S1131810910508F077C0FC01E25FFE4F0C947C1642
S113182028D9D7C29ED9D5C214DAD3C287DAD1C295
S113183001DBCFC275DBCDC2BBDBCBC21BDCC9C2B3
S11318401092680910926909809178248093C520C8
S1131850C0C28091782480932406BBC2E09178248E
S1131860F0917924E830F10508F04EC0EA5EFE4FAD
S11318700C947C1660E080E06AD880917A2434D895
S1131880F8D8A7C260E080E062D880917A242CD88E
S113189068D99FC261E081E05AD8C6E7D4E28C815E
S11318A023D88D8136D8D5D994C248DA92C2C2DA07
S11318B090C260E080E04BD880917A2415D830DB68
S11318C088C261E080E043D880917A240DD870DB2F
S11318D080C262E080E03BD880917A24806804D89A
S11318E0C9DB77C2809178248093840672C2E9E7C9
S11318F0F0E091E088EDF89484BF908380E005C027
S113190081E003C081E001C080E0811165C2809163
S11319107624982F907609F0E1C188230CF005C154
S113192020917C2430917D242115310509F4D6C100
S11319308F7109F0A3C090917724963079F0983094
S113194009F492C091119AC02230310509F0C6C140
S113195062E070E086ED90E2ECD53DC2809178249F
S113196090917924292F332722303105A9F024F4CA
S11319702130310541F0A9C123303105D9F12F308F
S1131980310551F1A2C18091182090911920DC01F8
S11319906C9170E0CED559C0E0911820F0911920D7
S11319A02189821708F09AC19927880F991F880FF7
S11319B0991FE0911A20F0911B20E80FF91F8081F4
S11319C09181FC0162817381B4D5E0917E24F09110
S11319D07F2482E0818339C080911C2090911D2056
S11319E0009709F47BC1DC0112966D917C911397E9
S11319F0A0D52BC099278130910571F038F002975A
S1131A0009F06CC182E990E228E109C064E070E069
S1131A1086EB90E28ED519C08BEA90E229E0382F4C
S1131A20A2E6B0E2E82FF92F819190E08D939D9387
S1131A308E2F831B8217C0F3622F660F6E5F609335
S1131A40602070E080E690E274D5E6E7F4E28681F7
S1131A509781228533858217930708F0BCC1809350
S1131A60802490938124B7C12130310509F036C117
S1131A7061E070E082ED90E25CD5ADC18130E1F5CA
S1131A80909177249A30C1F52130310509F026C1AF
S1131A908091D220882309F421C1C0917A24D09165
S1131AA07B240091CF201091D020D801ED91FC919E
S1131AB08481C81708F012C160E08C2F12DD8823DE
S1131AC009F40CC1CE019927880F991FD8011296E9
S1131AD0ED91FC911397E80FF91F0190F081E02D2F
S1131AE086819781FC0109958093D42061E070E0A0
S1131AF084ED90E21ED56FC1823009F0EFC0809171
S1131B0077248111E4C02230310509F0E7C08091C7
S1131B107A248BD590E08093CB209093CC2062E004
S1131B2070E08BEC90E205D556C18F7109F083C04B
S1131B3090917724933009F4CCC018F49130A1F03B
S1131B407AC0953019F0993039F175C080917C24B0
S1131B5090917D24892B09F0C1C08BE69AE0809393
S1131B6082249093832437C180917C2490917D2496
S1131B70892B09F0B3C0809178249091792401973E
S1131B8009F0ACC08091D6209091D7208D7F8093AE
S1131B90D6209093D7201FC180917C2490917D24DE
S1131BA0892B09F09BC0C2D4882309F497C02091E3
S1131BB07824309179243327E0911820F09119206A
S1131BC0818990E08217930708F488C03FDD8091F3
S1131BD07824909179248093D220882309F4FBC03F
S1131BE099278150904C880F991F880F991FE09175
S1131BF01A20F0911B20E80FF91FE093CF20F093F7
S1131C00D0200190F081E02D8481882309F4E3C081
S1131C10C0E060E08C2FE1DC882309F45FC0CF5F73
S1131C20E091CF20F091D0200190F081E02D8481CB
S1131C30C81778F3D0C08130E1F4909177249B30B9
S1131C40C1F480917C2490917D24892B09F046C0B5
S1131C508091D220882309F441C0E6E7F4E2C481EC
S1131C60D2818C2F78DC8823C9F16D2F8C2FB5DCC1
S1131C7033C0823099F580917724813019F0833014
S1131C8089F029C080917C2490917D24892B31F5A1
S1131C908091782490917924892B01F580917A247C
S1131CA0DFD41AC080917C2490917D24892BB1F4D7
S1131CB08091782490917924892B81F4C6E7D4E229
S1131CC08C81BDD58C8120D607C080E005C080E022
S1131CD003C080E001C080E081117EC08091762441
S1131CE08F71813071F58091D220882351F1009158
S1131CF07A2410917B24C091CF20D091D020E88108
S1131D00F98184810817E8F460E0802FEADB8823F6
S1131D10C1F0F801FF27CF01880F991FEA81FB81E9
S1131D20E80FF91FC081D181EE81FF810995682FE9
S1131D30802FD7DB882329F0EC81FD81099581115F
S1131D404BC0809176248F71823009F040C080911D
S1131D50D2208823B1F1A091CF20B091D020ED9171
S1131D60FC9111978481882371F1C0E0EC2FF0E09D
S1131D70EE0FFF1F12968D919C911397E80FF91F98
S1131D8000811181D8011696ED91FC911797099560
S1131D90682F8C2FA6DB8823F9F0D8011496ED91D7
S1131DA0FC9115970995811117C0CF5FA091CF20A1
S1131DB0B091D020ED91FC9111979481C917B0F2A4
S1131DC00BC080E009C080E007C080E005C080E06F
S1131DD003C081E001C081E0DF91CF911F910F9199
S1131DE008951BBEFC0128ED24BF60830895409133
S1131DF0CA01E62FF72F8093CA0184914093CA0148
S1131E000895811122C0909168229923D9F090916C
S1131E10652E911101C0FFCF2FB7F894E4E6FEE2DE
S1131E209181915091832FBF0DC09091652E9F3F5A
S1131E3009F4FFCF2FB7F894E4E6FEE291819F5FA7
S1131E4091832FBF809368220895909168229923EB
S1131E5061F3F8CF0F93E8ECF4E080818F7D808309
S1131E6080818F7D8083ECE2F2E202E005931092A0
S1131E702E2210922F2200E2069300E40693E4E25D
S1131E80F2E200E2069300E40693E6E7F4E2148645
S1131E9015861686178612861386109213220F91C2
S1131EA008950F9385E080931322EDE2F2E204E0BB
S1131EB00593E5E2F2E204E005930F9108950F9390
S1131EC083E08093132210922E2210922F22ECE2B0
S1131ED0F2E202E006930F910895E0918224F091DA
S1131EE08324309709F0099508950F93CF93DF93D6
S1131EF080911322833019F4F0DFACDF5EC080914F
S1131F000F2290911022C0918024D0918124C81B6B
S1131F10D90B71F52091112230911222820F931F57
S1131F20809311229093122220917C2430917D245D
S1131F308217930721F08091D820882341F084E010
S1131F4080931322E4E2F2E202E0069336C0E091C9
S1131F508424F0918524309799F00995882381F0A1
S1131F6010920F2210921022C0918024D0918124CB
S1131F70C034D10528F01092D820C0E4D0E003C0CA
S1131F8081E08093D820E4E1F2E2C28FD38F809184
S1131F900F229091102220917E2430917F24280FCB
S1131FA0391F248F358FC80FD91FC0930F22D093A8
S1131FB01022ECE2F2E202E00693DF91CF910F915E
S1131FC00895FC018181E82FE7708E2F90E0FC01D9
S1131FD03197E730F105C0F4E25EFE4F8DC680E133
S1131FE090E0089580E290E0089580E490E0089500
S1131FF080E890E0089580E091E0089580E092E028
S113200008958FEF93E0089588E090E00895282FD5
S11320102F7030E0220F331F082E000C990B8827F5
S1132020990F881F9927820F931F02979C01220FF3
S1132030331F220F331F220F331F820F931F875624
S11320409E4D08950F93CF938091CC0480FF62C07E
S113205081E08093CC04E4E2F2E200E80693ECE24F
S1132060F2E200E806938093CA04E4E2F2E200E1BB
S1132070069380911322882329F08350823008F438
S11320802CDFE8DE8091262290912722089709F020
S113209043C088E0EFECF1E2A6E7B4E201900D92D0
S11320A08A95E1F7E8ECF4E08081806280838081A6
S11320B08062808320DBC82F811103C0F2DEC1E07F
S11320C02CC08091762488236CF4109211221092F3
S11320D0122210920F221092102282E08093132277
S11320E004DF1BC080917C2490917D24892B11F402
S11320F0E6DE13C0109211221092122210920F22C7
S11321001092102281E080931322E4E2F2E202E0D2
S1132110069303C0C0E001C0C1E08C2FCF910F91A2
S113212008958F929F92AF92BF92DF92EF92FF92A7
S11321300F931F93CF93DF93D82E69DF8C01BD2CAF
S1132140BB1CBB24BB1CCD2DCF70D0E0CC0FDD1F3E
S1132150CB0DD11DCE01880F991F880F991F880FB1
S1132160991F9C012C5D3D4D7901C9012ADF4C0169
S1132170BB2009F470C0FE01EE0FFF1FEE0FFF1F1E
S1132180EE0FFF1FEC5EFD4D26893789D8011596A9
S11321908D919C911697820F931F15968D939C9306
S11321A0169713962D913C9114978217930709F46F
S11321B03CC0281B390B2115B4E03B0738F02FEF46
S11321C033E0C901B40171D5281B390BF8018081B2
S11321D081FF09C0C901B40168D541E0892B09F028
S11321E040E0842F01C080E0D8019C9180FB91F9EC
S11321F09C93CC0FDD1FCC0FDD1FCC0FDD1FCC5EFD
S1132200DD4D1E8A1F8A2A8B3B8B11962D913C91A2
S1132210129715968D919C911697820F931F8C8B14
S11322209D8BF70102E00693CAC0D8018C9181FF0F
S1132230B3C08D7F8C93CC0FDD1FCC0FDD1FCC0F73
S1132240DD1FCC5EDD4D1E8A1F8A1A8A1B8AF701A8
S113225002E00693B4C0FE01EE0FFF1FEE0FFF1F56
S1132260EE0FFF1FEC5EFD4DA288B388D8018C9160
S113227082FF19C01196ED91FC91129715962D913C
S11322803C91169713968D919C911497B4010DD59A
S1132290B0E4DB9EB001112467567F4DAC01CF0141
S11322A0820F931F3ED5F801258136812A0D3B1DEF
S11322B025833683838194818217930768F4858309
S11322C09683CC0FDD1FCC0FDD1FCC0FDD1FCC5E42
S11322D0DD4D8E899F8960C0FE01EE0FFF1FEE0F5A
S11322E0FF1FEE0FFF1FEC5EFD4D468957894A150F
S11322F05B0509F051C02817390709F44DC0AC013A
S1132300421B530B9A01211554E0350750F02FEF6F
S113231033E0C901B401C9D4D901A81BB90BCD015B
S113232007C0C901B401C1D4F901E81BF90BCF01FD
S1132330FE01EE0FFF1FEE0FFF1FEE0FFF1FEC5EFF
S1132340FD4D128A138A8815990578F4D8018C9169
S113235084608C93B0E4DB9EC001112487569F4DAA
S1132360848B958B868A978A13C0F80141815281A8
S113237025813681240F351FCC0FDD1FCC0FDD1FC7
S1132380CC0FDD1FCC5EDD4D2C8B3D8B8E8B9F8B5C
S1132390F70102E0069313C0D8018C9180FF0FC0AF
S11323A08E7F8C931796ED91FC911897309739F0A6
S11323B015966D917C9116974D2D80E00995DF91CE
S11323C0CF911F910F91FF90EF90DF90BF90AF904E
S11323D09F908F900895CF93CFB7F89481E011DD4B
S11323E0EAECF4E080E4808380E28083E1ECF4E0D2
S11323F0808181608083A9ECB4E08C9182608C93AD
S1132400E8ECF4E08081806480838C9181608C931B
S1132410808180688083CFBFCF910895CF93DF936D
S1132420C0E6D0E0188280E30E94A409E0ECF4E066
S113243080818064808381E08883CFB7F89480E0D2
S113244090E0FC01EE0FFF1FEE0FFF1FEE0FFF1FCA
S1132450EC5EFD4D118A01968830910591F7E9E90A
S1132460F1E280818E7F8083E2EAF1E280818E7FD7
S11324708083EBEAF1E280818E7F8083E4EBF1E2FA
S113248080818E7F8083EDEBF1E280818E7F80837B
S1132490E6ECF1E280818E7F80836AE170E082E085
S11324A0A6DC8F3F19F08093FA0403C08FE1809378
S11324B0FA046BE170E082E09ADC8F3F19F08093BC
S11324C0FB0403C08FE18093FB04E0ECF4E0808123
S11324D08360808380818068808380818061808341
S11324E084E292E2868397838081806280838FEF87
S11324F08093C504E8ECF4E08081826080831092CC
S113250068228091692E8F3F09F4FFCF9FB7F8941A
S1132510E4E6FEE285818F5F85839FBF5CDFCFBFEA
S1132520DF91CF9108958093C30408958091C304EB
S11325300895E6E7F4E280879187628773870895B8
S1132540282F2F7030E0220F331F082E000C990B18
S11325508827990F881F9927820F931FFC01EE0F7C
S1132560FF1FEE0FFF1FEE0FFF1FEC5EFD4D2189D5
S1132570207C09F058C06370613011F018F404C075
S113258020EC03C020E801C020E440385105E9F004
S113259050F440325105A9F040345105A1F04031C6
S11325A05105D9F40CC0411532E0530791F04F3F67
S11325B033E0530781F04115514079F408C041E0FC
S11325C00DC042E00BC043E009C044E007C045E051
S11325D005C046E003C047E001C040E0FC01EE0F47
S11325E0FF1FEE0FFF1FEE0FFF1FEC5EFD4D118A64
S11325F0DC01AA0FBB1FAA0FBB1FAA0FBB1FAC5D38
S1132600BD4D36E03C93242B218B880F991F880FF6
S1132610991F880F991FFC01EC5EFD4D8189806232
S1132620818B81E0089580E00895E82FEF70F0E059
S1132630EE0FFF1F082E000C990B8827990F881F97
S11326409927E80FF91FEE0FFF1FEE0FFF1FEE0F84
S1132650FF1FEC5EFD4D818982FB882780F9089578
S1132660282F2F7030E0A901440F551F282F082E62
S1132670000C330B2227330F221F3327240F351F5F
S1132680F901EE0FFF1FEE0FFF1FEE0FFF1FEC5EB1
S1132690FD4D918992FF17C0220F331F220F331F64
S11326A0220F331FF901EC5EFD4D91899B7F918BC5
S11326B0AEDCFC01808180FF06C08E7F80830780B2
S11326C0F085E02D099581E008957F928F929F9285
S11326D0AF92BF92CF92DF92EF92FF920F931F932C
S11326E0CF93DF93982E862E6A01790190DC5C01EA
S11326F0792C771C7724771CC92DCF70D0E0CC0FB0
S1132700DD1FC70DD11DFE01EE0FFF1FEE0FFF1FD2
S1132710EE0FFF1FEC5EFD4D8189807C09F47DC0C6
S1132720FE01EE0FFF1FEE0FFF1FEE0FFF1FEC5E0B
S1132730FD4D8189807C803C61F0FE01EE0FFF1F1E
S1132740EE0FFF1FEE0FFF1FEC5EFD4D818982FD32
S113275066C08FB7F894F501908190FF03C08FBFD6
S1132760712C5EC0F5019081916090838FBFC1820E
S1132770D282E382F4821582168207831087811045
S113278006C091E0E114F10419F090E001C091E079
S1132790F501808190FB81F98B7F8083772059F04C
S11327A0CC0FDD1FCC0FDD1FCC0FDD1FCC5EDD4D4C
S11327B01E8A1F8A2DC0FE01EE0FFF1FEE0FFF1FA2
S11327C0EE0FFF1FEC5EFD4D8189807C803CA1F4FF
S11327D0CE01880F991F880F991F880F991F8C5D50
S11327E09D4DEFDBBC01C70160D2892B29F0F501B7
S11327F080818E7F808314C0CC0FDD1FCC0FDD1F42
S1132800CC0FDD1FCC5EDD4D1A8A1B8A1E8A1F8AFF
S1132810892D87DC7724739403C0712C01C0712C3B
S1132820872DDF91CF911F910F91FF90EF90DF9053
S1132830CF90BF90AF909F908F907F900895FF921C
S11328400F931F93CF93DF93182FF82EFF1CFF24B1
S1132850FF1CC82FCF70D0E0CC0FDD1FCF0DD11DD2
S1132860D6DBDC01FE01EE0FFF1FEE0FFF1FEE0FA4
S1132870FF1FEC5DFD4D02E005938C9180FF22C0AB
S11328808E7F8C931796ED91FC9118973097D1F029
S1132890FF2059F0CC0FDD1FCC0FDD1FCC0FDD1F47
S11328A0CC5EDD4D6E897F890AC0CC0FDD1FCC0F55
S11328B0DD1FCC0FDD1FCC5EDD4D6A897B89412F86
S11328C081E00995DF91CF911F910F91FF900895B9
S11328D0CF93C82FB4DFEC2FEF70F0E0EE0FFF1FA3
S11328E08C2FCC0F990B8827990F881F9927E80FF5
S11328F0F91FEE0FFF1FEE0FFF1FEE0FFF1FEC5E21
S1132900FD4D118ACF9108950F93E82FEF70F0E0F9
S1132910EE0FFF1F282F082E000C330B2227330F36
S1132920221F3327E20FF31FDF01AA0FBB1FAA0FD9
S1132930BB1FAA0FBB1FAC5EBD4D51969C91519716
S1132940946051969C93EE0FFF1FEE0FFF1FEE0F46
S1132950FF1FEC5DFD4D01E0069371DF81E00F91F7
S113296008951F920F920FB60F9211240F932F9375
S11329703F934F935F936F937F938F939F93AF9303
S1132980BF93EF93FF938091CB04882344F480E8B2
S11329908093CA040E944B0B0E94EE038AC080916C
S11329A0CB0482FF20C084E08093CA0480912C224F
S11329B086FF7FC08091CC0481FD7BC043DB811105
S11329C078C080911322813011F479DA72C0843096
S11329D009F06FC0EDE2F2E204E00593E5E2F2E211
S11329E004E0059366C08091CB0481FF5DC082E062
S11329F08093CA048091242286FF5BC08091CC041A
S1132A0081FD57C01FDB811154C080911322823095
S1132A1041F484E080931322E4E2F2E202E00693BC
S1132A2048C0833009F045C0EDE2F2E204E00593CA
S1132A30E5E2F2E204E005933CC080E18093CA043D
S1132A4081E0FDDE81E8FBDE82E0F9DE82E8F7DE8C
S1132A500E94260B1092C304E4E1F2E2118A96E08C
S1132A60908B83E4818B118E908F818F8FEC91E218
S1132A70848B958BEFD91DC08091CB0486FF08C051
S1132A8080E48093CA0480E0BCD90E94EC0311C0A6
S1132A908091CB0485FF0DC080E28093CA0481E05D
S1132AA0B0D90E94ED0305C08091CB0484FDC5CF4D
S1132AB0E3CFFF91EF91BF91AF919F918F917F9160
S1132AC06F915F914F913F912F910F910F900FBE96
S1132AD00F901F9018951F920F920FB60F9211240A
S1132AE00F931F932F933F934F935F936F937F9312
S1132AF08F939F93AF93BF93CF93DF93EF93FF9302
S1132B008091CC0481FD03C09DDA8111B9C082E0BB
S1132B108093CC048091C5048195880FE4E2F2E2AD
S1132B20E81BF109208131812452324236952795E0
S1132B303695279536952795822F869520FD02C0D8
S1132B4090E001C090E8890FE82FEF70F0E0EE0FFD
S1132B50FF1F282F082E000C330B2227330F221FB0
S1132B603327E20FF31FDF01AA0FBB1FAA0FBB1FFE
S1132B70AA0FBB1FAC5DBD4D9C9195FF81C0FD01AB
S1132B8000E20693811177C080911322843019F4F6
S1132B90A4D960D975C00091262210912722809172
S1132BA0802490918124C0910F22D09110229E0103
S1132BB0200F311F8217930718F48C010C1B1D0B77
S1132BC080917E2490917F24A8016FEC71E28C0F98
S1132BD09D1FA7D0C00FD11FC0930F22D0931022E6
S1132BE00034110569F480911122909112228C0F06
S1132BF09D1F20917C2430917D248217930780F0BF
S1132C00E6E7F4E2C287D3870684F785E02D3097A0
S1132C1029F00995811102C044D932C050D930C07D
S1132C208091802490918124C817D907F9F4E09108
S1132C308424F0918524309711F433D921C0099567
S1132C40811102C02ED91CC0209111223091122270
S1132C5080910F2290911022820F931F8093112252
S1132C609093122210920F2210921022E4E2F2E2C8
S1132C7002E0069305C0803811F437D901C051DA57
S1132C80FF91EF91DF91CF91BF91AF919F918F9180
S1132C907F916F915F914F913F912F911F910F9170
S1132CA00F900FBE0F901F901895AA1BBB1B51E1EC
S1132CB007C0AA1FBB1FA617B70710F0A61BB70BA8
S1132CC0881F991F5A95A9F780959095BC01CD014D
S1132CD0089597FB072E16F4009406D077FD08D0CC
S1132CE0E4DF07FC05D03EF4909581959F4F08954D
S1132CF0709561957F4F0895EE0FFF1F0590F49135
S1132D00E02D0994A29FB001B39FC001A39F700D51
S1132D10811D1124911DB29F700D811D1124911DDF
S1132D200895FB01DC0102C001900D924150504016
S10B2D30D8F70895F894FFCFD1
S1132D3840000CE02E0AFFFFFF5580008000DE09EA
S1132D48E909EF09DB0900004C201E2000002420BB
S1132D5822200E200902270001010080FA0904003C
S1132D680003FFFFFF000705810100010107058239
S1132D78010001010705830100010100120100029D
S1132D8800000040EB0300A0000201020001000063
S1132D980003000000000000000000000000000024
S1132DA80000000000000000000000000000000017
S1132DB80000000000000000000000000000000007
S1132DC80000555342476F62696E6461722044750E
S1132DD86D6D792044657669636500546170697224
S10D2DE85465636800000403090445
S9030000FC
