S01500005553425F42554C4B5F544553542E73726563F9
S113000024C100003EC100003CC100003AC1000010
S113001038C1000036C100000C94C00832C1000091
S113002030C100002EC100002CC100002AC1000014
S113003028C1000026C1000024C1000022C1000024
S113004020C100001EC100001CC100001AC1000034
S113005018C1000016C1000014C1000012C1000044
S11300600C94B1090EC100000CC100000AC10000CB
S113007008C1000006C1000004C1000002C1000064
S113008000C10000FEC00000FCC00000FAC0000077
S1130090F8C00000F6C00000F4C00000F2C0000088
S11300A0F0C00000EEC00000ECC00000EAC0000098
S11300B0E8C00000E6C00000E4C00000E2C00000A8
S11300C0E0C00000DEC00000DCC00000DAC00000B8
S11300D0D8C00000D6C00000D4C00000D2C00000C8
S11300E0D0C00000CEC00000CCC00000CAC00000D8
S11300F0C8C00000C6C00000C4C00000C2C00000E8
S1130100C0C00000BEC00000BCC00000BAC00000F7
S1130110B8C00000B6C00000B4C0000076C400003F
S1130120B0C00000AEC00000ACC00000AAC0000017
S1130130A8C00000A6C00000A4C00000A2C0000027
S1130140A0C000009EC000009CC000000C941109D7
S113015098C0000096C0000094C0000092C0000047
S113016090C000008EC000008CC000008AC0000057
S113017088C0000086C0000084C0000082C0000067
S113018080C000007EC000007CC000007AC0000077
S113019078C0000076C0000074C0000072C0000087
S11301A070C000006EC000006CC000006AC0000097
S11301B068C0000066C0000064C0000062C00000A7
S11301C060C000005EC000005CC000005AC00000B7
S11301D058C0000056C0000054C0000052C00000C7
S11301E050C000004EC000004CC000004AC00000D7
S11301F048C000000C94DD140C949715C80BD30B65
S11302000F0C4B0C540C590C9E0CA30CFF0B010C43
S1130210030C050C070C090C0B0C0D0C3B0C3D0CD2
S11302203F0C410C430C450C470C490C650C6D0C00
S1130230750C800C820C840C8C0C940C1B101E10FE
S11302402110241027102A102D1011241FBECFEFC7
S1130250CDBFDFE2DEBF10E2A0E0B0E2E0E9FDE204
S113026002C005900D92A63CB107D9F72EE2A6EC88
S1130270B0E201C01D92A637B207E1F77FD20C9419
S1130280C616BECE1F93CF93DF93C0E5D0E014E033
S11302901E838CE174D3E0E6F0E083838BEB8683EA
S11302A080E8858381E0808388ED84BF10934100DA
S11302B083E08883E0E5F0E081818330E9F7E0E5DD
S11302C0F0E080818160808388E18583818180FF83
S11302D0FDCFE0E5F0E0808180618083818184FF4F
S11302E0FDCF88ED84BF84E080934000DF91CF91FF
S11302F01F910895E0E7F0E085818E7F8583E0E03B
S1130300FAE08FEB9DE586A397A380EE9EE280A39F
S113031091A381E0808308958091200A9091210A1D
S1130320813E2EE2920720F020917A2220936A00E7
S1130330803E2EE2920720F42091772220936A00D7
S113034020910520222331F0809105208150809353
S113035005201DC0885F9A42813D9740C0F01092ED
S1130360C6208091C7209091C820A091C920B09147
S1130370CA200196A11DB11D8093C7209093C82067
S1130380A093C920B093CA2086E080930520809171
S11303900F20909110200196B1F4809111208F3F8D
S11303A091F080910620811106C080910620815031
S11303B080930620089580911401909115018093F3
S11303C00F20909310200895009709F466C00CF054
S11303D09C01992334F422273327281B390B51E03D
S11303E001C050E0E8E6F0E0838190E08093782259
S11303F09093792280917822909179229695982FE2
S113040088279795879580937822909379224281C3
S11304108091782290917922840F911D8093782283
S1130420909379220000809178229091792282170A
S1130430930728F4109278221092792208958091DB
S1130440782290917922820F931F8115904238F07F
S11304508FEF9FE18093782290937922089555231A
S113046059F08091782290917922821B930B80938A
S11304707822909379220AC08091782290917922EF
S1130480280F391F20937822309379228091782283
S1130490909179228F7780936A000895CF93DF93A8
S11304A0C091200AD091210A8091032090910420C8
S11304B09E01281B390B20937B2230937C22809150
S11304C0C62081114DC080917B2290917C228E3C6C
S11304D09F4FE4F480917B2290917C228B369F4F36
S11304E0ACF080910220882331F080910220815069
S11304F08093022035C080916A0080937A2281E043
S11305008093C6208CE0809302202AC08CE08093E4
S1130510022080917B2290917C228A369F4F1CF08E
S11305208FEF9FEF02C081E090E08093752290935B
S1130530762280917B2290917C22209175223091A9
S1130540762260E370E00E949516261B370B2093F9
S1130550752230937622809175229091762234DF31
S11305608091C620813029F580917B2290917C2254
S1130570C39794F080910220882331F08091022067
S113058081508093022015C080916A008093772265
S113059083E08093C6200DC080917B2290917C22C1
S11305A0873991051CF481E090E002C08FEF9FEF42
S11305B00BDFC0930320D0930420DF91CF910895E3
S11305C08617970779F06817790728F49C01261B8A
S11305D0370BB90109C08617970718F4681B790B04
S11305E003C0089560E070E0862F972F0895CF939D
S11305F0DF938091002090910120892B51F080910C
S11306000020909101200197809300209093012075
S113061065C080E490E08093002090930120809155
S11306200F2090911020019609F458C0C091140134
S1130630D091150160910F2070911020CE01C0DF80
S1130640893C910500F1AE0149585E4F9A013695F7
S11306502795A1EBBBE20E94AE16EC010024CC0F5F
S1130660DD1F001CCC0FDD1F001CCD2FD02D2EEE66
S113067032E0C29FC001C39F900DD29F900D112400
S1130680EA01C81BD90B80910F20909110208C1780
S11306909D0778F460910F2070911020CE0190DFB7
S11306A0029738F080EC9DE58093360A9093370AE0
S11306B015C080910F2090911020C817D90770F4AD
S11306C060910F2070911020CE017ADF029730F0F4
S11306D08FEB9DE58093360A9093370ADF91CF9193
S11306E00895AC01460F571F861B970BE0E0FAE014
S11306F020A131A124173507D8F720A131A18217F1
S11307009307B0F70895E0E8F6E08FE0808385E092
S11307108483089508954091D22027E731E0429FD1
S1130720C001439F900D11244BE853E06AEF70E041
S11307308E56994D9EC608954091D22027E731E008
S1130740429FC001439F900D11244CE953E06AEF8E
S113075070E08457984D99C608954091D22027E7B8
S113076031E0429FC001439F900D11244DEA53E0B4
S11307706AEF70E08A57974D94C6089587E0809396
S1130780A20078947FDDC6DF83D752D175D160E0B3
S113079080E0FED0EAD08CE0DDD001D5BCD5D3D545
S11307A0B2DF80917E2290917F22A0918022B0912D
S11307B081220196A11DB11D813021EE920725EF02
S11307C0A20725E0B20718F080E090E0DC01000009
S11307D00000000000000000000000000000000015
S11307E000000000000000000000E3CF0895089519
S11307F0F89480911401909115018634914080F011
S11308008091140190911501893A914048F48091A6
S113081014019091150180936E2E90936F2E000019
S11308208091D020882341F065DD1092D02081E0B2
S11308308093CF20789408958091CF208823B9F1B4
S11308408091C620833019F467DDD1DE01C026DE35
S11308508091CB208F3731F51092CB20E091CC20C2
S1130860F091CD208091140190911501EE0FFF1F9E
S1130870E259F34D808391838091CC209091CD20D7
S11308808F3F910529F41092CC201092CD200FC0F7
S11308908091CC209091CD2001968093CC20909390
S11308A0CD2005C08091CB208F5F8093CB20809199
S11308B0CE20882351F080911401909115018093EA
S11308C06E2E90936F2E1092CE20209114013091B1
S11308D0150181E02737314008F080E08093D22071
S11308E07894089581E08093D5208093D0204BE8BC
S11308F053E06AEF70E082E996E2BBD54CE953E03D
S11309006AEF70E08CE897E2C0D54DEA53E06AEFF5
S113091070E086E898E2C5D581E008951092D5206C
S1130920089581E0089581E00895E0E0F2E010A2E6
S1130930982F9C71936890A388231CF490E182E023
S113094002C090E080E0892BE0E0F2E081A312A2F3
S113095016A20895E0E0F2E010AA836880AB80E17B
S113096081AB83E082AB16AA0895E0E0F2E010A622
S113097083E880A78FE281A712A616A60895AAECA1
S1130980B1E092E09C93E82FF0E084911C920895EA
S1130990CF93DF93E0E7F0E091819D7F9183109204
S11309A00002623031F1E0E0F2E09CE1918390E4F6
S11309B09283811102C080E401C080EC8093030221
S11309C0613011F083E001C082E0C0E0D2E08C83AA
S11309D080E2D5DF8C8781E2D2DF8D87188E198E75
S11309E081E08883C2DF0EC080EC8093030283E041
S11309F0ECCFE0E0F2E09EE1918390E492838111F8
S1130A00F3CFD9CFDF91CF9108951F920F920FB6F4
S1130A100F9211248F93000000000000000081E079
S1130A20809323028F910F900FBE0F901F90189503
S1130A30CF93DF93E0E7F0E082818B7F8283C0E293
S1130A40D3E08DE0888380E4898389E08A8383E32B
S1130A5096DF888782E393DF898787E390DF8A873D
S1130A6086E38DDF8B87E0E2F6E08081836080831C
S1130A701482DF91CF910895E0E7F0E080818E7FCA
S1130A80808383E8809300010895E0E0F1E0108A18
S1130A9080E4808B10A280A310AA80ABE0E4F1E094
S1130AA0108280831092D4201092D32081E080930E
S1130AB0D2200895CF93DF93F89410921120E5DFAC
S1130AC0C0E0D1E01EAA84E288AB19AA49E54AAB8A
S1130AD092E09BAB20911320309114202CAB3DABC2
S1130AE022E934E228AF39AF1AAE2BE32CAF23E06E
S1130AF020933D0110923E0138A9306838AB109222
S1130B004601E0E4F1E08083109241014093420108
S1130B1020934301409115205091162040934401A5
S1130B205093450142E852E24093480150934901F1
S1130B3010924A0139E330934C0120934D011092F5
S1130B404E01208120682083188A20E4288B888B1A
S1130B50998B25E92A8B20E12B8B2EEE32E02C8B0E
S1130B603D8B888F998F1A8E82E996E28C8F9D8FA8
S1130B701E8E68EC70E084EF91E0B3DD1092D42017
S1130B801092D32081E08093D2208FEF9FEF809347
S1130B900F209093102085E0809306208889806838
S1130BA0888B7894DF91CF910895CF93DF9381E080
S1130BB0809311206ADFE0E0F1E010AA80E480ABCA
S1130BC094E090AB11AA12AA5BE453AB14AA15AA41
S1130BD016AA22E130E220AF31AF12AE40EA44AFB0
S1130BE038E030933D0110923E0180A9806A80ABC9
S1130BF085E58093A00810924601A0E4B1E0D4E218
S1130C00DC931092410189E580934201C2E0C093D4
S1130C1043016091132070911420609344017093F8
S1130C20450162E974E260934801709349011092AE
S1130C304A018BE380934C0183E080934D01109231
S1130C404E012C9120682C93908B818BA1E9A28B6F
S1130C5020E1238B67E771E0648B758BD08FC18FA4
S1130C60128EC2E9D6E2C48FD58F168E20892068F1
S1130C70208B90A381A3A2A353A364A375A340A72D
S1130C8031A712A689E098E284A795A716A680A1A9
S1130C90806880A3DF91CF910895CF93F894C2E048
S1130CA0C0931120F2DEE0E0F1E016AA94E290ABEA
S1130CB011AA39E532AB83E083AB40911520509102
S1130CC0162044AB55AB42E852E240AF51AF12AEEE
S1130CD029E324AF80933D0110923E0120A92068AE
S1130CE020AB10924601A0E4B1E09C931092410124
S1130CF030934201C093430120911320309114207A
S1130D00209344013093450122E934E220934801C1
S1130D103093490110924A012BE320934C018093B4
S1130D204D0110924E012C9120682C9354E0508B6D
S1130D30818B41E9428B20E1238B27E731E0248B2F
S1130D40358B908FC18F128E62E976E2648F758F36
S1130D50168E90899068908B50A381A342A382E160
S1130D6083A324A335A384E380A7C1A712A689E0A3
S1130D7098E284A795A716A680A1806880A378949A
S1130D80CF910895CF93C3E0C09311207EDEE0E0BD
S1130D90F1E010A250E450A344E040A311A212A237
S1130DA03BE433A314A215A216A282E190E280A729
S1130DB091A712A620EA24A798E095A716A680A1D9
S1130DC0806A80A385E58093A00816AA74E270ABBC
S1130DD011AA69E562ABC3ABA0911520B0911620AE
S1130DE0A4ABB5ABA2E8B2E2A0AFB1AF12AE89E357
S1130DF084AFC0933D0110923E0180A9806880AB0E
S1130E0010924601A0E4B1E07C93109241016093FA
S1130E10420182E080934301609113207091142079
S1130E20609344017093450162E974E26093480160
S1130E307093490110924A018BE380934C01C09353
S1130E404D0110924E018C9180688C93108A508BC6
S1130E50408BC18B81E9828B338B47E751E0448B14
S1130E60558B208F918F128E82E996E2848F958F15
S1130E70168E80898068808BCF910895CF93C4E0CB
S1130E80C093112002DEE0E0F1E010A280E480A330
S1130E90C0A311A212A24BE443A314A215A216A24A
S1130EA082E190E280A791A712A660EA64A788E095
S1130EB085A716A690A1906A90A395E59093A008A3
S1130EC010924601A0E4B1E094E29C931092410197
S1130ED099E59093420192E090934301209113206D
S1130EE030911420209344013093450122E934E2E7
S1130EF0209348013093490110924A019BE3909357
S1130F004C0193E090934D0110924E012C91206876
S1130F102C93C08B918B31E9328B438B47E751E0A3
S1130F20448B558B608F818F128E62E976E2648FD9
S1130F30758F168E20892068208BC0AB91AB32ABA5
S1130F409AE493AB44AB55AB93EC90AF81AF12AE44
S1130F5089E098E284AF90933D0110923E0180A90C
S1130F60806880ABCF91089585E0809311208DDD5A
S1130F70E0E0F1E016AA34E230AB11AA29E522AB95
S1130F8083E083AB409115205091162044AB55ABC0
S1130F9042E852E240AF51AF12AE99E394AF80936E
S1130FA03D0110923E0190A9906890AB10924601C9
S1130FB0E0E4F1E0308310924101209342018093F8
S1130FC04301209115203091162020934401309341
S1130FD0450122E934E220934801309349011092FB
S1130FE04A019BE390934C0180934D0110924E0172
S1130FF0808180688083089586E08093112045DD98
S1131000E0E0F1E016AA94E290AB11AA39E532AB24
S113101083E083AB409115205091162044AB55AB2F
S113102042E852E240AF51AF12AE29E324AF8093BD
S11310303D0110923E0120A9206820AB1092460188
S1131040A0E4B1E09C93109241013093420132E05C
S11310503093430140911320509114204093440154
S11310605093450142E954E24093480150934901A9
S113107010924A012BE320934C0180934D0110926E
S11310804E012C9120682C93108A20E4208B24E0BC
S1131090208B818B81E9828B80E1838B4EEE52E041
S11310A0448B558B908F318F128E82E996E2848F18
S11310B0958F168E80898068808B089587E0809351
S11310C01120E3DCE0E0F1E016AA94E290AB11AA6F
S11310D039E532AB83E083AB409115205091162063
S11310E044AB55AB42E852E240AF51AF12AE29E3F4
S11310F024AF80933D0110923E0120A9206820ABCB
S113110010924601A0E4B1E09C9310924101309307
S1131110420132E030934301409113205091142056
S1131120409344015093450142E954E240934801FD
S11311305093490110924A012BE320934C01809370
S11311404D0110924E012C9120682C93108A20E4BA
S1131150208B25E0208B818B81E9828B80E1838B3E
S11311604EEE52E0448B558B908F318F128E82E974
S113117096E2848F958F168E80898068808B08957F
S11311801F920F920FB60F9211248F9381E08093D8
S113119003018F910F900FBE0F901F901895E0E7F9
S11311A0F0E083818C7F838384818C7F848380813E
S11311B08D7F8083E0E8F1E080EC8283128688EC06
S11311C081831186A0E0B8E034E03C9323E01196DB
S11311D02C93119714961C92149785ED91E0969692
S11311E08D939C93979716961C921697E0E4F8E0DB
S11311F030832183148286A397A31682E0E6F6E067
S1131200808180618083E0E4F9E083E1818314825A
S113121082E08683A6A3B7A310A611A681E08083EB
S113122008951F920F920FB60F9211242F933F939C
S11312304F935F938F939F93EF93FF93CF93DF939A
S11312401F92CDB7DEB78FEF80934C0980911120A8
S1131250873031F4E0E0F2E084A5898395A502C0EB
S113126090912C028091D120891B209168093091A2
S1131270690991E082300CF490E09923C9F091E07F
S11312802A3F374008F090E0992391F020916809B3
S11312903091690989301CF481E090E002C086E055
S11312A090E0820F931F809378099093790923C06B
S11312B0209168093091690991E08F3F0CF090E02A
S11312C09923C9F091E02730310508F490E099237F
S11312D091F02091680930916909883F1CF081E000
S11312E090E002C086E090E0A901481B590B4093AE
S11312F07809509379090F90DF91CF91FF91EF9185
S11313009F918F915F914F913F912F910F900FBEBD
S11313100F901F901895E0E7F0E083818F7E838320
S1131320E0E4F6E080818A6A80838FEF848388E535
S1131330828BE0EAF8E084EC858383E0868317827D
S113134088E184830895E0E7F0E08381877F8383E5
S1131350E0ECF8E080E48083118288E58093550610
S113136008951F920F920FB60F92112400000F9050
S11313700FBE0F901F9018959FB7F894E82FF0E0D8
S1131380E059FF4F60958081682360839FBF089573
S1131390863011F060E001C068E18091510081FD68
S11313A026C09FB7F894E0E5F0E0808182608083F6
S11313B09FBF818181FFFDCF9FB7F894A0E5B0E086
S11313C016968C911697897F16968C931697E0E65D
S11313D0F0E080E885838BEB868316968C911697D4
S11313E0846016968C938081816080839FBF636044
S11313F084E490E022D560E480E0BECF089580913B
S1131400D620089540D1FC0183818093D620811198
S113141002C068CA089581E008958091D620813081
S113142009F47CCA08958091822488234CF4807640
S11314308034A9F480918324811113C074CA08955F
S11314408076803481F48091832481110EC0809150
S1131450882490918924892B51F063CA089580E0EF
S1131460089580E0089580E0089580E0089580E084
S113147008950F931F939B018A01AC0160E081E8FA
S11314800E9491131F910F9108950F931F939B0135
S11314908A01AC0160E082E80E9491131F910F91D0
S11314A008950F931F939B018A01AC0160E083E8C8
S11314B00E9491131F910F910895E091DB20F09108
S11314C0DC200190F081E02D228133812E0F3F1F1B
S11314D0FC014081E40FF11DE217F307B8F48181A8
S11314E08430B9F0861309C005C081818430A1F02D
S11314F0861303C08E2F9F2F08958081E80FF11D5E
S1131500E217F30790F380E090E0089580E090E024
S1131510089580E090E0089580E090E0089580913F
S113152084248F770C94BF1208959091DE20992320
S113153081F1E091DB20F091DC200190F081E02D3D
S11315409481891740F5E093D920F093DA20228121
S113155033812E0F3F1FE217F307F8F49181943083
S113156061F49281981309C09381961306C0E093A5
S1131570D920F093DA2081E008959081E90FF11DDC
S1131580E217F30758F3E093D920F093DA2080E0D0
S1131590089580E0089580E0089580E00895EF9232
S11315A0FF921F93CF93DF93C82F60E0BEDF182F05
S11315B0882381F1A091DB20B091DC20EC2FF0E0B6
S11315C0EE0FFF1F12968D919C911397E80FF91F50
S11315D0E080F180D7011696ED91FC91179709955B
S11315E0682F8C2FA2DF182F8823A1F0C091D92057
S11315F0D091DA2065E0CE0160DFEC01892B21F087
S11316008A810E949414F6CFD7011296ED91FC9131
S113161013970995812FDF91CF911F91FF90EF9040
S113162008951F93CF93DF93182F7FDF882339F119
S1131630C091D920D091DA2065E0CE013EDFEC01E3
S1131640892B41F04C815D816B818A81A5D7811101
S1131650F3CF15C0A091DB20B091DC20E12FF0E0A6
S1131660EE0FFF1F12968D919C911397E80FF91FAF
S11316700190F081E02D0190F081E02D0995DF913A
S1131680CF911F9108958091D9209091DA200895E7
S1131690F1C60895CF938091DE208823C1F0E091B4
S11316A0DB20F091DC200190F081E02D84818823FF
S11316B071F0C0E08C2F73DFCF5FE091DB20F091FD
S11316C0DC200190F081E02D8481C81798F31092FA
S11316D0DE201092E2201092E320CF910895CF9360
S11316E08091DE20882349F1A091DB20B091DC2099
S11316F0ED91FC91119784818823F9F0C0E0EC2FDF
S1131700F0E0EE0FFF1F12968D919C911397E80F56
S1131710F91F0190F081E02D0084F185E02D3097D0
S113172009F00995CF5FA091DB20B091DC20ED9109
S1131730FC9111978481C81710F3CF9108950F93EA
S11317401F93CF93DF93E2E8F4E2128613861486A4
S1131750158616861786808188233CF42091882478
S113176030918924232B09F45CC38076803409F0FA
S1131770FAC0E09183248E2F90E0FC01E05AF10935
S1131780E830F10508F0E6C0E250FF4F0C94A816CB
S113179081E08093CE20609188247091892487E031
S11317A090E2F3D642C3E0E0F8E01082C2E8D4E26B
S11317B08A819B8186AB97AB8C818F7080836E818D
S11317C07F8182E892E2E1D68E819F81209115206B
S11317D0309116208217930709F427C380931520AC
S11317E090931620E09111208E2F90E0883091057F
S11317F008F0B2C0FC01EA5FFE4F0C94A8165AD957
S113180014C3D3D912C349DA10C3BCDA0EC336DB0E
S11318100CC3AADB0AC3F0DB08C350DC06C3E0E454
S1131820F8E01082C2E8D4E28A819B8186AB97AB50
S11318308C818F7080836E817F8182E994E2A5D64A
S11318408E819F8120911320309114208217930759
S113185009F4EBC28093132090931420E09111209B
S11318608E2F90E08830910508F078C0FC01E25F8B
S1131870FE4F0C94A8161ED9D8C297D9D6C20DDA39
S1131880D4C280DAD2C2FADAD0C26EDBCEC2B4DB02
S1131890CCC214DCCAC21092680910926909809102
S11318A084248093D120C1C280918424809324060F
S11318B0BCC2E0918424F0918524E830F10508F05D
S11318C04FC0EA5EFE4F0C94A81660E080E060D83A
S11318D0809186242AD8EED8A8C260E080E058D847
S11318E08091862422D861D9A0C261E081E050D8D9
S11318F0C2E8D4E28C8119D88D812CD8CED995C276
S113190041DA93C2BBDA91C260E080E041D88091B1
S113191086240BD829DB89C261E080E039D8809124
S1131920862403D869DB81C262E080E031D88091EB
S1131930862480680E949504C1DB77C28091842448
S11319408093840672C2E9E7F0E091E088EDF894B0
S113195084BF908380E005C081E003C081E001C0C2
S113196080E0811165C280918224982F907609F0DD
S1131970E1C188230CF005C1209188243091892489
S11319802115310509F4D6C18F7109F0A3C09091D6
S11319908324963079F0983009F492C091119AC05A
S11319A02230310509F0C6C162E070E082EE90E2B7
S11319B0ECD53DC28091842490918524292F33272E
S11319C022303105A9F024F42130310541F0A9C1B8
S11319D023303105D9F12F30310551F1A2C1809165
S11319E0212090912220DC016C9170E0CED559C069
S11319F0E0912120F09122202189821708F09AC1D8
S1131A009927880F991F880F991FE0912320F0913F
S1131A102420E80FF91F80819181FC016281738188
S1131A20B4D5E0918A24F0918B2482E0818339C07B
S1131A308091252090912620009709F47BC1DC0138
S1131A4012966D917C911397A0D52BC09927813064
S1131A50910571F038F0029709F06CC18EE990E2BB
S1131A6028E109C064E070E082EC90E28ED519C0F0
S1131A7087EB90E229E0382FAEE6B0E2E82FF92FA9
S1131A80819190E08D939D938E2F831B8217C0F3D9
S1131A90622F660F6E5F60936C2070E08CE690E2BC
S1131AA074D5E2E8F4E28681978122853385821732
S1131AB0930708F0BCC180938C2490938D24B7C104
S1131AC02130310509F036C161E070E08EED90E21D
S1131AD05CD5ADC18130E1F5909183249A30C1F594
S1131AE02130310509F026C18091DE20882309F4D4
S1131AF021C1C0918624D09187240091DB201091CC
S1131B00DC20D801ED91FC918481C81708F012C142
S1131B1060E08C2F0ADD882309F40CC1CE019927DB
S1131B20880F991FD8011296ED91FC911397E80F35
S1131B30F91F0190F081E02D86819781FC010995C0
S1131B408093E02061E070E080EE90E21ED56FC1EA
S1131B50823009F0EFC0809183248111E4C02230E7
S1131B60310509F0E7C0809186248BD590E08093FD
S1131B70D7209093D82062E070E087ED90E205D5FD
S1131B8056C18F7109F083C090918324933009F476
S1131B90CCC018F49130A1F07AC0953019F0993086
S1131BA039F175C08091882490918924892B09F09A
S1131BB0C1C08FE89AE080938E2490938F2437C11C
S1131BC08091882490918924892B09F0B3C0809155
S1131BD0842490918524019709F0ACC08091E2207F
S1131BE09091E3208D7F8093E2209093E3201FC1A6
S1131BF08091882490918924892B09F09BC0C2D4B8
S1131C00882309F497C020918424309185243327B4
S1131C10E0912120F0912220818990E0821793079E
S1131C2008F488C037DD80918424909185248093C2
S1131C30DE20882309F4FBC099278150904C880F3B
S1131C40991F880F991FE0912320F0912420E80F19
S1131C50F91FE093DB20F093DC200190F081E02D6C
S1131C608481882309F4E3C0C0E060E08C2FD9DCD0
S1131C70882309F45FC0CF5FE091DB20F091DC2082
S1131C800190F081E02D8481C81778F3D0C08130B1
S1131C90E1F4909183249B30C1F480918824909145
S1131CA08924892B09F046C08091DE20882309F419
S1131CB041C0E2E8F4E2C481D2818C2F70DC882335
S1131CC0C9F16D2F8C2FADDC33C0823099F5809132
S1131CD08324813019F0833089F029C080918824CD
S1131CE090918924892B31F58091842490918524C5
S1131CF0892B01F580918624DFD41AC08091882431
S1131D0090918924892BB1F4809184249091852425
S1131D10892B81F4C2E8D4E28C81BDD58C8120D694
S1131D2007C080E005C080E003C080E001C080E01F
S1131D3081117EC0809182248F71813071F58091F0
S1131D40DE20882351F10091862410918724C091CC
S1131D50DB20D091DC20E881F98184810817E8F444
S1131D6060E0802FE2DB8823C1F0F801FF27CF0178
S1131D70880F991FEA81FB81E80FF91FC081D18187
S1131D80EE81FF810995682F802FCFDB882329F00E
S1131D90EC81FD81099581114BC0809182248F7162
S1131DA0823009F040C08091DE208823B1F1A091F7
S1131DB0DB20B091DC20ED91FC9111978481882384
S1131DC071F1C0E0EC2FF0E0EE0FFF1F12968D9141
S1131DD09C911397E80FF91F00811181D801169681
S1131DE0ED91FC9117970995682F8C2F9EDB882322
S1131DF0F9F0D8011496ED91FC911597099581118C
S1131E0017C0CF5FA091DB20B091DC20ED91FC9155
S1131E1011979481C917B0F20BC080E009C080E02B
S1131E2007C080E005C080E003C081E001C081E01C
S1131E30DF91CF911F910F9108951BBEFC0128EDF6
S1131E4024BF608308954091CA01E62FF72F809341
S1131E50CA0184914093CA010895811122C09091CE
S1131E6074229923D9F09091712E911101C0FFCF62
S1131E702FB7F894E0E7FEE29181915091832FBF50
S1131E800DC09091712E9F3F09F4FFCF2FB7F894A6
S1131E90E0E7FEE291819F5F91832FBF80937422DC
S1131EA0089590917422992361F3F8CF0F93E8EC8D
S1131EB0F4E080818F7D808380818F7D8083E8E35F
S1131EC0F2E202E0059310923A2210923B2200E2E1
S1131ED0069300E40693E0E3F2E200E2069300E4F2
S1131EE00693E2E8F4E214861586168617861286AF
S1131EF0138610921F220F9108950F9385E080930B
S1131F001F22E9E3F2E204E00593E1E3F2E204E0F4
S1131F1005930F9108950F9383E080931F221092ED
S1131F203A2210923B22E8E3F2E202E006930F9198
S1131F300895E0918E24F0918F24309709F009954B
S1131F4008950F93CF93DF9380911F22833019F468
S1131F50F0DFACDF5EC080911B2290911C22C09107
S1131F608C24D0918D24C81BD90B71F520911D228E
S1131F7030911E22820F931F80931D2290931E2264
S1131F8020918824309189248217930721F080912D
S1131F90E420882341F084E080931F22E0E3F2E20E
S1131FA002E0069336C0E0919024F091912430979A
S1131FB099F00995882381F010921B2210921C221B
S1131FC0C0918C24D0918D24C034D10528F0109276
S1131FD0E420C0E4D0E003C081E08093E420E0E2A8
S1131FE0F2E2C28FD38F80911B2290911C22209108
S1131FF08A2430918B24280F391F248F358FC80FE2
S1132000D91FC0931B22D0931C22E8E3F2E202E022
S11320100693DF91CF910F910895FC018181E82F00
S1132020E7708E2F90E0FC013197E730F105C0F4A2
S1132030E25EFE4F8DC680E190E0089580E290E07C
S1132040089580E490E0089580E890E0089580E0A9
S113205091E0089580E092E008958FEF93E0089571
S113206088E090E00895282F2F7030E0220F331F6E
S1132070082E000C990B8827990F881F9927820F27
S1132080931F02979C01220F331F220F331F220F2D
S1132090331F820F931F8B559E4D08950F93CF933B
S11320A08091CC0480FF62C081E08093CC04E0E3A3
S11320B0F2E200E80693E8E3F2E200E80693809394
S11320C0CA04E0E3F2E200E1069380911F22882330
S11320D029F08350823008F42CDFE8DE809132222C
S11320E090913322089709F043C088E0EBEDF1E2C8
S11320F0A2E8B4E201900D928A95E1F7E8ECF4E0ED
S113210080818062808380818062808318DBC82F15
S1132110811103C0F2DEC1E02CC0809182248823A7
S11321206CF410921D2210921E2210921B22109207
S11321301C2282E080931F2204DF1BC0809188242C
S113214090918924892B11F4E6DE13C010921D228C
S113215010921E2210921B2210921C2281E0809366
S11321601F22E0E3F2E202E0069303C0C0E001C0F4
S1132170C1E08C2FCF910F9108958F929F92AF92CF
S1132180BF92DF92EF92FF920F931F93CF93DF934F
S1132190D82E69DF8C01BD2CBB1CBB24BB1CCD2DF0
S11321A0CF70D0E0CC0FDD1FCB0DD11DCE01880F39
S11321B0991F880F991F880F991F9C01205D3D4D21
S11321C07901C9012ADF4C01BB2009F470C0FE016A
S11321D0EE0FFF1FEE0FFF1FEE0FFF1FE05EFD4D22
S11321E026893789D80115968D919C911697820F6F
S11321F0931F15968D939C93169713962D913C914E
S113220014978217930709F43CC0281B390B211536
S1132210B4E03B0738F02FEF33E0C901B40171D5C6
S1132220281B390BF801808181FF09C0C901B40161
S113223068D541E0892B09F040E0842F01C080E09B
S1132240D8019C9180FB91F99C93CC0FDD1FCC0F9E
S1132250DD1FCC0FDD1FC05EDD4D1E8A1F8A2A8B59
S11322603B8B11962D913C91129715968D919C91D3
S11322701697820F931F8C8B9D8BF70102E00693B8
S1132280CAC0D8018C9181FFB3C08D7F8C93CC0FD1
S1132290DD1FCC0FDD1FCC0FDD1FC05EDD4D1E8AA0
S11322A01F8A1A8A1B8AF70102E00693B4C0FE0152
S11322B0EE0FFF1FEE0FFF1FEE0FFF1FE05EFD4D41
S11322C0A288B388D8018C9182FF19C01196ED9130
S11322D0FC91129715962D913C91169713968D911A
S11322E09C911497B4010DD5B0E4DB9EB001112488
S11322F06B557F4DAC01CF01820F931F3ED5F80182
S1132300258136812A0D3B1D258336838381948163
S11323108217930768F485839683CC0FDD1FCC0F57
S1132320DD1FCC0FDD1FC05EDD4D8E899F8960C02F
S1132330FE01EE0FFF1FEE0FFF1FEE0FFF1FE05E0B
S1132340FD4D468957894A155B0509F051C0281788
S1132350390709F44DC0AC01421B530B9A012115F6
S113236054E0350750F02FEF33E0C901B401C9D46C
S1132370D901A81BB90BCD0107C0C901B401C1D44F
S1132380F901E81BF90BCF01FE01EE0FFF1FEE0F61
S1132390FF1FEE0FFF1FE05EFD4D128A138A8815A2
S11323A0990578F4D8018C9184608C93B0E4DB9E19
S11323B0C00111248B559F4D848B958B868A978AF7
S11323C013C0F8014181528125813681240F351FC4
S11323D0CC0FDD1FCC0FDD1FCC0FDD1FC05EDD4D2C
S11323E02C8B3D8B8E8B9F8BF70102E0069313C0E1
S11323F0D8018C9180FF0FC08E7F8C931796ED913E
S1132400FC911897309739F015966D917C91169739
S11324104D2D80E00995DF91CF911F910F91FF9091
S1132420EF90DF90BF90AF909F908F900895CF93DF
S1132430CFB7F89481E011DDEAECF4E080E4808326
S113244080E28083E1ECF4E0808181608083A9EC08
S1132450B4E08C9182608C93E8ECF4E08081806439
S113246080838C9181608C93808180688083CFBFCE
S1132470CF910895CF93DF93C0E6D0E0188280E334
S11324800E94C809E0ECF4E080818064808381E0EC
S11324908883CFB7F89480E090E0FC01EE0FFF1F33
S11324A0EE0FFF1FEE0FFF1FE05EFD4D118A019638
S11324B08830910591F7E5EAF1E280818E7F80838F
S11324C0EEEAF1E280818E7F8083E7EBF1E28081A6
S11324D08E7F8083E0ECF1E280818E7F8083E9EC63
S11324E0F1E280818E7F8083E2EDF1E280818E7F54
S11324F080836AE170E082E0A6DC8F3F19F080936C
S1132500FA0403C08FE18093FA046BE170E082E087
S11325109ADC8F3F19F08093FB0403C08FE1809312
S1132520FB04E0ECF4E08081836080838081806838
S1132530808380818061808380E392E286839783B5
S11325408081806280838FEF8093C504E8ECF4E09F
S1132550808182608083109274228091752E8F3FD7
S113256009F4FFCF9FB7F894E0E7FEE285818F5F1F
S113257085839FBF5CDFCFBFDF91CF9108958093A8
S1132580C30408958091C3040895E2E8F4E28087C7
S11325909187628773870895282F2F7030E0220F68
S11325A0331F082E000C990B8827990F881F992731
S11325B0820F931FFC01EE0FFF1FEE0FFF1FEE0FA4
S11325C0FF1FE05EFD4D2189207C09F058C0637037
S11325D0613011F018F404C020EC03C020E801C0FD
S11325E020E440385105E9F050F440325105A9F097
S11325F040345105A1F040315105D9F40CC04115C6
S113260032E0530791F04F3F33E0530781F0411517
S1132610514079F408C041E00DC042E00BC043E0F2
S113262009C044E007C045E005C046E003C047E0F8
S113263001C040E0FC01EE0FFF1FEE0FFF1FEE0F85
S1132640FF1FE05EFD4D118ADC01AA0FBB1FAA0F1C
S1132650BB1FAA0FBB1FA05DBD4D36E03C93242BCE
S1132660218B880F991F880F991F880F991FFC01D0
S1132670E05EFD4D81898062818B81E0089580E078
S11326800895E82FEF70F0E0EE0FFF1F082E000C06
S1132690990B8827990F881F9927E80FF91FEE0FC8
S11326A0FF1FEE0FFF1FEE0FFF1FE05EFD4D818940
S11326B082FB882780F90895282F2F7030E0A90124
S11326C0440F551F282F082E000C330B2227330FDD
S11326D0221F3327240F351FF901EE0FFF1FEE0FC2
S11326E0FF1FEE0FFF1FE05EFD4D918992FF17C0A3
S11326F0220F331F220F331F220F331FF901E05E15
S1132700FD4D91899B7F918BAEDCFC01808180FF24
S113271006C08E7F80830780F085E02D099581E0D7
S113272008957F928F929F92AF92BF92CF92DF9241
S1132730EF92FF920F931F93CF93DF93982E862EE1
S11327406A01790190DC5C01792C771C7724771C71
S1132750C92DCF70D0E0CC0FDD1FC70DD11DFE01F8
S1132760EE0FFF1FEE0FFF1FEE0FFF1FE05EFD4D8C
S11327708189807C09F47DC0FE01EE0FFF1FEE0FFE
S1132780FF1FEE0FFF1FE05EFD4D8189807C803CC2
S113279061F0FE01EE0FFF1FEE0FFF1FEE0FFF1F94
S11327A0E05EFD4D818982FD66C08FB7F894F50126
S11327B0908190FF03C08FBF712C5EC0F5019081A2
S11327C0916090838FBFC182D282E382F4821582AA
S11327D0168207831087811006C091E0E114F1048A
S11327E019F090E001C091E0F501808190FB81F93E
S11327F08B7F8083772059F0CC0FDD1FCC0FDD1F3A
S1132800CC0FDD1FC05EDD4D1E8A1F8A2DC0FE0168
S1132810EE0FFF1FEE0FFF1FEE0FFF1FE05EFD4DDB
S11328208189807C803CA1F4CE01880F991F880F98
S1132830991F880F991F805D9D4DEFDBBC01C70177
S113284060D2892B29F0F50180818E7F808314C0AA
S1132850CC0FDD1FCC0FDD1FCC0FDD1FC05EDD4DA7
S11328601A8A1B8A1E8A1F8A892D87DC772473940F
S113287003C0712C01C0712C872DDF91CF911F9162
S11328800F91FF90EF90DF90CF90BF90AF909F900B
S11328908F907F900895FF920F931F93CF93DF93B0
S11328A0182FF82EFF1CFF24FF1CC82FCF70D0E078
S11328B0CC0FDD1FCF0DD11DD6DBDC01FE01EE0FE9
S11328C0FF1FEE0FFF1FEE0FFF1FE05DFD4D02E047
S11328D005938C9180FF22C08E7F8C931796ED9187
S11328E0FC9118973097D1F0FF2059F0CC0FDD1FE1
S11328F0CC0FDD1FCC0FDD1FC05EDD4D6E897F89DF
S11329000AC0CC0FDD1FCC0FDD1FCC0FDD1FC05E56
S1132910DD4D6A897B89412F81E00995DF91CF9153
S11329201F910F91FF900895CF93C82FB4DFEC2F20
S1132930EF70F0E0EE0FFF1F8C2FCC0F990B882760
S1132940990F881F9927E80FF91FEE0FFF1FEE0F4D
S1132950FF1FEE0FFF1FE05EFD4D118ACF9108951A
S11329600F93E82FEF70F0E0EE0FFF1F282F082ED3
S1132970000C330B2227330F221F3327E20FF31FE0
S1132980DF01AA0FBB1FAA0FBB1FAA0FBB1FA05EAC
S1132990BD4D51969C915197946051969C93EE0F26
S11329A0FF1FEE0FFF1FEE0FFF1FE05DFD4D01E067
S11329B0069371DF81E00F9108951F920F920FB675
S11329C00F9211240F932F933F934F935F936F9321
S11329D07F938F939F93AF93BF93EF93FF938091D4
S11329E0CB04882344F480E88093CA040E946F0BCC
S11329F00E94F8038AC08091CB0482FF20C084E047
S1132A008093CA048091382286FF7FC08091CC04D1
S1132A1081FD7BC043DB811178C080911F2281300E
S1132A2011F479DA72C0843009F06FC0E9E3F2E29C
S1132A3004E00593E1E3F2E204E0059366C08091CB
S1132A40CB0481FF5DC082E08093CA048091302270
S1132A5086FF5BC08091CC0481FD57C01FDB8111D0
S1132A6054C080911F22823041F484E080931F225D
S1132A70E0E3F2E202E0069348C0833009F045C087
S1132A80E9E3F2E204E00593E1E3F2E204E0059312
S1132A903CC080E18093CA0481E0FDDE81E8FBDE76
S1132AA082E0F9DE82E8F7DE0E944A0B1092C3044A
S1132AB0E0E2F2E2118A96E0908B83E4818B118E3E
S1132AC0908F818F8BED91E2848B958BEFD91DC014
S1132AD08091CB0486FF08C080E48093CA0480E020
S1132AE0BCD90E94F60311C08091CB0485FF0DC0B0
S1132AF080E28093CA0481E0B0D90E94F70305C044
S1132B008091CB0484FDC5CFE3CFFF91EF91BF91BA
S1132B10AF919F918F917F916F915F914F913F9171
S1132B202F910F910F900FBE0F901F9018951F9229
S1132B300F920FB60F9211240F931F932F933F936D
S1132B404F935F936F937F938F939F93AF93BF93B1
S1132B50CF93DF93EF93FF938091CC0481FD03C067
S1132B609DDA8111B9C082E08093CC048091C504C0
S1132B708195880FE0E3F2E2E81BF10920813181BD
S1132B8020533242369527953695279536952795C5
S1132B90822F869520FD02C090E001C090E8890F45
S1132BA0E82FEF70F0E0EE0FFF1F282F082E000C27
S1132BB0330B2227330F221F3327E20FF31FDF01CA
S1132BC0AA0FBB1FAA0FBB1FAA0FBB1FA05DBD4D41
S1132BD09C9195FF81C0FD0100E20693811177C0AD
S1132BE080911F22843019F4A4D960D975C0009152
S1132BF032221091332280918C2490918D24C091A3
S1132C001B22D0911C229E01200F311F8217930793
S1132C1018F48C010C1B1D0B80918A2490918B2439
S1132C20A8016BED71E28C0F9D1FA7D0C00FD11FBF
S1132C30C0931B22D0931C220034110569F48091A7
S1132C401D2290911E228C0F9D1F2091882430916B
S1132C5089248217930780F0E2E8F4E2C287D387DD
S1132C600684F785E02D309729F00995811102C07B
S1132C7044D932C050D930C080918C2490918D2495
S1132C80C817D907F9F4E0919024F0919124309772
S1132C9011F433D921C00995811102C02ED91CC069
S1132CA020911D2230911E2280911B2290911C2282
S1132CB0820F931F80931D2290931E2210921B2239
S1132CC010921C22E0E3F2E202E0069305C0803891
S1132CD011F437D901C051DAFF91EF91DF91CF910F
S1132CE0BF91AF919F918F917F916F915F914F9120
S1132CF03F912F911F910F910F900FBE0F901F9036
S1132D001895AA1BBB1B51E107C0AA1FBB1FA6171E
S1132D10B70710F0A61BB70B881F991F5A95A9F780
S1132D2080959095BC01CD01089597FB072E16F46C
S1132D30009406D077FD08D0E4DF07FC05D03EF40C
S1132D40909581959F4F0895709561957F4F089553
S1132D50EE0FFF1F0590F491E02D0994A29FB0019E
S1132D60B39FC001A39F700D811D1124911DB29FBB
S1132D70700D811D1124911D0895FB01DC0102C019
S1132D8001900D9241505040D8F70895F894FFCF28
S1132D9040000CE02E0AFF4445425547313233FFD0
S1132DA0FFFF5580008000020A0D0A130AFF090084
S1132DB00058202720000030202B2017200000007E
S1132DC00902270001010080FA0904000003FFFF43
S1132DD0FF000705810100010107058201000101CF
S1132DE007058301000101001201000200000040F8
S1132DF0EB0300A000020102000100000003000038
S1132E0000000000000000000000000000000000BE
S1132E1000000000000000000000000000000000AE
S1132E2000000000000000000000000000005553F6
S1132E3042476F62696E6461722044756D6D7920DA
S1132E4044657669636500546170697254656368AA
S1092E5000000403090464
S9030000FC
