:1000000024C100003EC100003CC100003AC1000014
:1000100038C1000036C100000C9467090C949109A6
:1000200030C100002EC100002CC100002AC1000018
:1000300028C1000026C1000024C1000022C1000028
:1000400020C100001EC100001CC100001AC1000038
:1000500018C1000016C1000014C1000012C1000048
:100060000C949F0A0C94AA0A0CC100000AC100005B
:1000700008C1000006C1000004C1000002C1000068
:1000800000C10000FEC00000FCC00000FAC000007B
:10009000F8C00000F6C00000F4C00000F2C000008C
:1000A000F0C00000EEC00000ECC00000EAC000009C
:1000B000E8C00000E6C00000E4C00000E2C00000AC
:1000C000E0C00000DEC00000DCC00000DAC00000BC
:1000D000D8C00000D6C00000D4C00000D2C00000CC
:1000E000D0C00000CEC00000CCC00000CAC00000DC
:1000F000C8C00000C6C00000C4C00000C2C00000EC
:10010000C0C00000BEC00000BCC00000BAC00000FB
:10011000B8C00000B6C00000B4C00000EEC40000CB
:10012000B0C00000AEC00000ACC00000AAC000001B
:10013000A8C00000A6C00000A4C00000A2C000002B
:10014000A0C000009EC000009CC000000C94FD09EF
:1001500098C0000096C0000094C0000092C000004B
:1001600090C000008EC000008CC000008AC000005B
:1001700088C0000086C0000084C0000082C000006B
:1001800080C000007EC000007CC000007AC000007B
:1001900078C0000076C0000074C0000072C000008B
:1001A00070C000006EC000006CC000006AC000009B
:1001B00068C0000066C0000064C0000062C00000AB
:1001C00060C000005EC000005CC000005AC00000BB
:1001D00058C0000056C0000054C0000052C00000CB
:1001E00050C000004EC000004CC000004AC00000DB
:1001F00048C000000C94EB150C94A816A60CCB0C70
:10020000070D430D4C0D510DA20DA70DF70CF90C68
:10021000FB0CFD0CFF0C010D030D050D330D350D11
:10022000370D390D3B0D3D0D3F0D410D5D0D670D3A
:10023000710D7F0D810D830D8D0D970D1F112211F5
:10024000251128112B112E11311111241FBECFEFB2
:10025000CDBFDFE2DEBF10E2A0E0B0E2E2ECFFE201
:1002600002C005900D92AC3DB107D9F72FE2ACED7D
:10027000B0E201C01D92AE3DB207E1F7A5D20C94E9
:10028000DF17BECECF93DF93C0E5D0E084E08E834E
:100290008CE1EDD3E0E6F0E083838BEB868380E8AE
:1002A000858381E0808388ED84BF1092410083E0E4
:1002B0008883E0E5F0E081818330E9F7E0E5F0E074
:1002C00080818160808388E18583818180FFFDCF8B
:1002D000E0E5F0E0808180618083818184FFFDCF53
:1002E00088ED84BF84E080934000DF91CF91089532
:1002F000E0E7F0E085818E7F8583E0E0FAE08FEB38
:100300009DE586A397A380EE9EE280A391A382E061
:10031000808308958091200A9091210A813E2EE2E7
:10032000920720F02091C22320936A00803E2EE2A3
:10033000920720F42091BF2320936A00209105208A
:10034000222331F08091052081508093052035C013
:10035000885F9A42813D974080F11092DC20809125
:10036000DD209091DE20A091DF20B091E020019669
:10037000A11DB11D8093DD209093DE20A093DF208E
:10038000B093E0208091DD209091DE20A091DF20CD
:10039000B091E020892F9A2FAB2FBB27EEECF3E230
:1003A000848B8091DD209091DE20A091DF20B091A0
:1003B000E020838B86E08093052080910720909138
:1003C00008200196B1F4809109208F3F91F080912F
:1003D0000620811106C0809106208150809306205E
:1003E00008958091140190911501809307209093B6
:1003F00008200895009709F466C00CF09C01992329
:1004000034F422273327281B390B51E001C050E078
:10041000E8E6F0E0838190E08093C0239093C123CD
:100420008091C0239091C1239695982F8827979506
:1004300087958093C0239093C12342818091C023EC
:100440009091C123840F911D8093C0239093C12369
:1004500000008091C0239091C1238217930728F454
:100460001092C0231092C12308958091C0239091CF
:10047000C123820F931F8115904238F08FEF9FE1C7
:100480008093C0239093C1230895552359F0809100
:10049000C0239091C123821B930B8093C023909320
:1004A000C1230AC08091C0239091C123280F391F16
:1004B0002093C0233093C1238091C0239091C12306
:1004C0008F7780936A000895CF93DF93C091200ABD
:1004D000D091210A80910320909104209E01281B35
:1004E000390B2093C3233093C4238091DC208111E6
:1004F0004DC08091C3239091C4238E3C9F4FE4F460
:100500008091C3239091C4238B369F4FACF0809190
:100510000220882331F080910220815080930220B4
:1005200035C080916A008093C22381E08093DC20F3
:100530008CE0809302202AC08CE08093022080917E
:10054000C3239091C4238A369F4F1CF08FEF9FEFF7
:1005500002C081E090E08093BD239093BE23809100
:10056000C3239091C4232091BD233091BE2360E327
:1005700070E00E94AE17261B370B2093BD233093EB
:10058000BE238091BD239091BE2334DF8091DC2077
:10059000813029F58091C3239091C423C39794F0AF
:1005A00080910220882331F0809102208150809335
:1005B000022015C080916A008093BF2383E080935E
:1005C000DC200DC08091C3239091C423873991050D
:1005D0001CF481E090E002C08FEF9FEF0BDFC0932F
:1005E0000320D0930420DF91CF91089586179707B9
:1005F00079F06817790728F49C01261B370BB9019D
:1006000009C08617970718F4681B790B03C0089573
:1006100060E070E0862F972F0895CF93DF9380914D
:10062000002090910120892B51F080910020909121
:1006300001200197809300209093012065C080E401
:1006400090E080930020909301208091072090916A
:100650000820019609F458C0C0911401D0911501E9
:100660006091072070910820CE01C0DF893C910580
:1006700000F1AE0149585E4F9A0136952795A1EBDE
:10068000BBE20E94C717EC010024CC0FDD1F001C49
:10069000CC0FDD1F001CCD2FD02D2EEE32E0C29FDF
:1006A000C001C39F900DD29F900D1124EA01C81B79
:1006B000D90B80910720909108208C179D0778F422
:1006C0006091072070910820CE0190DF029738F0EA
:1006D00080EC9DE58093360A9093370A15C080918F
:1006E000072090910820C817D90770F4609107205F
:1006F00070910820CE017ADF029730F08FEB9DE5F4
:100700008093360A9093370ADF91CF910895AC0118
:10071000460F571F861B970BE0E0FAE020A131A19E
:1007200024173507D8F720A131A182179307B0F716
:100730000895E0E8F6E08FE0808385E08483089503
:1007400008950F931F93842F242F30E021583109EF
:100750009DE7929FB001939F700D11249091092005
:100760009530D0F4443810F069587E4F9091E820CD
:1007700047E751E0949F9001959F300D1124620F3F
:10078000731FAB014650584D01EA13E02DE730E0EE
:1007900060E00E94A51415C09091E8202EEE32E092
:1007A000929FA001939F500D1124640F751FAB0100
:1007B0004650584D01EA13E02DE730E060E00E941A
:1007C000A5141F910F91089587E08093A20078945B
:1007D00059DDB6DF0E94260CA3D1C6D160E080E0CF
:1007E0004FD13BD18CE02FD1C6D581D69AD6A1DF8F
:1007F00089E0E2EDF0E2AEECB3E201900D928A9571
:10080000E1F78091C6239091C723A091C823B091AE
:10081000C9230196A11DB11D813021EE920725EF5C
:10082000A20725E0B20718F080E090E0DC010000AC
:1008300000000000000000000000000000000000B8
:1008400000000000000000000000E3CF08950895BC
:10085000CF93DF93F894A0E0B1E054968C91549735
:10086000EEECF3E2818755968C91559782879496AA
:100870008C919497838795968C9195978487C0E007
:10088000DAE088A1858B89A1868B54968D919C9105
:1008900055978634914080F0809114019091150114
:1008A000893A914048F48091140190911501809308
:1008B000D62F9093D72F00008091E620882341F017
:1008C00017DD1092E62081E08093E520789465C0E2
:1008D0008091E5208823B9F18091DC20833019F4E0
:1008E00019DD9BDE01C0F0DD8091E120811126C081
:1008F0001092E120E091E220F091E3208091140138
:1009000090911501EE0FFF1FEA52F24D8083918303
:100910008091E2209091E3208F3F910529F410927D
:10092000E2201092E3200FC08091E2209091E3201A
:1009300001968093E2209093E32005C08091E1200E
:100940008F5F8093E1208091E420882351F0809193
:100950001401909115018093D62F9093D72F109268
:10096000E42080910920853060F4209114013091B9
:10097000150181E02737314008F080E08093E820BE
:100980000BC0209114013091150181E02E3E3240C0
:1009900008F080E08093E8207894DF91CF9108956B
:1009A0000F931F9381E08093EB208093E62001EA70
:1009B00013E02DE730E04AEF57E260E081E80E9463
:1009C000A5142DE730E047E758E260E082E80E9496
:1009D000A5142DE730E044EF58E260E083E80E9480
:1009E000A5142DE730E041E759E260E084E80E9479
:1009F000A5142DE730E04EEE59E260E085E80E9454
:100A0000A5142DE730E04BE65AE260E086E80E944C
:100A1000A51481E01F910F9108951092EB20089585
:100A200081E0089581E00895E0E0F2E010A2982FBF
:100A30009C71936890A3881F8827881F880F81A3C3
:100A400012A216A20895E0E0F2E010AA836880AB3B
:100A500080E181AB12AA16AA0895E0E0F2E010A6A8
:100A600083E880A78FE281A712A616A60895AAECB4
:100A7000B1E092E09C93E82FF0E084911C920895FD
:100A8000CF93DF93E0E7F0E091819D7F9183109217
:100A90000002623031F1E0E0F2E09CE1918390E409
:100AA0009283811102C080E401C080EC8093030234
:100AB000613011F084E001C083E0C0E0D2E08C83BB
:100AC00080E2D5DF8C8781E2D2DF8D87188E198E88
:100AD00081E08883C2DF0EC080EC8093030284E053
:100AE000ECCFE0E0F2E09EE1918390E4928381110B
:100AF000F3CFD9CFDF91CF9108951F920F920FB608
:100B00000F9211248F93000000000000000081E08C
:100B1000809323028F910F900FBE0F901F90189516
:100B2000CF93DF93E0E7F0E082818B7F8283C0E2A6
:100B3000D3E08DE0888380E4898389E08A8383E33E
:100B400096DF888782E393DF898787E390DF8A8750
:100B500086E38DDF8B87E0E2F6E08081836080832F
:100B60001482DF91CF910895E0E7F0E080818E7FDD
:100B7000808383E8809300010895E0E0F1E0108A2B
:100B800080E4808B10A280A310AA80ABE0E4F1E0A7
:100B9000108280831092EA201092E92081E08093F5
:100BA000E8201092CC231092CD231092CA231092E9
:100BB000CB230895CF93DF93F89410920920DDDFC3
:100BC000C0E0D1E01EAA84E288AB19AA49E54AAB8D
:100BD00032E03BAB60910B2070910C206CAB7DAB95
:100BE0006AEF75E268AF79AF1AAE9BE39CAF93E012
:100BF00090933D0110923E0128A9206828AB1092E5
:100C00004601E0E4F1E0808310924101409342010B
:100C10009093430140910D2050910E204093440148
:100C2000509345014AEE53E24093480150934901E5
:100C300010924A0129E320934C0190934D011092A8
:100C40004E01908190689083188A90E4988B888BED
:100C5000198A95E99A8B90E19B8B4EEE52E04C8B72
:100C60005D8B888F398F1A8E8AEF97E28C8F9D8FDC
:100C70001E8E68EC70E084EF91E049DD88EC90E036
:100C8000809307209093082081E080930620888934
:100C90008068888B7894DF91CF9108951F93CF93CC
:100CA000DF93F89411E01093092067DFC0E0D1E0F2
:100CB00018AA80E488AB84E088AB19AA1AAA4BE48E
:100CC0004BAB1CAA1DAA1EAA8AE090E288AF99AF7E
:100CD0001AAE70EA7CAF68E060933D0110923E016D
:100CE00088A9806A88ABE0EAF8E085E580838083A4
:100CF00010924601E0E4F1E084E280831092410129
:100D000099E59093420132E030934301A0910B208A
:100D1000B0910C20A0934401B0934501AAEFB5E235
:100D2000A0934801B093490110924A019BE390932C
:100D30004C0193E090934D0110924E012081206868
:100D4000208388A399A325E92AA34BA34EEE52E062
:100D50004CA35DA378A769A71AA668EE7AE26CA7F0
:100D60007DA71EA6888B998B2A8B90E19B8B4C8B41
:100D70005D8B888F398F1A8E8AEF97E28C8F9D8FCB
:100D80001E8E68EC70E084EF91E0C1DC88EC90E0AE
:100D900080930720909308201093062088A18068F4
:100DA00088A388898068888B7894DF91CF911F9180
:100DB00008951F93CF93DF93F89412E010930920C6
:100DC000DCDEC0E0D1E01EAA84E288AB19AA39E5D6
:100DD0003AAB1BAB40910B2050910C204CAB5DAB60
:100DE0004AEF55E248AF59AF1AAE9BE39CAF93E090
:100DF00090933D0110923E0128A9206828AB1092E3
:100E00004601E0E4F1E08083109241013093420119
:100E10009093430120910D2030910E2020934401A6
:100E2000309345012AEE33E2209348013093490183
:100E300010924A0129E320934C0190934D011092A6
:100E40004E01908190689083188A90E4988B888BEB
:100E5000198A45E94A8B90E19B8B2EEE32E02C8B70
:100E60003D8B888F198F1A8E6AEF77E26C8F7D8F9A
:100E70001E8E88A319A24AA39BA32CA33DA384E39F
:100E800088A719A71AA688EE9AE28CA79DA71EA686
:100E900068EC70E084EF91E03ADC88EC90E08093BD
:100EA00007209093082081E080930620888980683D
:100EB000888B88A1806888A37894DF91CF911F9157
:100EC00008951F93CF93DF93F89413E010930920B4
:100ED00054DEC0E0D1E018A250E458A384E088A317
:100EE00019A21AA24BE44BA31CA21DA21EA28AE0C7
:100EF00090E288A799A71AA630EA3CA728E02DA778
:100F00001EA688A1806A88A385E58093A0081EAAF2
:100F100084E288AB19AA69E56AAB1BABE0910D20AE
:100F2000F0910E20ECABFDABEAEEF3E2E8AFF9AFE7
:100F30001AAE99E39CAF10933D0110923E0198A91F
:100F4000906898AB10924601E0E4F1E08083109243
:100F500041016093420192E09093430160910B2024
:100F600070910C2060934401709345016AEF75E223
:100F7000609348017093490110924A019BE390935A
:100F80004C0110934D0110924E0190819068908316
:100F9000188A588B888B198A85E98A8B4B8B8EEE41
:100FA00092E08C8B9D8B388F298F1A8E8AEF97E277
:100FB0008C8F9D8F1E8E68EC70E084EF91E0A7DB34
:100FC00088EC90E0809307209093082081E0809344
:100FD000062088898068888B7894DF91CF911F9153
:100FE00008951F93CF93DF93F89414E01093092092
:100FF000C4DDC0E0D1E018AA80E488AB18AB19AA20
:101000001AAA3BE43BAB1CAA1DAA1EAA8AE090E2E6
:1010100088AF99AF1AAE50EA5CAF88E080933D018B
:1010200010923E0198A9906A98AB95E59093A0081C
:1010300010924601E0E4F1E094E2908310924101C5
:1010400029E52093420122E02093430160910B2087
:1010500070910C2060934401709345016AEF75E232
:10106000609348017093490110924A012BE3209349
:101070004C0123E020934D0110924E012081206805
:101080002083988B198A45E94A8B3B8B2EEE32E000
:101090002C8B3D8B588F898F1A8E6AEF77E26C8F7D
:1010A0007D8F1E8E98A319A24AA39AE49BA32CA31A
:1010B0003DA393EC98A789A71AA688EE9AE28CA77D
:1010C0009DA71EA668EC70E084EF91E020DB88EC21
:1010D00090E0809307209093082081E08093062081
:1010E00088898068888B88A1806888A37894DF913C
:1010F000CF911F910895FFCFCF93DF93F89486E0AF
:10110000809309203ADDC0E0D1E01EAA84E288ABDA
:1011100019AA39E53AAB93E09BAB40910D20509171
:101120000E204CAB5DAB4AEE53E248AF59AF1AAE5E
:1011300029E32CAF90933D0110923E0128A920682D
:1011400028AB10924601E0E4F1E080831092410167
:101150003093420132E03093430140910B20509193
:101160000C2040934401509345014AEF55E24093CF
:1011700048015093490110924A012BE320934C01FE
:1011800090934D0110924E01208120682083188A8F
:1011900020E4288B888B998B95E99A8B90E19B8B27
:1011A0004CED55E04C8B5D8B888F398F1A8E8AEF12
:1011B00097E28C8F9D8F1E8E68EC70E084EF91E03B
:1011C000A6DA80E991E0809307209093082081E0DF
:1011D0008093062088898068888B7894DF91CF91EE
:1011E0000895CF93DF93F89487E080930920C5DCBE
:1011F000C0E0D1E01EAA94E298AB19AA39E53AAB57
:1012000083E08BAB40910D2050910E204CAB5DAB39
:101210004AEE53E248AF59AF1AAE29E32CAF8093A0
:101220003D0110923E0128A9206828AB109246018A
:10123000E0E4F1E09083109241013093420132E00A
:101240003093430140910B2050910C204093440176
:10125000509345014AEF55E24093480150934901AC
:1012600010924A012BE320934C0180934D01109280
:101270004E01208120682083188A20E4288B25E2F3
:10128000288B898B85E98A8B80E18B8B4CED55E02F
:101290004C8B5D8B988F398F1A8E8AEF97E28C8FEB
:1012A0009D8F1E8E68EC70E084EF91E030DA80E96B
:1012B00091E0809307209093082081E0809306209E
:1012C00088898068888B7894DF91CF9108951F92E8
:1012D0000F920FB60F9211248F939F93EF93FF936A
:1012E00081E0809303018091CC239091CD230196DE
:1012F0008093CC239093CD238091CC239091CD23C8
:10130000EEECF3E2878B8091CC239091CD23908FEC
:10131000FF91EF919F918F910F900FBE0F901F90B3
:1013200018951F920F920FB60F9211248F939F93CF
:10133000EF93FF9382E0809303018091CA23909101
:10134000CB2301968093CA239093CB238091CA2309
:101350009091CB23EEECF3E2818F8091CA239091A0
:10136000CB23928FFF91EF919F918F910F900FBEA2
:101370000F901F901895E0E7F0E083818C7F8383C6
:1013800084818C7F848380818D7F8083E0E8F1E09D
:1013900080EC8283128688EC81831186A0E0B8E01D
:1013A00034E03C9323E011962C93119714961C92F1
:1013B000149785ED91E096968D939C93979716964A
:1013C0001C921697E0E4F8E030832183148286A310
:1013D00097A31682E0E6F6E0808180618083E0E4F6
:1013E000F9E083E18183148282E08683A6A3B7A318
:1013F00010A611A681E0808308951F920F920FB668
:101400000F9211242F933F934F935F938F939F934A
:10141000EF93FF93CF93DF931F92CDB7DEB78FEF9C
:1014200080934C0980910920873031F4E0E0F2E0AC
:1014300084A5898395A502C090912C028091E72014
:10144000891B209168093091690991E082300CF480
:1014500090E09923C9F091E02A3F374008F090E0EE
:10146000992391F0209168093091690989301CF421
:1014700081E090E002C086E090E0820F931F8093AD
:1014800078099093790923C02091680930916909FE
:1014900091E08F3F0CF090E09923C9F091E0273064
:1014A000310508F490E0992391F02091680930917A
:1014B0006909883F1CF081E090E002C086E090E07E
:1014C000A901481B590B40937809509379090F9053
:1014D000DF91CF91FF91EF919F918F915F914F910C
:1014E0003F912F910F900FBE0F901F901895E0E73E
:1014F000F0E083818F7E8383E0E4F6E080818A6A76
:1015000080838FEF848388E5828BE0EAF8E080E3D4
:10151000838384EC858387E08683178288E18483D4
:101520000895E0E7F0E08381877F8383E0ECF8E0D3
:1015300080E48083118288E58093550608951F9288
:101540000F920FB60F92112400000F900FBE0F9054
:101550001F9018951F920F920FB60F9211248F9320
:10156000EF93FF93E0EAF8E080818083FF91EF91B1
:101570008F910F900FBE0F901F9018959FB7F89402
:10158000E82FF0E0E059FF4F609580816823608389
:101590009FBF0895863011F060E001C068E180913E
:1015A000510081FD26C09FB7F894E0E5F0E080810E
:1015B000826080839FBF818181FFFDCF9FB7F894B8
:1015C000A0E5B0E016968C911697897F16968C93BD
:1015D0001697E0E6F0E080E885838BEB868316962D
:1015E0008C911697846016968C938081816080839D
:1015F0009FBF636084E490E024D560E480E0BECFC8
:1016000008958091EC2008951CD1FC018381809382
:10161000EC20811102C0C4C9089581E00895809131
:10162000EC20813009F4F9C908958091EA258823D6
:101630004CF480768034A9F48091EB25811113C09D
:10164000F1C908958076803481F48091EB25811171
:101650000EC08091F0259091F125892B51F0E0C9C1
:10166000089580E0089580E0089580E0089580E086
:10167000089580E00895E091F120F091F22001902A
:10168000F081E02D228133812E0F3F1FFC0140812C
:10169000E40FF11DE217F307B8F481818430B9F04B
:1016A000861309C005C081818430A1F0861303C070
:1016B0008E2F9F2F08958081E80FF11DE217F30709
:1016C00090F380E090E0089580E090E0089580E05D
:1016D00090E0089580E090E008958091EC258F7768
:1016E0000C94DC1308959091F420992381F1E091FA
:1016F000F120F091F2200190F081E02D9481891782
:1017000040F5E093EF20F093F020228133812E0FFB
:101710003F1FE217F307F8F49181943061F492814E
:10172000981309C09381961306C0E093EF20F093BD
:10173000F02081E008959081E90FF11DE217F30791
:1017400058F3E093EF20F093F02080E0089580E0DC
:10175000089580E0089580E00895EF92FF921F932E
:10176000CF93DF93C82F60E0BEDF182F882381F16D
:10177000A091F120B091F220EC2FF0E0EE0FFF1FCE
:1017800012968D919C911397E80FF91FE080F180DC
:10179000D7011696ED91FC9117970995682F8C2F1C
:1017A000A2DF182F8823A1F0C091EF20D091F02064
:1017B00065E0CE0160DFEC01892B21F08A810E9477
:1017C000A815F6CFD7011296ED91FC9113970995C4
:1017D000812FDF91CF911F91FF90EF9008951F937C
:1017E000CF93DF93182F7FDF882339F1C091EF204B
:1017F000D091F02065E0CE013EDFEC01892B41F075
:101800004C815D816B818A81E4D78111F3CF15C052
:10181000A091F120B091F220E12FF0E0EE0FFF1F38
:1018200012968D919C911397E80FF91F0190F0810A
:10183000E02D0190F081E02D0995DF91CF911F916E
:1018400008958091EF209091F02008953AC708956F
:10185000CF938091F4208823C1F0E091F120F091A2
:10186000F2200190F081E02D8481882371F0C0E0A6
:101870008C2F73DFCF5FE091F120F091F220019087
:10188000F081E02D8481C81798F31092F420109213
:10189000F8201092F920CF910895CF938091F420F1
:1018A000882349F1A091F120B091F220ED91FC91B3
:1018B000119784818823F9F0C0E0EC2FF0E0EE0F5F
:1018C000FF1F12968D919C911397E80FF91F0190BD
:1018D000F081E02D0084F185E02D309709F0099525
:1018E000CF5FA091F120B091F220ED91FC91119782
:1018F0008481C81710F3CF9108950F931F93CF934E
:10190000DF93EAEEF5E212861386148615861686B4
:101910001786808188233CF42091F0253091F125B1
:10192000232B09F482C38076803409F020C1E09132
:10193000EB258E2F90E0FC01E05AF109E830F1052B
:1019400008F00CC1E250FF4F0C94C11781E0809366
:10195000E4208091072090910820EEECF3E2858747
:10196000809107209091082096878091C2238787D5
:101970008091BF23808BA8E6B0E012968C911297DD
:10198000818B13968C91828B6091F0257091F1255B
:10199000CF0118D74EC3E0E0F8E01082CAEED5E2DE
:1019A0008A819B8186AB97AB8C818F7080836E819F
:1019B0007F818AEE93E206D78E819F8120910D2050
:1019C00030910E208217930709F433C380930D20C2
:1019D00090930E20E09109208E2F90E088309105A1
:1019E00008F0BEC0FC01EA5FFE4F0C94C117E2D8BC
:1019F00020C354D91EC3DDD91CC363DA1AC3F1DA7C
:101A000018C379DB16C378DB14C3EBDB12C3E0E445
:101A1000F8E01082CAEED5E28A819B8186AB97AB53
:101A20008C818F7080836E817F818AEF95E2CAD628
:101A30008E819F8120910B2030910C20821793077B
:101A400009F4F7C280930B2090930C20E0910920B9
:101A50008E2F90E08830910508F084C0FC01E25F91
:101A6000FE4F0C94C117A6D8E4C218D9E2C2A1D97E
:101A7000E0C227DADEC2B5DADCC23DDBDAC23CDB2B
:101A8000D8C2AFDBD6C21092680910926909809162
:101A9000EC258093E720CDC28091EC25809324062D
:101AA000C8C2E091EC25F091ED25E830F10508F091
:101AB0005BC0EA5EFE4F0C94C11760E080E00E94BC
:101AC00040058091EE250E94140574D8B2C260E0F2
:101AD00080E00E9440058091EE250E941405DED82A
:101AE000A8C261E081E00E944005CAEED5E28C8187
:101AF0000E9414058D810E9423055BD99AC2E1D909
:101B000098C26FDA96C260E080E00E944005809142
:101B1000EE250E941405EFDA8CC261E080E00E949D
:101B200040058091EE250E941405E6DA82C262E04B
:101B300080E00E9440058091EE2580680E94140597
:101B400050DB77C28091EC258093840672C2E9E76E
:101B5000F0E091E088EDF89484BF908380E005C0C8
:101B600081E003C081E001C080E0811165C2809105
:101B7000EA25982F907609F0E1C188230CF005C181
:101B80002091F0253091F1252115310509F4D6C1B8
:101B90008F7109F0A3C09091EB25963079F09830C1
:101BA00009F492C091119AC02230310509F0C6C1E2
:101BB00062E070E088EF90E205D63DC28091EC25AE
:101BC0009091ED25292F332722303105A9F024F4F7
:101BD0002130310541F0A9C123303105D9F12F3031
:101BE000310551F1A2C18091192090911A20DC0198
:101BF0006C9170E0E7D559C0E0911920F0911A205E
:101C00002189821708F09AC19927880F991F880F98
:101C1000991FE0911B20F0911C20E80FF91F808193
:101C20009181FC0162817381CDD5E091F225F09123
:101C3000F32582E0818339C080911D2090911E2080
:101C4000009709F47BC1DC0112966D917C9113978A
:101C5000B9D52BC099278130910571F038F00297E2
:101C600009F06CC18AEA90E228E109C064E070E002
:101C70008EEC90E2A7D519C083EC90E229E0382FD2
:101C8000AAE7B0E2E82FF92F819190E08D939D9320
:101C90008E2F831B8217C0F3622F660F6E5F6093D7
:101CA000782070E088E790E28DD5EAEEF5E2868153
:101CB0009781228533858217930708F0BCC18093F2
:101CC000F4259093F525B7C12130310509F036C1CF
:101CD00061E070E084EF90E275D5ADC18130E1F54F
:101CE0009091EB259A30C1F52130310509F026C1DC
:101CF0008091F420882309F421C1C091EE25D09170
:101D0000EF250091F1201091F220D801ED91FC9186
:101D10008481C81708F012C160E08C2FE4DC8823AE
:101D200009F40CC1CE019927880F991FD80112968A
:101D3000ED91FC911397E80FF91F0190F081E02DD0
:101D400086819781FC0109958093F62061E070E01F
:101D500086EF90E237D56FC1823009F0EFC08091F5
:101D6000EB258111E4C02230310509F0E7C08091F4
:101D7000EE259BD590E08093ED209093EE2062E0DD
:101D800070E08DEE90E21ED556C18F7109F083C0D0
:101D90009091EB25933009F4CCC018F49130A1F068
:101DA0007AC0953019F0993039F175C08091F025DD
:101DB0009091F125892B09F0C1C08DE69BE08093BD
:101DC000F6259093F72537C18091F0259091F12564
:101DD000892B09F0B3C08091EC259091ED250197F6
:101DE00009F0ACC08091F8209091F9208D7F80930C
:101DF000F8209093F9201FC18091F0259091F12552
:101E0000892B09F09BC0DBD4882309F497C020916B
:101E1000EC253091ED253327E0911920F0911A201F
:101E2000818990E08217930708F488C011DD8091C2
:101E3000EC259091ED258093F420882309F4FBC0D4
:101E400099278150904C880F991F880F991FE09116
:101E50001B20F0911C20E80FF91FE093F120F09374
:101E6000F2200190F081E02D8481882309F4E3C001
:101E7000C0E060E08C2FB3DC882309F45FC0CF5F43
:101E8000E091F120F091F2200190F081E02D848129
:101E9000C81778F3D0C08130E1F49091EB259B30E6
:101EA000C1F48091F0259091F125892B09F046C06D
:101EB0008091F420882309F441C0EAEEF5E2C48160
:101EC000D2818C2F4ADC8823C9F16D2F8C2F87DCBF
:101ED00033C0823099F58091EB25813019F0833041
:101EE00089F029C08091F0259091F125892B31F559
:101EF0008091EC259091ED25892B01F58091EE25BF
:101F0000EFD41AC08091F0259091F125892BB1F47E
:101F10008091EC259091ED25892B81F4CAEED5E2D4
:101F20008C81CDD58C8130D607C080E005C080E0A3
:101F300003C080E001C080E081117EC08091EA256D
:101F40008F71813071F58091F420882351F10091D7
:101F5000EE251091EF25C091F120D091F220E8817B
:101F6000F98184810817E8F460E0802FBCDB8823C6
:101F7000C1F0F801FF27CF01880F991FEA81FB818B
:101F8000E80FF91FC081D181EE81FF810995682F8B
:101F9000802FA9DB882329F0EC81FD81099581112F
:101FA0004BC08091EA258F71823009F040C080914A
:101FB000F4208823B1F1A091F120B091F220ED91AD
:101FC000FC9111978481882371F1C0E0EC2FF0E03F
:101FD000EE0FFF1F12968D919C911397E80FF91F3A
:101FE00000811181D8011696ED91FC911797099502
:101FF000682F8C2F78DB8823F9F0D8011496ED91A7
:10200000FC9115970995811117C0CF5FA091F12020
:10201000B091F220ED91FC9111979481C917B0F223
:102020000BC080E009C080E007C080E005C080E010
:1020300003C081E001C081E0DF91CF911F910F913A
:1020400008951BBEFC0128ED24BF608308954091D4
:10205000CA01E62FF72F8093CA0184914093CA01E9
:102060000895811122C09091BC239923D9F09091B9
:10207000D92F911101C0FFCF2FB7F894E8EDFFE2FF
:102080009181915091832FBF0DC09091D92F9F3F87
:1020900009F4FFCF2FB7F894E8EDFFE291819F5F3D
:1020A00091832FBF8093BC2308959091BC239923E3
:1020B00061F3F8CF0F93E8ECF4E080818F7D8083AB
:1020C00080818F7D8083E0E5F3E202E0059310924A
:1020D00052231092532300E2069300E40693E8E4AF
:1020E000F3E200E2069300E40693EAEEF5E21486DA
:1020F0001586168617861286138610922B230F914B
:1021000008950F9385E080932B23E1E5F3E204E04B
:102110000593E9E4F3E204E005930F9108950F932A
:1021200083E080932B231092522310925323E0E5F7
:10213000F3E202E006930F910895E091F625F09105
:10214000F725309709F0099508950F93CF93DF9302
:1021500080912B23833019F4F0DFACDF5EC08091D7
:10216000272390912823C091F425D091F525C81BF1
:10217000D90B71F52091292330912A23820F931FC7
:102180008093292390932A232091F0253091F125E3
:102190008217930721F08091FA20882341F084E090
:1021A00080932B23E8E4F3E202E0069336C0E0914B
:1021B000F825F091F925309799F00995882381F059
:1021C0001092272310922823C091F425D091F52551
:1021D000C034D10528F01092FA20C0E4D0E003C04A
:1021E00081E08093FA20ECE2F3E2C6A3D7A38091CA
:1021F0002723909128232091F2253091F325280F51
:10220000391F20A731A7C80FD91FC0932723D09308
:102210002823E0E5F3E202E00693DF91CF910F91EE
:102220000895FC018181E82FE7708E2F90E0FC017A
:102230003197E730F105C0F4E25EFE4FA2C680E1BF
:1022400090E0089580E290E0089580E490E00895A1
:1022500080E890E0089580E091E0089580E092E0C9
:1022600008958FEF93E0089588E090E00895282F77
:102270002F7030E0220F331F082E000C990B882797
:10228000990F881F9927820F931F02979C01220F95
:10229000331F220F331F220F331F820F931F8558C6
:1022A0009D4D08950F93CF938091CC0480FF62C021
:1022B00081E08093CC04E8E4F3E200E80693E0E5F3
:1022C000F3E200E806938093CA04E8E4F3E200E155
:1022D000069380912B23882329F08350823008F4C1
:1022E0002CDFE8DE80914A2390914B23089709F078
:1022F00043C088E0E7EEF2E2AAEEB5E201900D926B
:102300008A95E1F7E8ECF4E0808180628083808147
:1023100080628083F2DAC82F811103C0F2DEC1E04F
:102320002CC08091EA2588236CF410922923109206
:102330002A23109227231092282382E080932B23B4
:1023400004DF1BC08091F0259091F125892B11F4B9
:10235000E6DE13C01092292310922A23109227231D
:102360001092282381E080932B23E8E4F3E202E03B
:10237000069303C0C0E001C0C1E08C2FCF910F9144
:1023800008958F929F92AF92BF92DF92EF92FF9249
:102390000F931F93CF93DF93D82E69DF8C01BD2C51
:1023A000BB1CBB24BB1CCD2DCF70D0E0CC0FDD1FE0
:1023B000CB0DD11DCE01880F991F880F991F880F53
:1023C000991F9C01285B3C4D7901C9012ADF4C0112
:1023D000BB2009F479C0FE01EE0FFF1FEE0FFF1FB7
:1023E000EE0FFF1FE45DFC4D22A133A1D80115962D
:1023F0008D919C911697820F931F15968D939C93A8
:10240000169713962D913C9114978217930709F410
:1024100045C0281B390B2115B4E03B0738F02FEFDE
:1024200033E0C901B40186D5281B390BF80180813E
:1024300081FF09C0C901B4017DD541E0892B09F0B4
:1024400040E0842F01C080E0D8019C9180FB91F98D
:102450009C93FE01EE0FFF1FEE0FFF1FEE0FFF1FFD
:10246000E45DFC4D12A213A2268F378F11962D9199
:102470003C91129715968D919C911697820F931F00
:10248000CC0FDD1FCC0FDD1FCC0FDD1FC45BDC4D7F
:1024900088839983F70102E00693E4C0D8018C9108
:1024A00081FFCDC08D7F8C93CC0FDD1FCC0FDD1F46
:1024B000CC0FDD1FC45DDC4D1AA21BA21E8E1F8E29
:1024C000F70102E00693CEC0FE01EE0FFF1FEE0FF4
:1024D000FF1FEE0FFF1FE45DFC4DA68CB78CD801EB
:1024E0008C9182FF19C01196ED91FC91129715966F
:1024F0002D913C91169713968D919C911497B40150
:1025000019D5B0E4DB9EB001112465547F4DAC01B8
:10251000CF01820F931F4AD5F801258136812A0DFC
:102520003B1D25833683838194818217930768F44A
:1025300085839683CC0FDD1FCC0FDD1FCC0FDD1FF5
:10254000C45DDC4D8AA19BA17AC0FE01EE0FFF1F86
:10255000EE0FFF1FEE0FFF1FE45DFC4D42A153A1E4
:102560004A155B0509F06BC02817390709F467C0E5
:10257000AC01421B530B9A01211554E0350750F072
:102580002FEF33E0C901B401D5D4D901A81BB90B91
:10259000CD0107C0C901B401CDD4F901E81BF90B85
:1025A000CF01FE01EE0FFF1FEE0FFF1FEE0FFF1F0B
:1025B000E45DFC4D168E178E8815990500F5D8013F
:1025C0008C9184608C93B0E4DB9EC001112485540F
:1025D0009F4DFE01EE0FFF1FEE0FFF1FEE0FFF1FBF
:1025E000E45BFC4D80839183CC0FDD1FCC0FDD1F9E
:1025F000CC0FDD1FC45DDC4D8AA29BA21CC0F8017C
:102600004181528125813681240F351FFE01EE0F55
:10261000FF1FEE0FFF1FEE0FFF1FE45BFC4D20833B
:102620003183CC0FDD1FCC0FDD1FCC0FDD1FC45D50
:10263000DC4D8AA39BA3F70102E0069313C0D801E7
:102640008C9180FF0FC08E7F8C931796ED91FC913B
:102650001897309739F015966D917C9116974D2DFE
:1026600080E00995DF91CF911F910F91FF90EF903E
:10267000DF90BF90AF909F908F900895CF93CFB78A
:10268000F89481E0EEDCEAECF4E080E4808380E220
:102690008083E1ECF4E0808181608083A9ECB4E088
:1026A0008C9182608C93E8ECF4E08081806480837C
:1026B0008C9181608C93808180688083CFBFCF9123
:1026C0000895CF93DF93C0E6D0E0188280E30E94A4
:1026D000CA0AE0ECF4E080818064808381E0888332
:1026E000CFB7F89480E090E0FC01EE0FFF1FEE0FF3
:1026F000FF1FEE0FFF1FE45DFC4D158E01968E301F
:10270000910591F780E090E0FC01EE0FFF1FEE0FC6
:10271000FF1FEE0FFF1FE80FF91FE558FD4D208149
:102720002E7F208301968C30910571F76AE170E06D
:1027300082E08DDC8F3F19F08093FA0403C08FE1B3
:102740008093FA046BE170E082E081DC8F3F19F046
:102750008093FB0403C08FE18093FB04E0ECF4E082
:1027600080818660808380818068808380818061B1
:10277000808388E493E2868397838081806280836C
:102780008FEF8093C504E8ECF4E080818260808361
:102790001092BC238091DD2F8F3F09F4FFCF9FB7AC
:1027A000F894E8EDFFE285818F5F85839FBF66DF48
:1027B000CFBFDF91CF9108958093C3040895809196
:1027C000C3040895EAEEF5E28087918762877387F4
:1027D0000895282F2F7030E0220F331F082E000C91
:1027E000990B8827990F881F9927820F931FFC0147
:1027F000EE0FFF1FEE0FFF1FEE0FFF1FE45DFC4DFE
:10280000258D207C09F04FC06370613011F018F401
:1028100004C020EC03C020E801C020E4403851058A
:10282000E9F050F440325105A9F040345105A1F0CF
:1028300040315105D9F40CC0411532E0530791F0F5
:102840004F3F33E0530781F04115514079F408C000
:1028500041E00DC042E00BC043E009C044E007C0C6
:1028600045E005C046E003C047E001C040E0FC0190
:10287000EE0FFF1FEE0FFF1FEE0FFF1FE45DFC4D7D
:10288000158E36E0348F242B258F880F991F880FE3
:10289000991F880F991FFC01E45DFC4D858D8062B6
:1028A000858F81E0089580E00895E82FEF70F0E0D3
:1028B000EE0FFF1F082E000C990B8827990F881F19
:1028C0009927E80FF91FEE0FFF1FEE0FFF1FEE0F06
:1028D000FF1FE45DFC4D858D82FB882780F90895FC
:1028E000282F2F7030E0A901440F551F282F082EE4
:1028F000000C330B2227330F221F3327240F351FE1
:10290000F901EE0FFF1FEE0FFF1FEE0FFF1FE45D3B
:10291000FC4D958D92FF17C0220F331F220F331FDE
:10292000220F331FF901E45DFC4D958D9B7F958F40
:102930009EDCFC01808180FF06C08E7F8083078043
:10294000F085E02D099581E008957F928F929F9206
:10295000AF92BF92CF92DF92EF92FF920F931F93AD
:10296000CF93DF93982E862E6A01790180DC5C017B
:10297000792C771C7724771CC92DCF70D0E0CC0F31
:10298000DD1FC70DD11DFE01EE0FFF1FEE0FFF1F54
:10299000EE0FFF1FE45DFC4D858D807C09F47DC04A
:1029A000FE01EE0FFF1FEE0FFF1FEE0FFF1FE45D96
:1029B000FC4D858D807C803C61F0FE01EE0FFF1F99
:1029C000EE0FFF1FEE0FFF1FE45DFC4D858D82FDB6
:1029D00066C08FB7F894F501908190FF03C08FBF58
:1029E000712C5EC0F5019081916090838FBFC18290
:1029F000D282E382F48215821682078310878110C7
:102A000006C091E0E114F10419F090E001C091E0FA
:102A1000F501808190FB81F98B7F8083772059F0CD
:102A2000CC0FDD1FCC0FDD1FCC0FDD1FC45DDC4DD7
:102A30001AA21BA22DC0FE01EE0FFF1FEE0FFF1FFB
:102A4000EE0FFF1FE45DFC4D858D807C803CA1F482
:102A5000CE01880F991F880F991F880F991F885BD7
:102A60009C4DDFDBBC01C70165D2892B29F0F50144
:102A700080818E7F808314C0CC0FDD1FCC0FDD1FC3
:102A8000CC0FDD1FC45DDC4D1E8E1F8E1AA21BA253
:102A9000892D77DC7724739403C0712C01C0712CCD
:102AA000872DDF91CF911F910F91FF90EF90DF90D5
:102AB000CF90BF90AF909F908F907F900895FF929E
:102AC0000F931F93CF93DF93182FF82EFF1CFF2433
:102AD000FF1CC82FCF70D0E0CC0FDD1FCF0DD11D54
:102AE000C6DBDC01FE01EE0FFF1FEE0FFF1FEE0F36
:102AF000FF1FE85BFC4D02E005938C9180FF22C034
:102B00008E7F8C931796ED91FC9118973097D1F0AA
:102B1000FF2059F0CC0FDD1FCC0FDD1FCC0FDD1FC8
:102B2000C45DDC4D6AA17BA10AC0CC0FDD1FCC0FB8
:102B3000DD1FCC0FDD1FC45DDC4D6E8D7F8D412F01
:102B400081E00995DF91CF911F910F91FF9008953A
:102B5000CF93C82FB4DFEC2FEF70F0E0EE0FFF1F24
:102B60008C2FCC0F990B8827990F881F9927E80F76
:102B7000F91FEE0FFF1FEE0FFF1FEE0FFF1FE45DAB
:102B8000FC4D158ECF9108950F93E82FEF70F0E074
:102B9000EE0FFF1F282F082E000C330B2227330FB8
:102BA000221F3327E20FF31FEE0FFF1FEE0FFF1F51
:102BB000EE0FFF1FDF01A45DBC4D5D969C915D97FC
:102BC00094605D969C93E85BFC4D01E0069377DF93
:102BD00081E00F9108951F920F920FB60F9211246A
:102BE0000F932F933F934F935F936F937F938F93A5
:102BF0009F93AF93BF93CF93EF93FF938091CB04B9
:102C0000882344F480E88093CA040E944D0C0E94FB
:102C100028048BC08091CB0482FF20C084E0809385
:102C2000CA048091502386FF80C08091CC0481FD2E
:102C30007CC038DB811179C080912B23813011F465
:102C40006EDA73C0843009F070C0E1E5F3E204E0AD
:102C50000593E9E4F3E204E0059367C08091CB04B7
:102C600081FF5EC082E08093CA048091482386FF82
:102C70005CC08091CC0481FD58C014DB811155C02B
:102C800080912B23823041F484E080932B23E8E46D
:102C9000F3E202E0069349C0833009F046C0E1E563
:102CA000F3E204E00593E9E4F3E204E005933DC0B8
:102CB00080E18093CA04C1E08C2F01DF8C2F8068F3
:102CC000FEDECF5FC630C1F70E94280C1092C3040D
:102CD000ECE2F3E2158E96E0948F83E4858F15A2E3
:102CE00094A385A387EE92E280A391A3E3D91DC0AC
:102CF0008091CB0486FF08C080E48093CA0480E002
:102D0000B0D90E94260411C08091CB0485FF0DC06C
:102D100080E28093CA0481E0A4D90E94270405C000
:102D20008091CB0484FDC4CFE3CFFF91EF91CF918D
:102D3000BF91AF919F918F917F916F915F914F91D3
:102D40003F912F910F910F900FBE0F901F901895EC
:102D50001F920F920FB60F9211240F931F932F9370
:102D60003F934F935F936F937F938F939F93AF9313
:102D7000BF93CF93DF93EF93FF938091CC0481FDBA
:102D800003C090DA8111C1C082E08093CC048091AD
:102D9000C5048195880FE8E4F3E2E81BF10920817E
:102DA00031812854334236952795369527953695A7
:102DB0002795822F869520FD02C090E001C090E803
:102DC000890FE82FEF70F0E0EE0FFF1F282F082E7D
:102DD000000C330B2227330F221F3327E20FF31F80
:102DE000DF01AA0FBB1FAA0FBB1FAA0FBB1FA45D49
:102DF000BC4D5C969C9195FF88C0EE0FFF1FEE0FB7
:102E0000FF1FEE0FFF1FE85BFC4D00E206938111F0
:102E100077C080912B23843019F48FD94BD975C09A
:102E200000914A2310914B238091F4259091F52530
:102E3000C0912723D09128239E01200F311F821794
:102E4000930718F48C010C1B1D0B8091F2259091B7
:102E5000F325A80167EE72E28C0F9D1FA7D0C00F6B
:102E6000D11FC0932723D09328230034110569F480
:102E70008091292390912A238C0F9D1F2091F0256A
:102E80003091F1258217930780F0EAEEF5E2C287D0
:102E9000D3870684F785E02D309729F009958111B5
:102EA00002C02FD932C03BD930C08091F425909117
:102EB000F525C817D907F9F4E091F825F091F9251F
:102EC000309711F41ED921C00995811102C019D97A
:102ED0001CC02091292330912A238091272390918F
:102EE0002823820F931F8093292390932A231092E3
:102EF000272310922823E8E4F3E202E0069305C0BA
:102F0000803811F422D901C03CDAFF91EF91DF91B2
:102F1000CF91BF91AF919F918F917F916F915F9171
:102F20004F913F912F911F910F910F900FBE0F90D6
:102F30001F901895AA1BBB1B51E107C0AA1FBB1FFE
:102F4000A617B70710F0A61BB70B881F991F5A9535
:102F5000A9F780959095BC01CD01089597FB072EA8
:102F600016F4009406D077FD08D0E4DF07FC05D006
:102F70003EF4909581959F4F0895709561957F4F90
:102F80000895EE0FFF1F0590F491E02D0994A29F84
:102F9000B001B39FC001A39F700D811D1124911D2D
:102FA000B29F700D811D1124911D0895FB01DC015C
:102FB00002C001900D9241505040D8F70895F89406
:022FC000FFCF41
:102FC20040000CE02E0AFFFFFFFF55800080000446
:102FD2000B0F0B150B010B000064201F20000028B3
:102FE2002023200F2000000009023C000101008084
:102FF200FA0904000006FFFFFF00070581018000B7
:103002000107058201800001070583018000010795
:1030120005840180000107058501800001070586FE
:10302200018000011201000200000040EB0300A039
:103032000002010200010000000300000000000085
:10304200000000000000000000000000000000007E
:10305200000000000000000000000000000000006E
:1030620000000000000000000000555342476F625C
:10307200696E6461722044756D6D7920446576696C
:1030820063650054617069725465636800000403EB
:0C30920009046465627567313233000088
:00000001FF
