:100000002CC1000046C1000044C1000042C10000F4
:1000100040C100003EC1000004C700000C94490824
:100020000C94B8080C94F90834C1000032C10000E7
:1000300030C100002EC100002CC100002AC1000008
:1000400028C1000026C1000024C1000022C1000018
:1000500020C100001EC100001CC100001AC1000028
:100060000C94200A16C1000014C1000012C1000047
:1000700010C100000EC100000CC100000AC1000048
:1000800008C1000006C1000004C1000002C1000058
:1000900000C10000FEC00000FCC00000FAC000006B
:1000A000F8C00000F6C00000F4C00000F2C000007C
:1000B000F0C00000EEC00000ECC00000EAC000008C
:1000C000E8C00000E6C00000E4C00000E2C000009C
:1000D000E0C00000DEC00000DCC00000DAC00000AC
:1000E000D8C00000D6C00000D4C00000D2C00000BC
:1000F000D0C00000CEC00000CCC00000CAC00000CC
:10010000C8C00000C6C00000C4C00000C2C00000DB
:10011000C0C00000BEC00000BCC00000BAC00000EB
:10012000B8C00000B6C00000B4C00000B2C00000FB
:10013000B0C00000AEC00000ACC00000AAC000000B
:10014000A8C00000A6C00000A4C000000C94800954
:10015000A0C000009EC000009CC000009AC000002B
:1001600098C0000096C0000094C0000092C000003B
:1001700090C000008EC000008CC000008AC000004B
:1001800088C0000086C0000084C0000082C000005B
:1001900080C000007EC000007CC000007AC000006B
:1001A00078C0000076C0000074C0000072C000007B
:1001B00070C000006EC000006CC000006AC000008B
:1001C00068C0000066C0000064C0000062C000009B
:1001D00060C000005EC000005CC000005AC00000AB
:1001E00058C0000056C0000054C0000052C00000BB
:1001F00050C000000C9457150C9411162F07560789
:100200007D07A407CB073B08F2071708370C390C0A
:10021000770CB60CBF0CC40C180D1D0D650C680CCA
:100220006B0C6D0C6F0C710C730C750CA30CA60C85
:10023000A90CAC0CAE0CB00CB20CB40CD00CDB0C9A
:10024000E60CF50CF70CF90C030D0D0D951098103C
:100250009B109E10A110A410A71011241FBECFEF59
:10026000CDBFDFE2DEBF10E2A0E0B0E2E0E4FEE2FC
:1002700002C005900D92A63BB107D9F72EE2A6EB7E
:10028000B0E201C01D92A635B207E1F735D10C945A
:100290001E17B6CE1F93CF93DF93C0E5D0E014E0D6
:1002A0001E838CE1EBD1E0E6F0E083838BEB868369
:1002B00080E8858381E0808388ED84BF10934100CE
:1002C00083E08883E0E5F0E081818330E9F7E0E5D1
:1002D000F0E080818160808388E18583818180FF77
:1002E000FDCFE0E5F0E0808180618083818184FF43
:1002F000FDCF88ED84BF84E080934000E8E6F0E025
:10030000828185518283DF91CF911F910895E0E72B
:10031000F0E085818E7F8583E0E0FAE080EC9DE56A
:1003200086A397A380EE9EE280A391A381E08083C1
:100330000895009709F471C00CF09C01992334F4DE
:1003400022273327281B390B51E001C050E0E8E693
:10035000F0E0838190E080935D2290935E22809113
:100360005D2290915E229695982F88279795879584
:1003700080935D2290935E22428180915D229091D4
:100380005E22840F911D80935D2290935E22000077
:1003900080915D2290915E228217930728F410923B
:1003A0005D2210925E22089580915D2290915E22DE
:1003B000820F931F8115904238F08FEF9FE1809359
:1003C0005D2290935E220895552359F080915D221D
:1003D00090915E22821B930B80935D2290935E220C
:1003E0000AC080915D2290915E22280F391F2093D0
:1003F0005D2230935E2280915D2290915E228F7704
:10040000E8E6F0E0828380915D2290915E22880F81
:10041000892F881F990B9195838308950F931F93BC
:10042000CF93DF93C091200AD091210A80910020C0
:10043000909101208E01081B190BC03E8EE2D80757
:1004400018F48FEF9FEF75DFC13E8EE2D80718F0EA
:1004500081E090E06EDFC801992314F481589F4F2A
:10046000880F892F881F990B64DFC0930020D093D9
:100470000120DF91CF911F910F910895E0E8F6E000
:100480008FE0808385E08483089508954091BB20A8
:1004900027E731E0429FC001439F900D112446E4BD
:1004A00052E06AEF70E08C58994D0C94A80A0895B8
:1004B0004091BB2027E731E0429FC001439F900D50
:1004C000112448E552E06AEF70E08259984D0C948F
:1004D000B40A08954091BB2027E731E0429FC00154
:1004E000439F900D11244AE652E06AEF70E088596C
:1004F000974D0C94C00A089587E08093A2007894E9
:10050000C9DEC3DF0E94B70BFFD022D160E080E0DC
:10051000BED0AAD08CE09ED0B1D66CD783D7AEDF48
:100520008091602290916122A0916222B091632219
:100530000196A11DB11D813021EE920725EFA20782
:1005400025E0B20718F080E090E0DC010000000038
:10055000000000000000000000000000000000009B
:100560000000000000000000E3CF0895089580918E
:10057000B920882339F0CBDE1092B92081E0809336
:10058000B82028C08091B820882321F147DFE0916E
:10059000B620F091B7208091200A9091210AEE0FA9
:1005A000FF1FE05BF34D808391838091B620909193
:1005B000B7208F3F910529F41092B6201092B720F2
:1005C00009C08091B6209091B72001968093B62003
:1005D0009093B7209091BB2081E0911180E08093AF
:1005E000BB20089581E08093BE208093B92046E42B
:1005F00052E06EEE72E084E796E2AAD748E552E058
:100600006EEE72E08EE697E2AFD74AE652E06EEE0B
:1006100072E088E698E2B4D781E008951092BE2097
:10062000089581E0089581E00895E0E0F2E010A2ED
:10063000982F9C71936890A388231CF490E182E02A
:1006400002C090E080E0892BE0E0F2E081A312A2FA
:1006500016A20895E0E0F2E010AA836880AB80E182
:1006600081AB12AA16AA0895E0E0F2E010A683E892
:1006700080A78FE281A712A616A60895AAECB1E082
:1006800092E09C93E82FF0E084911C920895CF9320
:10069000DF93E0E7F0E091819D7F9183109200026B
:1006A000623031F1E0E0F2E09CE1918390E49283EA
:1006B000811102C080E401C080EC809303026130AC
:1006C00011F083E001C082E0C0E0D2E08C8380E2E0
:1006D000D5DF8C8781E2D2DF8D87188E198E81E07D
:1006E0008883C2DF0EC080EC8093030283E0ECCFEE
:1006F000E0E0F2E09EE1918390E492838111F3CFF8
:10070000D9CFDF91CF910895CF93DF93E0E7F0E069
:1007100082818B7F8283C0E2D3E08DE0888380E496
:10072000898389E08A8383E3A9DF888782E3A6DF60
:10073000898787E3A3DF8A8786E3A0DF8B87E0E2F0
:10074000F6E08081836080831482DF91CF910895E9
:10075000E0E7F0E080818E7F808383E88093000172
:100760000895E0E0F1E0108A80E4808B10A280A37D
:1007700010AA80ABE0E4F1E0108280831092BD20EB
:100780001092BC2081E08093BB200895109202203B
:10079000E8DFE0E0F1E016AA84E280AB11AA49E5C7
:1007A00042AB32E033AB609104207091052064AB22
:1007B00075AB64E774E260AF71AF12AE9BE394AFC8
:1007C00093E090933D0110923E0120A9206820AB58
:1007D00010924601A0E4B1E08C9310924101409345
:1007E000420190934301409106205091072040938D
:1007F00044015093450144E652E24093480150932E
:10080000490110924A0129E320934C0190934D0134
:1008100010924E019C9190689C93108A90E4908B6A
:10082000808B118A95E9928B90E1938B4EEE52E08A
:10083000448B558B808F318F128E84E796E2848FA4
:10084000958F168E80898068808B0895CF93DF9373
:1008500081E08093022085DFE0E0F1E010AA80E4EF
:1008600080AB94E090AB11AA12AA5BE453AB14AA3C
:1008700015AA16AA23E030E220AF31AF12AE40EA4B
:1008800044AF38E030933D0110923E0180A9806A68
:1008900080AB85E58093A00810924601A0E4B1E00A
:1008A000D4E2DC931092410189E580934201C2E0D9
:1008B000C09343016091042070910520609344012E
:1008C0007093450164E774E26093480170934901B5
:1008D00010924A018BE380934C0183E080934D0199
:1008E00010924E012C9120682C93908B818BA1E962
:1008F000A28B20E1238B67E771E0648B758BD08F2F
:10090000C18F128EC4E7D6E2C48FD58F168E208990
:100910002068208B90A381A3A2A353A364A375A3F3
:1009200040A731A712A68BEE97E284A795A716A63B
:1009300080A1806880A3DF91CF910895CF93F89430
:10094000C2E0C09302200DDFE0E0F1E016AA94E2DD
:1009500090AB11AA39E532AB83E083AB409106201E
:100960005091072044AB55AB44E652E240AF51AF43
:1009700012AE29E324AF80933D0110923E0120A9DD
:10098000206820AB10924601A0E4B1E09C93109245
:10099000410130934201C0934301209104203091E2
:1009A0000520209344013093450124E734E220934D
:1009B00048013093490110924A012BE320934C01E6
:1009C00080934D0110924E012C9120682C9354E09D
:1009D000508B818B41E9428B20E1238B27E731E06B
:1009E000248B358B908FC18F128E64E776E2648FF3
:1009F000758F168E90899068908B50A381A342A327
:100A000082E183A324A335A384E380A7C1A712A610
:100A10008BEE97E284A795A716A680A1806880A395
:100A20007894CF910895CF93C3E0C093022099DECC
:100A3000E0E0F1E010A250E450A344E040A311A292
:100A400012A23BE433A314A215A216A283E090E203
:100A500080A791A712A620EA24A798E095A716A63A
:100A600080A1806A80A385E58093A00816AA74E21D
:100A700070AB11AA69E562ABC3ABA0910620B0913F
:100A80000720A4ABB5ABA4E6B2E2A0AFB1AF12AE03
:100A900089E384AFC0933D0110923E0180A9806834
:100AA00080AB10924601A0E4B1E07C93109241012A
:100AB0006093420182E08093430160910420709131
:100AC0000520609344017093450164E774E26093EC
:100AD00048017093490110924A018BE380934C01C5
:100AE000C0934D0110924E018C9180688C93108AB6
:100AF000508B408BC18B81E9828B338B47E751E070
:100B0000448B558B208F918F128E84E796E2848FD1
:100B1000958F168E80898068808BCF910895CF93B2
:100B2000C4E0C09302201DDEE0E0F1E010A280E40A
:100B300080A3C0A311A212A24BE443A314A215A246
:100B400016A283E090E280A791A712A660EA64A7AC
:100B500088E085A716A690A1906A90A395E590934A
:100B6000A00810924601A0E4B1E094E29C93109298
:100B7000410199E59093420192E0909343012091C5
:100B8000042030910520209344013093450124E74F
:100B900034E2209348013093490110924A019BE3CB
:100BA00090934C0193E090934D0110924E012C9143
:100BB00020682C93C08B918B31E9328B438B47E7B4
:100BC00051E0448B558B608F818F128E64E776E203
:100BD000648F758F168E20892068208BC0AB91ABF7
:100BE00032AB9AE493AB44AB55AB93EC90AF81AF8F
:100BF00012AE8BEE97E284AF90933D0110923E01CE
:100C000080A9806880ABCF91089585E08093022011
:100C1000A8DDE0E0F1E016AA34E230AB11AA29E544
:100C200022AB83E083AB409106205091072044AB78
:100C300055AB44E652E240AF51AF12AE99E394AFE8
:100C400080933D0110923E0190A9906890AB109264
:100C50004601E0E4F1E0308310924101209342012B
:100C60008093430120910620309107202093440176
:100C70003093450124E734E2209348013093490141
:100C800010924A019BE390934C0180934D01109286
:100C90004E01808180688083089586E080930220E1
:100CA00060DDE0E0F1E016AA94E290AB11AA39E52C
:100CB00032AB83E083AB409106205091072044ABD8
:100CC00055AB44E652E240AF51AF12AE29E324AF38
:100CD00080933D0110923E0120A9206820AB109224
:100CE0004601A0E4B1E09C9310924101309342018F
:100CF00032E030934301409104205091052040930D
:100D000044015093450144E754E240934801509315
:100D1000490110924A012BE320934C0180934D012D
:100D200010924E012C9120682C93108A20E4208B85
:100D300024E0208B818B81E9828B80E1838B4EEED6
:100D400052E0448B558B908F318F128E84E796E260
:100D5000848F958F168E80898068808B089587E0B8
:100D600080930220FEDCE0E0F1E016AA94E290AB72
:100D700011AA39E532AB83E083AB40910620509154
:100D8000072044AB55AB44E652E240AF51AF12AE40
:100D900029E324AF80933D0110923E0120A92068F1
:100DA00020AB10924601A0E4B1E09C931092410167
:100DB0003093420132E0309343014091042050913E
:100DC0000520409344015093450144E754E2409389
:100DD00048015093490110924A012BE320934C01A2
:100DE00080934D0110924E012C9120682C93108A13
:100DF00020E4208B25E0208B818B81E9828B80E1B0
:100E0000838B4EEE52E0448B558B908F318F128E38
:100E100084E796E2848F958F168E80898068808B18
:100E200008951F920F920FB60F9211242F933F93A4
:100E30004F938F939F93AF93BF93EF93FF9381E073
:100E400080930301E09102208E2F90E0883091057D
:100E500008F011C1FC01E250FF4F0C940F17E0E0C5
:100E6000F1E087E791E0848B958B4091BD202EEED9
:100E700032E0429FC001439F900D11248C58994D40
:100E8000848F4091BD20429FC001439F900D11244B
:100E90008C58994D958F80898068808B9091BD206A
:100EA00081E0911180E08093BD20E5C0E0E0F1E0B9
:100EB00087E791E0848B958B4091BD202EEE32E048
:100EC000429FC001439F900D11248C58994D848FEF
:100ED0004091BD20429FC001439F900D11248C582A
:100EE000994D958F80898068808B9091BD2081E09D
:100EF000911180E08093BD20BEC0E0E0F1E087E783
:100F000091E0848B958B4091BD202EEE32E0429F84
:100F1000C001439F900D11248C58994D848F4091AE
:100F2000BD20429FC001439F900D11248C58994DC4
:100F3000958F80898068808B9091BD2081E0911190
:100F400080E08093BD2097C0E0E0F1E087E791E08A
:100F5000848B958B4091BD202EEE32E0429FC001E4
:100F6000439F900D11248C58994D848F4091BD2042
:100F7000429FC001439F900D11248C58994D958F2D
:100F800080898068808B9091BD2081E0911180E004
:100F90008093BD2070C0E0E0F1E087E791E0848BB2
:100FA000958B4091BD202EEE32E0429FC001439FC1
:100FB000900D11248C58994D848F4091BD20429FF3
:100FC000C001439F900D11248C58994D958F8089B5
:100FD0008068808B9091BD2081E0911180E08093AA
:100FE000BD2049C0E0E0F1E02EEE32E0248B358BED
:100FF0004091BD20429FC001439F900D11248C5809
:10100000994D848F4091BD20429FC001439F900D18
:1010100011248C58994D958F80898068808B909190
:10102000BD2081E0911180E08093BD2024C0E0E0EC
:10103000F1E02EEE32E0248B358B4091BD20429FB3
:10104000C001439F900D11248C58994D848F40917D
:10105000BD20429FC001439F900D11248C58994D93
:10106000958F80898068808B9091BD2081E091115F
:1010700080E08093BD20FF91EF91BF91AF919F9150
:101080008F914F913F912F910F900FBE0F901F9016
:1010900018951F920F920FB60F9211242F933F9322
:1010A0004F938F939F93EF93FF9382E0809303017D
:1010B00080910220813019F0823041F14DC0E0E092
:1010C000F1E087E791E084A395A34091BC202EEE48
:1010D00032E0429FC001439F900D11248551984DED
:1010E00084A74091BC20429FC001439F900D1124D2
:1010F0008551984D95A780A1806880A39091BC20D0
:1011000081E0911180E08093BC2026C0E0E0F1E016
:1011100087E791E084A395A34091BC202EEE32E0B6
:10112000429FC001439F900D11248551984D84A783
:101130004091BC20429FC001439F900D11248551D6
:10114000984D95A780A1806880A39091BC2081E0F4
:10115000911180E08093BC20FF91EF919F918F913E
:101160004F913F912F910F900FBE0F901F901895A8
:101170001F920F920FB60F9211242F933F934F930C
:101180008F939F93EF93FF93E0E0F1E084E08383FC
:1011900087E791E084AB95AB4091BC202EEE32E026
:1011A000429FC001439F900D11248551984D84AFFB
:1011B0004091BC20429FC001439F900D1124855156
:1011C000984D90933D0180A9806880AB9091BC20A0
:1011D00081E0911180E08093BC20FF91EF919F917D
:1011E0008F914F913F912F910F900FBE0F901F90B5
:1011F00018951F920F920FB60F9211242F933F93C1
:101200004F938F939F93EF93FF9388E08093030115
:1012100087E791E080934401909345014091BC2081
:101220002EEE32E0429FC001439F900D1124855164
:10123000984D80934C014091BC20429FC001439F38
:10124000900D11248551984D90934D01E0E4F1E00B
:101250008081806880839091BC2081E0911180E042
:101260008093BC20FF91EF919F918F914F913F917F
:101270002F910F900FBE0F901F901895E0E7F0E0B0
:1012800083818C7F838384818C7F848380818D7F25
:101290008083E0E8F1E080EC8283128688EC818331
:1012A0001186A0E0B8E034E03C9323E011962C9343
:1012B000119714961C92149785ED91E096968D9354
:1012C0009C93979716961C921697E0E4F8E030836B
:1012D0002183148286A397A31682E0E6F6E080813C
:1012E00080618083E0E4F9E083E18183148282E01D
:1012F0008683A6A3B7A310A611A681E080830895D4
:101300001F920F920FB60F9211242F933F934F937A
:101310005F938F939F93EF93FF93CF93DF931F92EE
:10132000CDB7DEB78FEF80934C09809102208730D4
:1013300031F4E0E0F2E084A5898395A502C09091A4
:101340002C028091BA20891B20916809309169098B
:1013500091E082300CF490E09923C9F091E02A3FAB
:10136000374008F090E0992391F02091680930917E
:10137000690989301CF481E090E002C086E090E0C9
:10138000820F931F809378099093790923C020914D
:1013900068093091690991E08F3F0CF090E0992342
:1013A000C9F091E02730310508F490E0992391F0DD
:1013B0002091680930916909883F1CF081E090E034
:1013C00002C086E090E0A901481B590B40937809C0
:1013D000509379090F90DF91CF91FF91EF919F91F9
:1013E0008F915F914F913F912F910F900FBE0F9072
:1013F0001F901895E0E7F0E083818F7E8383E0E41F
:10140000F6E080818A6A80838FEF848388E5828B0F
:10141000E0EAF8E084EC858383E08683178288E144
:1014200084830895E0E7F0E08381877F8383E0ECA5
:10143000F8E080E48083118288E580935506089562
:101440001F920F920FB60F92112400000F900FBE43
:101450000F901F9018959FB7F894E82FF0E0E0598F
:10146000FF4F60958081682360839FBF0895863019
:1014700011F060E001C068E18091510081FD26C05B
:101480009FB7F894E0E5F0E08081826080839FBFA1
:10149000818181FFFDCF9FB7F894A0E5B0E016965B
:1014A0008C911697897F16968C931697E0E6F0E05C
:1014B00080E885838BEB868316968C9116978460E3
:1014C00016968C938081816080839FBF636084E4E3
:1014D00090E02DD560E480E0BECF08958091BF20DC
:1014E000089540D1FC0183818093BF20811102C007
:1014F00079C8089581E008958091BF20813009F472
:101500008DC808958091642488234CF480768034BB
:10151000A9F480916524811113C085C8089580764F
:10152000803481F48091652481110EC080916A24F9
:1015300090916B24892B51F074C8089580E0089530
:1015400080E0089580E0089580E0089580E00895A7
:101550000F931F939B018A01AC0160E081E80E9418
:101560000B141F910F9108950F931F939B018A01F4
:10157000AC0160E082E80E940B141F910F91089566
:101580000F931F939B018A01AC0160E083E80E94E6
:101590000B141F910F910895E091C420F091C52084
:1015A0000190F081E02D228133812E0F3F1FFC013D
:1015B0004081E40FF11DE217F307B8F48181843014
:1015C000B9F0861309C005C081818430A1F086136B
:1015D00003C08E2F9F2F08958081E80FF11DE21721
:1015E000F30790F380E090E0089580E090E00895A4
:1015F00080E090E0089580E090E008958091662476
:101600008F770C94391308959091C620992381F116
:10161000E091C420F091C5200190F081E02D9481EB
:10162000891740F5E093C220F093C32022813381D3
:101630002E0F3F1FE217F307F8F49181943061F405
:101640009281981309C09381961306C0E093C2203B
:10165000F093C32081E008959081E90FF11DE21716
:10166000F30758F3E093C220F093C32080E008957D
:1016700080E0089580E0089580E00895EF92FF9261
:101680001F93CF93DF93C82F60E0BEDF182F88230E
:1016900081F1A091C420B091C520EC2FF0E0EE0FB5
:1016A000FF1F12968D919C911397E80FF91FE08010
:1016B000F180D7011696ED91FC9117970995682F47
:1016C0008C2FA2DF182F8823A1F0C091C220D091C7
:1016D000C32065E0CE0160DFEC01892B21F08A8117
:1016E0000E940E15F6CFD7011296ED91FC9113973B
:1016F0000995812FDF91CF911F91FF90EF90089571
:101700001F93CF93DF93182F7FDF882339F1C09188
:10171000C220D091C32065E0CE013EDFEC01892BD1
:1017200041F04C815D816B818A81B0D78111F3CF0B
:1017300015C0A091C420B091C520E12FF0E0EE0FBC
:10174000FF1F12968D919C911397E80FF91F01903E
:10175000F081E02D0190F081E02D0995DF91CF918E
:101760001F9108958091C2209091C3200895FCC6D6
:101770000895CF938091C6208823C1F0E091C420C2
:10178000F091C5200190F081E02D8481882371F0D3
:10179000C0E08C2F73DFCF5FE091C420F091C520B3
:1017A0000190F081E02D8481C81798F31092C62033
:1017B0001092CA201092CB20CF910895CF938091A0
:1017C000C620882349F1A091C420B091C520ED9195
:1017D000FC91119784818823F9F0C0E0EC2FF0E0B0
:1017E000EE0FFF1F12968D919C911397E80FF91F32
:1017F0000190F081E02D0084F185E02D309709F013
:101800000995CF5FA091C420B091C520ED91FC91C6
:1018100011978481C81710F3CF9108950F931F93E8
:10182000CF93DF93E4E6F4E21286138614861586DE
:1018300016861786808188233CF420916A24309193
:101840006B24232B09F467C38076803409F005C12B
:10185000E09165248E2F90E0FC01E05AF109E83018
:10186000F10508F0F1C0EA5FFE4F0C940F1700007D
:1018700056C3E0E0F8E01082C4E6D4E28A819B819E
:1018800086AB97AB8C818F7080836E817F8184E67D
:1018900092E2F5D68E819F8120910620309107201B
:1018A0008217930709F43BC3809306209093072087
:1018B000E09102208E2F90E08830910508F0C6C09C
:1018C000FC01E25FFE4F0C940F170E94C60327C372
:1018D0000E94260424C332D822C3A5D820C31FD90E
:1018E0001EC393D91CC3D9D91AC339DA18C3E0E48B
:1018F000F8E01082C4E6D4E28A819B8186AB97AB84
:101900008C818F7080836E817F8184E794E2B7D66B
:101910008E819F81209104203091052082179307AA
:1019200009F4FDC28093042090930520E0910220E9
:101930008E2F90E08830910508F08AC0FC01EA5EA5
:10194000FE4F0C940F170E94C603E9C20E942604A2
:10195000E6C20E949E04E3C266D8E1C2E0D8DFC2BC
:1019600054D9DDC29AD9DBC2FAD9D9C2109268091A
:1019700010926909809166248093BA20D0C2809128
:10198000662480932406CBC2E0916624F0916724FC
:10199000E830F10508F05EC0E25EFE4F0C940F17D0
:1019A00060E080E00E944703809168240E94150354
:1019B0000E94C603B4C260E080E00E9447038091A9
:1019C00068240E9415030E942604A9C261E081E0F8
:1019D0000E944703C4E6D4E28C810E9415038D81E6
:1019E0000E942A030E949E049AC21DD898C297D8CA
:1019F00096C260E080E00E944703809168240E94C4
:101A0000150303D98CC261E080E00E9447038091F6
:101A100068240E94150341D982C262E080E00E94DE
:101A200047038091682480680E94150398D977C283
:101A3000809166248093840672C2E9E7F0E091E029
:101A400088EDF89484BF908380E005C081E003C0F6
:101A500081E001C080E0811165C280916424982FEB
:101A6000907609F0E1C188230CF005C120916A2429
:101A700030916B242115310509F4D6C18F7109F01D
:101A8000A3C090916524963079F0983009F492C003
:101A900091119AC02230310509F0C6C162E070E0B0
:101AA0008AEC90E2ECD53DC2809166249091672447
:101AB000292F332722303105A9F024F421303105B4
:101AC00041F0A9C123303105D9F12F30310551F151
:101AD000A2C18091122090911320DC016C9170E0E2
:101AE000CED559C0E0911220F091132021898217A0
:101AF00008F09AC19927880F991F880F991FE091C4
:101B00001420F0911520E80FF91F80819181FC01CC
:101B100062817381B4D5E0916C24F0916D2482E0F0
:101B2000818339C08091162090911720009709F485
:101B30007BC1DC0112966D917C911397A0D52BC0CF
:101B400099278130910571F038F0029709F06CC146
:101B50008EE890E228E109C064E070E082EB90E258
:101B60008ED519C087EA90E229E0382FAEE5B0E2C1
:101B7000E82FF92F819190E08D939D938E2F831BF9
:101B80008217C0F3622F660F6E5F60935C2070E077
:101B90008CE590E274D5E4E6F4E2868197812285B3
:101BA00033858217930708F0BCC180936E2490930D
:101BB0006F24B7C12130310509F036C161E070E012
:101BC00086EC90E25CD5ADC18130E1F59091652461
:101BD0009A30C1F52130310509F026C18091C62027
:101BE000882309F421C1C0916824D091692400910F
:101BF000C4201091C520D801ED91FC918481C817B3
:101C000008F012C160E08C2FFFDC882309F40CC1BE
:101C1000CE019927880F991FD8011296ED91FC915A
:101C20001397E80FF91F0190F081E02D86819781CD
:101C3000FC0109958093C82061E070E088EC90E297
:101C40001ED56FC1823009F0EFC0809165248111EB
:101C5000E4C02230310509F0E7C0809168248BD5BB
:101C600090E08093C0209093C12062E070E080EC0F
:101C700090E205D556C18F7109F083C0909165241B
:101C8000933009F4CCC018F49130A1F07AC09530AB
:101C900019F0993039F175C080916A2490916B24C4
:101CA000892B09F0C1C08EEF9AE080937024909345
:101CB000712437C180916A2490916B24892B09F09B
:101CC000B3C08091662490916724019709F0ACC05D
:101CD0008091CA209091CB208D7F8093CA209093D1
:101CE000CB201FC180916A2490916B24892B09F02D
:101CF0009BC0C2D4882309F497C0209166243091F8
:101D000067243327E0911220F0911320818990E01D
:101D10008217930708F488C02CDD80916624909187
:101D200067248093C620882309F4FBC0992781503B
:101D3000904C880F991F880F991FE0911420F09103
:101D40001520E80FF91FE093C420F093C5200190FF
:101D5000F081E02D8481882309F4E3C0C0E060E0D5
:101D60008C2FCEDC882309F45FC0CF5FE091C420C4
:101D7000F091C5200190F081E02D8481C81778F39F
:101D8000D0C08130E1F4909165249B30C1F4809102
:101D90006A2490916B24892B09F046C08091C6205B
:101DA000882309F441C0E4E6F4E2C481D2818C2F97
:101DB00065DC8823C9F16D2F8C2FA2DC33C0823003
:101DC00099F580916524813019F0833089F029C01C
:101DD00080916A2490916B24892B31F5809166243F
:101DE00090916724892B01F580916824DFD41AC073
:101DF00080916A2490916B24892BB1F480916624A0
:101E000090916724892B81F4C4E6D4E28C81BDD5FE
:101E10008C8120D607C080E005C080E003C080E050
:101E200001C080E081117EC0809164248F71813077
:101E300071F58091C620882351F10091682410919A
:101E40006924C091C420D091C520E881F9818481A2
:101E50000817E8F460E0802FD7DB8823C1F0F80191
:101E6000FF27CF01880F991FEA81FB81E80FF91F37
:101E7000C081D181EE81FF810995682F802FC4DB5D
:101E8000882329F0EC81FD81099581114BC0809157
:101E900064248F71823009F040C08091C62088236D
:101EA000B1F1A091C420B091C520ED91FC911197A2
:101EB0008481882371F1C0E0EC2FF0E0EE0FFF1F6A
:101EC00012968D919C911397E80FF91F0081118153
:101ED000D8011696ED91FC9117970995682F8C2FD4
:101EE00093DB8823F9F0D8011496ED91FC911597B6
:101EF0000995811117C0CF5FA091C420B091C52072
:101F0000ED91FC9111979481C917B0F20BC080E05C
:101F100009C080E007C080E005C080E003C081E028
:101F200001C081E0DF91CF911F910F9108951BBEF9
:101F3000FC0128ED24BF608308954091CA01E62F7B
:101F4000F72F8093CA0184914093CA0108958111AB
:101F500022C090915C229923D9F09091512E911139
:101F600001C0FFCF2FB7F894E0E5FEE291819150D8
:101F700091832FBF0DC09091512E9F3F09F4FFCF49
:101F80002FB7F894E0E5FEE291819F5F91832FBF28
:101F900080935C22089590915C22992361F3F8CF9D
:101FA0000F93E8ECF4E080818F7D808380818F7DCA
:101FB0008083E0E2F2E202E0059310922222109286
:101FC000232200E2069300E40693E8E1F2E200E255
:101FD000069300E40693E4E6F4E21486158616867A
:101FE000178612861386109207220F9108950F9379
:101FF00085E080930722E1E2F2E204E00593E9E163
:10200000F2E204E005930F9108950F9383E080932B
:1020100007221092222210922322E0E2F2E202E052
:1020200006930F910895E0917024F09171243097F8
:1020300009F0099508950F93CF93DF9380910722BC
:10204000833019F4F0DFACDF5EC080910322909101
:102050000422C0916E24D0916F24C81BD90B71F556
:102060002091052230910622820F931F8093052232
:102070009093062220916A2430916B248217930753
:1020800021F08091CC20882341F084E080930722C6
:10209000E8E1F2E202E0069336C0E0917224F091AA
:1020A0007324309799F00995882381F010920322C8
:1020B00010920422C0916E24D0916F24C034D105B7
:1020C00028F01092CC20C0E4D0E003C081E08093DF
:1020D000CC20E8E0F2E2C28FD38F8091032290916E
:1020E000042220916C2430916D24280F391F248FF5
:1020F000358FC80FD91FC0930322D0930422E0E28A
:10210000F2E202E00693DF91CF910F910895FC0176
:102110008181E82FE7708E2F90E0FC013197E73046
:10212000F105C0F4EA5DFE4F7AC680E190E00895C3
:1021300080E290E0089580E490E0089580E890E0E7
:10214000089580E091E0089580E092E008958FEF97
:1021500093E0089588E090E00895282F2F7030E0F4
:10216000220F331F082E000C990B8827990F881F08
:102170009927820F931F02979C01220F331F220F72
:10218000331F220F331F820F931F83579E4D0895D5
:102190000F93CF938091CC0480FF62C081E0809345
:1021A000CC04E8E1F2E200E80693E0E2F2E200E8C3
:1021B00006938093CA04E8E1F2E200E1069380917D
:1021C0000722882329F08350823008F42CDFE8DED0
:1021D00080911A2290911B22089709F043C088E051
:1021E000E3ECF1E2A4E6B4E201900D928A95E1F706
:1021F000E8ECF4E08081806280838081806280836B
:102200000DDBC82F811103C0F2DEC1E02CC080912C
:10221000642488236CF410920522109206221092F6
:1022200003221092042282E08093072204DF1BC065
:1022300080916A2490916B24892B11F4E6DE13C0FF
:10224000109205221092062210920322109204226C
:1022500081E080930722E8E1F2E202E0069303C006
:10226000C0E001C0C1E08C2FCF910F9108958F92F3
:102270009F92AF92BF92DF92EF92FF920F931F93C4
:10228000CF93DF93D82E69DF8C01BD2CBB1CBB2400
:10229000BB1CCD2DCF70D0E0CC0FDD1FCB0DD11DE1
:1022A000CE01880F991F880F991F880F991F9C01D5
:1022B000285E3D4D7901C9012ADF4C01BB2009F49C
:1022C00070C0FE01EE0FFF1FEE0FFF1FEE0FFF1F8E
:1022D000E85FFD4D26893789D80115968D919C912F
:1022E0001697820F931F15968D939C9316971396AE
:1022F0002D913C9114978217930709F43CC0281B39
:10230000390B2115B4E03B0738F02FEF33E0C9015A
:10231000B40171D5281B390BF801808181FF09C0F8
:10232000C901B40168D541E0892B09F040E0842F50
:1023300001C080E0D8019C9180FB91F99C93CC0F67
:10234000DD1FCC0FDD1FCC0FDD1FC85FDD4D1E8AEA
:102350001F8A2A8B3B8B11962D913C9112971596D3
:102360008D919C911697820F931F8C8B9D8BF701FB
:1023700002E00693CAC0D8018C9181FFB3C08D7F63
:102380008C93CC0FDD1FCC0FDD1FCC0FDD1FC85F82
:10239000DD4D1E8A1F8A1A8A1B8AF70102E0069306
:1023A000B4C0FE01EE0FFF1FEE0FFF1FEE0FFF1F69
:1023B000E85FFD4DA288B388D8018C9182FF19C0D7
:1023C0001196ED91FC91129715962D913C911697CF
:1023D00013968D919C911497B4010DD5B0E4DB9EBA
:1023E000B001112463577F4DAC01CF01820F931FC1
:1023F0001CD5F801258136812A0D3B1D25833683A6
:10240000838194818217930768F485839683CC0F28
:10241000DD1FCC0FDD1FCC0FDD1FC85FDD4D8E89AA
:102420009F8960C0FE01EE0FFF1FEE0FFF1FEE0F32
:10243000FF1FE85FFD4D468957894A155B0509F086
:1024400051C02817390709F44DC0AC01421B530B8A
:102450009A01211554E0350750F02FEF33E0C90100
:10246000B401C9D4D901A81BB90BCD0107C0C9015A
:10247000B401C1D4F901E81BF90BCF01FE01EE0F45
:10248000FF1FEE0FFF1FEE0FFF1FE85FFD4D128ACB
:10249000138A8815990578F4D8018C9184608C93FF
:1024A000B0E4DB9EC001112483579F4D848B958B34
:1024B000868A978A13C0F80141815281258136812D
:1024C000240F351FCC0FDD1FCC0FDD1FCC0FDD1F00
:1024D000C85FDD4D2C8B3D8B8E8B9F8BF70102E00F
:1024E000069313C0D8018C9180FF0FC08E7F8C9310
:1024F0001796ED91FC911897309739F015966D91DC
:102500007C9116974D2D80E00995DF91CF911F9119
:102510000F91FF90EF90DF90BF90AF909F908F90C2
:102520000895CF93CFB7F89481E011DDEAECF4E0A1
:1025300080E4808380E28083E1ECF4E0808181604C
:102540008083A9ECB4E08C9182608C93E8ECF4E099
:102550008081806480838C9181608C93808180688D
:102560008083CFBFCF910895CF93DF93C0E6D0E0B3
:10257000188280E30E94370AE0ECF4E080818064F6
:10258000808381E08883CFB7F89480E090E0FC01FD
:10259000EE0FFF1FEE0FFF1FEE0FFF1FE85FFD4D59
:1025A000118A01968830910591F7EDE8F1E280817A
:1025B0008E7F8083E6E9F1E280818E7F8083EFE980
:1025C000F1E280818E7F8083E8EAF1E280818E7F74
:1025D0008083E1EBF1E280818E7F8083EAEBF1E2A0
:1025E00080818E7F80836AE170E082E0A6DC8F3F8D
:1025F00019F08093FA0403C08FE18093FA046BE131
:1026000070E082E09ADC8F3F19F08093FB0403C0F6
:102610008FE18093FB04E0ECF4E0808183608083B1
:1026200080818068808380818061808388E192E2FC
:10263000868397838081806280838FEF8093C50437
:10264000E8ECF4E080818260808310925C228091CB
:10265000552E8F3F09F4FFCF9FB7F894E0E5FEE2D7
:1026600085818F5F85839FBF5CDFCFBFDF91CF9177
:1026700008958093C30408958091C3040895E4E607
:10268000F4E280879187628773870895282F2F70DF
:1026900030E0220F331F082E000C990B8827990F6A
:1026A000881F9927820F931FFC01EE0FFF1FEE0F6B
:1026B000FF1FEE0FFF1FE85FFD4D2189207C09F011
:1026C00058C06370613011F018F404C020EC03C0EE
:1026D00020E801C020E440385105E9F050F44032D0
:1026E0005105A9F040345105A1F040315105D9F40C
:1026F0000CC0411532E0530791F04F3F33E05307D0
:1027000081F04115514079F408C041E00DC042E02C
:102710000BC043E009C044E007C045E005C046E007
:1027200003C047E001C040E0FC01EE0FFF1FEE0FC9
:10273000FF1FEE0FFF1FE85FFD4D118ADC01AA0F9E
:10274000BB1FAA0FBB1FAA0FBB1FA85EBD4D36E063
:102750003C93242B218B880F991F880F991F880F7A
:10276000991FFC01E85FFD4D81898062818B81E0CA
:10277000089580E00895E82FEF70F0E0EE0FFF1F5E
:10278000082E000C990B8827990F881F9927E80FAE
:10279000F91FEE0FFF1FEE0FFF1FEE0FFF1FE85F89
:1027A000FD4D818982FB882780F90895282F2F709D
:1027B00030E0A901440F551F282F082E000C330BC1
:1027C0002227330F221F3327240F351FF901EE0F65
:1027D000FF1FEE0FFF1FEE0FFF1FE85FFD4D9189FA
:1027E00092FF17C0220F331F220F331F220F331FF8
:1027F000F901E85FFD4D91899B7F918BAEDCFC0177
:10280000808180FF06C08E7F80830780F085E02D69
:10281000099581E008957F928F929F92AF92BF9227
:10282000CF92DF92EF92FF920F931F93CF93DF939C
:10283000982E862E6A01790190DC5C01792C771C38
:102840007724771CC92DCF70D0E0CC0FDD1FC70DCA
:10285000D11DFE01EE0FFF1FEE0FFF1FEE0FFF1F3A
:10286000E85FFD4D8189807C09F47DC0FE01EE0F9B
:10287000FF1FEE0FFF1FEE0FFF1FE85FFD4D818969
:10288000807C803C61F0FE01EE0FFF1FEE0FFF1F0A
:10289000EE0FFF1FE85FFD4D818982FD66C08FB797
:1028A000F894F501908190FF03C08FBF712C5EC03A
:1028B000F5019081916090838FBFC182D282E382C3
:1028C000F4821582168207831087811006C091E07A
:1028D000E114F10419F090E001C091E0F50180816C
:1028E00090FB81F98B7F8083772059F0CC0FDD1F1F
:1028F000CC0FDD1FCC0FDD1FC85FDD4D1E8A1F8A88
:102900002DC0FE01EE0FFF1FEE0FFF1FEE0FFF1F8A
:10291000E85FFD4D8189807C803CA1F4CE01880F69
:10292000991F880F991F880F991F885E9D4DEFDBB7
:10293000BC01C70160D2892B29F0F50180818E7F0F
:10294000808314C0CC0FDD1FCC0FDD1FCC0FDD1F2B
:10295000C85FDD4D1A8A1B8A1E8A1F8A892D87DC73
:102960007724739403C0712C01C0712C872DDF91E3
:10297000CF911F910F91FF90EF90DF90CF90BF907C
:10298000AF909F908F907F900895FF920F931F9329
:10299000CF93DF93182FF82EFF1CFF24FF1CC82FA6
:1029A000CF70D0E0CC0FDD1FCF0DD11DD6DBDC0109
:1029B000FE01EE0FFF1FEE0FFF1FEE0FFF1FE85E81
:1029C000FD4D02E005938C9180FF22C08E7F8C9399
:1029D0001796ED91FC9118973097D1F0FF2059F0A0
:1029E000CC0FDD1FCC0FDD1FCC0FDD1FC85FDD4D11
:1029F0006E897F890AC0CC0FDD1FCC0FDD1FCC0F85
:102A0000DD1FC85FDD4D6A897B89412F81E0099513
:102A1000DF91CF911F910F91FF900895CF93C82F11
:102A2000B4DFEC2FEF70F0E0EE0FFF1F8C2FCC0F18
:102A3000990B8827990F881F9927E80FF91FEE0F28
:102A4000FF1FEE0FFF1FEE0FFF1FE85FFD4D118A06
:102A5000CF9108950F93E82FEF70F0E0EE0FFF1F76
:102A6000282F082E000C330B2227330F221F332769
:102A7000E20FF31FDF01AA0FBB1FAA0FBB1FAA0F94
:102A8000BB1FA85FBD4D51969C9151979460519684
:102A90009C93EE0FFF1FEE0FFF1FEE0FFF1FE85E70
:102AA000FD4D01E0069371DF81E00F9108951F92C3
:102AB0000F920FB60F9211240F932F933F934F93C2
:102AC0005F936F937F938F939F93AF93BF93EF9396
:102AD000FF938091CB04882344F480E88093CA0458
:102AE0000E94DE0B0E94B7028AC08091CB0482FF55
:102AF00020C084E08093CA048091202286FF7FC09A
:102B00008091CC0481FD7BC043DB811178C0809132
:102B10000722813011F479DA72C0843009F06FC075
:102B2000E1E2F2E204E00593E9E1F2E204E0059378
:102B300066C08091CB0481FF5DC082E08093CA04AF
:102B40008091182286FF5BC08091CC0481FD57C024
:102B50001FDB811154C080910722823041F484E050
:102B600080930722E8E1F2E202E0069348C0833056
:102B700009F045C0E1E2F2E204E00593E9E1F2E2A6
:102B800004E005933CC080E18093CA0481E0FDDE4F
:102B900081E8FBDE82E0F9DE82E8F7DE0E94B90B15
:102BA0001092C304E8E0F2E2118A96E0908B83E48D
:102BB000818B118E908F818F83EC91E2848B958B2A
:102BC000EFD91DC08091CB0486FF08C080E48093BC
:102BD000CA0480E0BCD90E94B50211C08091CB0428
:102BE00085FF0DC080E28093CA0481E0B0D90E94C5
:102BF000B60205C08091CB0484FDC5CFE3CFFF9121
:102C0000EF91BF91AF919F918F917F916F915F9164
:102C10004F913F912F910F910F900FBE0F901F90EA
:102C200018951F920F920FB60F9211240F931F93B6
:102C30002F933F934F935F936F937F938F939F93C4
:102C4000AF93BF93CF93DF93EF93FF938091CC0427
:102C500081FD03C09DDA8111B9C082E08093CC046C
:102C60008091C5048195880FE8E1F2E2E81BF10943
:102C70002081318128513242369527953695279506
:102C800036952795822F869520FD02C090E001C0E1
:102C900090E8890FE82FEF70F0E0EE0FFF1F282F6C
:102CA000082E000C330B2227330F221F3327E20F8D
:102CB000F31FDF01AA0FBB1FAA0FBB1FAA0FBB1F69
:102CC000A85EBD4D9C9195FF81C0FD0100E2069379
:102CD000811177C080910722843019F4A4D960D97A
:102CE00075C000911A2210911B2280916E24909140
:102CF0006F24C0910322D09104229E01200F311F26
:102D00008217930718F48C010C1B1D0B80916C2407
:102D100090916D24A80163EC71E28C0F9D1F85D00A
:102D2000C00FD11FC0930322D09304220034110599
:102D300069F480910522909106228C0F9D1F2091AD
:102D40006A2430916B248217930780F0E4E6F4E262
:102D5000C287D3870684F785E02D309729F009953F
:102D6000811102C044D932C050D930C080916E2444
:102D700090916F24C817D907F9F4E0917224F0916B
:102D80007324309711F433D921C00995811102C001
:102D90002ED91CC020910522309106228091032259
:102DA00090910422820F931F809305229093062214
:102DB0001092032210920422E8E1F2E202E006936C
:102DC00005C0803811F437D901C051DAFF91EF9175
:102DD000DF91CF91BF91AF919F918F917F916F9133
:102DE0005F914F913F912F911F910F910F900FBEC7
:102DF0000F901F901895AA1BBB1B51E107C0AA1F7B
:102E0000BB1FA617B70710F0A61BB70B881F991F8B
:102E10005A95A9F780959095BC01CD010895EE0FC4
:102E2000FF1F0590F491E02D0994FB01DC0102C025
:102E300001900D9241505040D8F70895F894FFCF7B
:102E4000E02EFF5580008000710A7C0A820A6E0A1B
:102E5000000048201820000020201C20082000002E
:102E60000902270001010080FA0904000003FFFFA6
:102E7000FF00070581010001010705820100010132
:102E8000070583010001010012010002000000405B
:102E9000EB0300A00002010200010000000300009B
:102EA0000000000000000000000000000000000022
:102EB0000000000000000000000000000000000012
:102EC000000000000000000000000000000055535A
:102ED00042476F62696E6461722044756D6D79203E
:102EE000446576696365005461706972546563680E
:062EF000000004030904C8
:00000001FF
